{"abi":[{"type":"constructor","inputs":[],"stateMutability":"nonpayable"},{"type":"function","name":"Login","inputs":[{"name":"_userAddress","type":"address","internalType":"address"}],"outputs":[{"name":"","type":"string","internalType":"string"}],"stateMutability":"view"},{"type":"function","name":"_contractOwner","inputs":[],"outputs":[{"name":"","type":"address","internalType":"address"}],"stateMutability":"view"},{"type":"function","name":"addCitizen","inputs":[{"name":"_firstName","type":"string","internalType":"string"},{"name":"_middleName","type":"string","internalType":"string"},{"name":"_birthCertificateNo","type":"string","internalType":"string"},{"name":"_lastName","type":"string","internalType":"string"},{"name":"_gender","type":"string","internalType":"string"},{"name":"_dateofBirth","type":"string","internalType":"string"}],"outputs":[],"stateMutability":"nonpayable"},{"type":"function","name":"addInstitution","inputs":[{"name":"_instutionName","type":"string","internalType":"string"},{"name":"_orgAddress","type":"address","internalType":"address"},{"name":"_orgType","type":"string","internalType":"string"},{"name":"_abbreviation","type":"string","internalType":"string"}],"outputs":[],"stateMutability":"nonpayable"},{"type":"function","name":"addOperator","inputs":[{"name":"_firstName","type":"string","internalType":"string"},{"name":"_lastName","type":"string","internalType":"string"},{"name":"_operatorAddress","type":"address","internalType":"address"},{"name":"_position","type":"string","internalType":"string"},{"name":"_organisation","type":"string","internalType":"string"}],"outputs":[],"stateMutability":"nonpayable"},{"type":"function","name":"announceDeath","inputs":[{"name":"_citizenId","type":"string","internalType":"string"}],"outputs":[],"stateMutability":"nonpayable"},{"type":"function","name":"checkHealthInsuranceStatusByNumber","inputs":[{"name":"_healthInsuranceNumber","type":"string","internalType":"string"}],"outputs":[{"name":"","type":"bool","internalType":"bool"}],"stateMutability":"view"},{"type":"function","name":"citizenArray","inputs":[{"name":"","type":"uint256","internalType":"uint256"}],"outputs":[{"name":"citizenStatus","type":"bool","internalType":"bool"},{"name":"firstName","type":"string","internalType":"string"},{"name":"birthCertificateNo","type":"string","internalType":"string"},{"name":"middleName","type":"string","internalType":"string"},{"name":"lastName","type":"string","internalType":"string"},{"name":"citizenId","type":"string","internalType":"string"},{"name":"gender","type":"string","internalType":"string"},{"name":"dateofBirth","type":"string","internalType":"string"},{"name":"healthInsuarance","type":"string","internalType":"string"}],"stateMutability":"view"},{"type":"function","name":"citizenMapping","inputs":[{"name":"","type":"string","internalType":"string"}],"outputs":[{"name":"citizenStatus","type":"bool","internalType":"bool"},{"name":"firstName","type":"string","internalType":"string"},{"name":"birthCertificateNo","type":"string","internalType":"string"},{"name":"middleName","type":"string","internalType":"string"},{"name":"lastName","type":"string","internalType":"string"},{"name":"citizenId","type":"string","internalType":"string"},{"name":"gender","type":"string","internalType":"string"},{"name":"dateofBirth","type":"string","internalType":"string"},{"name":"healthInsuarance","type":"string","internalType":"string"}],"stateMutability":"view"},{"type":"function","name":"deathCertificateArray","inputs":[{"name":"","type":"uint256","internalType":"uint256"}],"outputs":[{"name":"causeOfDeath","type":"string","internalType":"string"},{"name":"dOB","type":"string","internalType":"string"},{"name":"registerBY","type":"address","internalType":"address"},{"name":"citizenID","type":"string","internalType":"string"}],"stateMutability":"view"},{"type":"function","name":"deathcertificateMapping","inputs":[{"name":"","type":"string","internalType":"string"}],"outputs":[{"name":"causeOfDeath","type":"string","internalType":"string"},{"name":"dOB","type":"string","internalType":"string"},{"name":"registerBY","type":"address","internalType":"address"},{"name":"citizenID","type":"string","internalType":"string"}],"stateMutability":"view"},{"type":"function","name":"getAllCitizens","inputs":[],"outputs":[{"name":"","type":"tuple[]","internalType":"struct IdentityGateway.Citizen[]","components":[{"name":"citizenStatus","type":"bool","internalType":"bool"},{"name":"firstName","type":"string","internalType":"string"},{"name":"birthCertificateNo","type":"string","internalType":"string"},{"name":"middleName","type":"string","internalType":"string"},{"name":"lastName","type":"string","internalType":"string"},{"name":"citizenId","type":"string","internalType":"string"},{"name":"gender","type":"string","internalType":"string"},{"name":"dateofBirth","type":"string","internalType":"string"},{"name":"healthInsuarance","type":"string","internalType":"string"}]}],"stateMutability":"view"},{"type":"function","name":"getAllInstitution","inputs":[],"outputs":[{"name":"","type":"tuple[]","internalType":"struct IdentityGateway.Institution[]","components":[{"name":"instutionName","type":"string","internalType":"string"},{"name":"abbreviation","type":"string","internalType":"string"},{"name":"orgType","type":"string","internalType":"string"},{"name":"orgAddress","type":"address","internalType":"address"}]}],"stateMutability":"view"},{"type":"function","name":"getAllOperators","inputs":[],"outputs":[{"name":"","type":"tuple[]","internalType":"struct IdentityGateway.Operator[]","components":[{"name":"operatorAddress","type":"address","internalType":"address"},{"name":"firstName","type":"string","internalType":"string"},{"name":"lastName","type":"string","internalType":"string"},{"name":"position","type":"string","internalType":"string"},{"name":"organisation","type":"string","internalType":"string"}]}],"stateMutability":"view"},{"type":"function","name":"getAllTransactions","inputs":[],"outputs":[{"name":"","type":"tuple[]","internalType":"struct IdentityGateway.Transaction[]","components":[{"name":"action","type":"string","internalType":"string"},{"name":"performedBy","type":"address","internalType":"address"},{"name":"timestamp","type":"uint256","internalType":"uint256"},{"name":"status","type":"bool","internalType":"bool"}]}],"stateMutability":"view"},{"type":"function","name":"getCitizenData","inputs":[{"name":"_birthCertificateNo","type":"string","internalType":"string"}],"outputs":[{"name":"","type":"tuple","internalType":"struct IdentityGateway.Citizen","components":[{"name":"citizenStatus","type":"bool","internalType":"bool"},{"name":"firstName","type":"string","internalType":"string"},{"name":"birthCertificateNo","type":"string","internalType":"string"},{"name":"middleName","type":"string","internalType":"string"},{"name":"lastName","type":"string","internalType":"string"},{"name":"citizenId","type":"string","internalType":"string"},{"name":"gender","type":"string","internalType":"string"},{"name":"dateofBirth","type":"string","internalType":"string"},{"name":"healthInsuarance","type":"string","internalType":"string"}]}],"stateMutability":"view"},{"type":"function","name":"identityArray","inputs":[{"name":"","type":"uint256","internalType":"uint256"}],"outputs":[{"name":"idType","type":"string","internalType":"string"},{"name":"documentCid","type":"string","internalType":"string"}],"stateMutability":"view"},{"type":"function","name":"institutionArray","inputs":[{"name":"","type":"uint256","internalType":"uint256"}],"outputs":[{"name":"instutionName","type":"string","internalType":"string"},{"name":"abbreviation","type":"string","internalType":"string"},{"name":"orgType","type":"string","internalType":"string"},{"name":"orgAddress","type":"address","internalType":"address"}],"stateMutability":"view"},{"type":"function","name":"institutionMapping","inputs":[{"name":"","type":"string","internalType":"string"}],"outputs":[{"name":"instutionName","type":"string","internalType":"string"},{"name":"abbreviation","type":"string","internalType":"string"},{"name":"orgType","type":"string","internalType":"string"},{"name":"orgAddress","type":"address","internalType":"address"}],"stateMutability":"view"},{"type":"function","name":"isCitizenAlive","inputs":[{"name":"_citizenId","type":"string","internalType":"string"}],"outputs":[{"name":"","type":"bool","internalType":"bool"}],"stateMutability":"view"},{"type":"function","name":"issueCitizenId","inputs":[{"name":"_birthCertificateNo","type":"string","internalType":"string"},{"name":"_citizenId","type":"string","internalType":"string"}],"outputs":[],"stateMutability":"nonpayable"},{"type":"function","name":"issueDeathCertificate","inputs":[{"name":"_causeOfDeath","type":"string","internalType":"string"},{"name":"_dOB","type":"string","internalType":"string"},{"name":"_registerBY","type":"address","internalType":"address"},{"name":"_citizenID","type":"string","internalType":"string"}],"outputs":[],"stateMutability":"nonpayable"},{"type":"function","name":"operatorArray","inputs":[{"name":"","type":"uint256","internalType":"uint256"}],"outputs":[{"name":"operatorAddress","type":"address","internalType":"address"},{"name":"firstName","type":"string","internalType":"string"},{"name":"lastName","type":"string","internalType":"string"},{"name":"position","type":"string","internalType":"string"},{"name":"organisation","type":"string","internalType":"string"}],"stateMutability":"view"},{"type":"function","name":"operatorMapping","inputs":[{"name":"","type":"address","internalType":"address"}],"outputs":[{"name":"operatorAddress","type":"address","internalType":"address"},{"name":"firstName","type":"string","internalType":"string"},{"name":"lastName","type":"string","internalType":"string"},{"name":"position","type":"string","internalType":"string"},{"name":"organisation","type":"string","internalType":"string"}],"stateMutability":"view"},{"type":"function","name":"transactionsArray","inputs":[{"name":"","type":"uint256","internalType":"uint256"}],"outputs":[{"name":"action","type":"string","internalType":"string"},{"name":"performedBy","type":"address","internalType":"address"},{"name":"timestamp","type":"uint256","internalType":"uint256"},{"name":"status","type":"bool","internalType":"bool"}],"stateMutability":"view"},{"type":"function","name":"userArray","inputs":[{"name":"","type":"uint256","internalType":"uint256"}],"outputs":[{"name":"userAddress","type":"address","internalType":"address"},{"name":"userType","type":"string","internalType":"string"}],"stateMutability":"view"},{"type":"function","name":"userMapping","inputs":[{"name":"","type":"address","internalType":"address"}],"outputs":[{"name":"userAddress","type":"address","internalType":"address"},{"name":"userType","type":"string","internalType":"string"}],"stateMutability":"view"}],"bytecode":{"object":"0x6080604052348015600f57600080fd5b50600080546001600160a01b03191633179055613c32806100316000396000f3fe608060405234801561001057600080fd5b50600436106101a95760003560e01c80638c694d4d116100f9578063d911c63211610097578063e5ec9e1311610071578063e5ec9e131461041d578063ede0a3f214610430578063eecc1c9514610443578063f21bccfd1461046357600080fd5b8063d911c632146103d2578063dd1209dd146103e7578063e210ecee146103fa57600080fd5b8063b231d4a5116100d3578063b231d4a514610379578063cd01b10314610399578063d7d6d946146103ac578063d90d7c06146103bf57600080fd5b80638c694d4d1461031f5780638d9b6a3914610343578063aace8d9f1461036657600080fd5b806336a786ec116101665780634b2fd467116101405780634b2fd467146102c15780636c0e1ccd146102d45780637179919f146102e957806374ad48da146102fc57600080fd5b806336a786ec1461027857806341209af11461028d5780634b2d18ba146102a057600080fd5b80630a4f3679146101ae578063118b9535146101da5780631af44596146101fb57806327506f53146102235780632afe436a146102385780632bb3b1141461024d575b600080fd5b6101c16101bc366004612fde565b610476565b6040516101d1949392919061306a565b60405180910390f35b6101ed6101e83660046130d9565b610650565b6040516101d19291906130fb565b61020e61020936600461311f565b6106ff565b6040516101d199989796959493929190613138565b61022b610b9d565b6040516101d191906131f0565b61024b610246366004612fde565b610cc0565b005b600054610260906001600160a01b031681565b6040516001600160a01b0390911681526020016101d1565b610280610d05565b6040516101d1919061328a565b6101ed61029b36600461311f565b610f27565b6102b36102ae36600461311f565b610f66565b6040516101d1929190613338565b61024b6102cf366004613366565b611027565b6102dc6110e3565b6040516101d191906134a7565b61024b6102f7366004613500565b6115dc565b61030f61030a366004612fde565b611771565b60405190151581526020016101d1565b61033261032d36600461311f565b611863565b6040516101d19594939291906135a2565b610356610351366004612fde565b611acf565b6040516101d1949392919061360c565b61024b61037436600461365f565b611ca3565b61038c610387366004612fde565b611f61565b6040516101d1919061376f565b61030f6103a7366004612fde565b61247f565b61024b6103ba366004613782565b6124bb565b61024b6103cd36600461384f565b612766565b6103da6128e3565b6040516101d191906138d9565b6103566103f536600461311f565b612b97565b61040d61040836600461311f565b612bca565b6040516101d194939291906139a2565b61033261042b3660046130d9565b612ca1565b61020e61043e366004612fde565b612ccd565b6104566104513660046130d9565b612cfe565b6040516101d191906139dc565b6101c161047136600461311f565b612dad565b805160208183018101805160098252928201919093012091528054819061049c906139ef565b80601f01602080910402602001604051908101604052809291908181526020018280546104c8906139ef565b80156105155780601f106104ea57610100808354040283529160200191610515565b820191906000526020600020905b8154815290600101906020018083116104f857829003601f168201915b50505050509080600101805461052a906139ef565b80601f0160208091040260200160405190810160405280929190818152602001828054610556906139ef565b80156105a35780601f10610578576101008083540402835291602001916105a3565b820191906000526020600020905b81548152906001019060200180831161058657829003601f168201915b505050600284015460038501805494956001600160a01b039092169491935091506105cd906139ef565b80601f01602080910402602001604051908101604052809291908181526020018280546105f9906139ef565b80156106465780601f1061061b57610100808354040283529160200191610646565b820191906000526020600020905b81548152906001019060200180831161062957829003601f168201915b5050505050905084565b600b60205260009081526040902080546001820180546001600160a01b03909216929161067c906139ef565b80601f01602080910402602001604051908101604052809291908181526020018280546106a8906139ef565b80156106f55780601f106106ca576101008083540402835291602001916106f5565b820191906000526020600020905b8154815290600101906020018083116106d857829003601f168201915b5050505050905082565b6002818154811061070f57600080fd5b60009182526020909120600990910201805460018201805460ff909216935090610738906139ef565b80601f0160208091040260200160405190810160405280929190818152602001828054610764906139ef565b80156107b15780601f10610786576101008083540402835291602001916107b1565b820191906000526020600020905b81548152906001019060200180831161079457829003601f168201915b5050505050908060020180546107c6906139ef565b80601f01602080910402602001604051908101604052809291908181526020018280546107f2906139ef565b801561083f5780601f106108145761010080835404028352916020019161083f565b820191906000526020600020905b81548152906001019060200180831161082257829003601f168201915b505050505090806003018054610854906139ef565b80601f0160208091040260200160405190810160405280929190818152602001828054610880906139ef565b80156108cd5780601f106108a2576101008083540402835291602001916108cd565b820191906000526020600020905b8154815290600101906020018083116108b057829003601f168201915b5050505050908060040180546108e2906139ef565b80601f016020809104026020016040519081016040528092919081815260200182805461090e906139ef565b801561095b5780601f106109305761010080835404028352916020019161095b565b820191906000526020600020905b81548152906001019060200180831161093e57829003601f168201915b505050505090806005018054610970906139ef565b80601f016020809104026020016040519081016040528092919081815260200182805461099c906139ef565b80156109e95780601f106109be576101008083540402835291602001916109e9565b820191906000526020600020905b8154815290600101906020018083116109cc57829003601f168201915b5050505050908060060180546109fe906139ef565b80601f0160208091040260200160405190810160405280929190818152602001828054610a2a906139ef565b8015610a775780601f10610a4c57610100808354040283529160200191610a77565b820191906000526020600020905b815481529060010190602001808311610a5a57829003601f168201915b505050505090806007018054610a8c906139ef565b80601f0160208091040260200160405190810160405280929190818152602001828054610ab8906139ef565b8015610b055780601f10610ada57610100808354040283529160200191610b05565b820191906000526020600020905b815481529060010190602001808311610ae857829003601f168201915b505050505090806008018054610b1a906139ef565b80601f0160208091040260200160405190810160405280929190818152602001828054610b46906139ef565b8015610b935780601f10610b6857610100808354040283529160200191610b93565b820191906000526020600020905b815481529060010190602001808311610b7657829003601f168201915b5050505050905089565b60606007805480602002602001604051908101604052809291908181526020016000905b82821015610cb75783829060005260206000209060040201604051806080016040529081600082018054610bf4906139ef565b80601f0160208091040260200160405190810160405280929190818152602001828054610c20906139ef565b8015610c6d5780601f10610c4257610100808354040283529160200191610c6d565b820191906000526020600020905b815481529060010190602001808311610c5057829003601f168201915b50505091835250506001828101546001600160a01b03166020808401919091526002840154604084015260039093015460ff16151560609092019190915291835292019101610bc1565b50505050905090565b6000610ccb82612de0565b9050600060028281548110610ce257610ce2613a29565b60009182526020909120600990910201805460ff19169115159190911790555050565b60606003805480602002602001604051908101604052809291908181526020016000905b82821015610cb75783829060005260206000209060040201604051806080016040529081600082018054610d5c906139ef565b80601f0160208091040260200160405190810160405280929190818152602001828054610d88906139ef565b8015610dd55780601f10610daa57610100808354040283529160200191610dd5565b820191906000526020600020905b815481529060010190602001808311610db857829003601f168201915b50505050508152602001600182018054610dee906139ef565b80601f0160208091040260200160405190810160405280929190818152602001828054610e1a906139ef565b8015610e675780601f10610e3c57610100808354040283529160200191610e67565b820191906000526020600020905b815481529060010190602001808311610e4a57829003601f168201915b50505050508152602001600282018054610e80906139ef565b80601f0160208091040260200160405190810160405280929190818152602001828054610eac906139ef565b8015610ef95780601f10610ece57610100808354040283529160200191610ef9565b820191906000526020600020905b815481529060010190602001808311610edc57829003601f168201915b5050509183525050600391909101546001600160a01b03166020918201529082526001929092019101610d29565b60068181548110610f3757600080fd5b6000918252602090912060029091020180546001820180546001600160a01b0390921693509061067c906139ef565b60058181548110610f7657600080fd5b9060005260206000209060020201600091509050806000018054610f99906139ef565b80601f0160208091040260200160405190810160405280929190818152602001828054610fc5906139ef565b80156110125780601f10610fe757610100808354040283529160200191611012565b820191906000526020600020905b815481529060010190602001808311610ff557829003601f168201915b50505050509080600101805461067c906139ef565b806008836040516110389190613a3f565b908152602001604051809103902060050190816110559190613aa2565b506000600e836040516110689190613a3f565b9081526020016040518091039020549050816002828154811061108d5761108d613a29565b906000526020600020906009020160050190816110aa9190613aa2565b506110de60405180604001604052806011815260200170125cdcdd59590810da5d1a5e995b881251607a1b81525033612e7c565b505050565b60606002805480602002602001604051908101604052809291908181526020016000905b82821015610cb757600084815260209081902060408051610120810190915260098502909101805460ff1615158252600181018054929391929184019161114d906139ef565b80601f0160208091040260200160405190810160405280929190818152602001828054611179906139ef565b80156111c65780601f1061119b576101008083540402835291602001916111c6565b820191906000526020600020905b8154815290600101906020018083116111a957829003601f168201915b505050505081526020016002820180546111df906139ef565b80601f016020809104026020016040519081016040528092919081815260200182805461120b906139ef565b80156112585780601f1061122d57610100808354040283529160200191611258565b820191906000526020600020905b81548152906001019060200180831161123b57829003601f168201915b50505050508152602001600382018054611271906139ef565b80601f016020809104026020016040519081016040528092919081815260200182805461129d906139ef565b80156112ea5780601f106112bf576101008083540402835291602001916112ea565b820191906000526020600020905b8154815290600101906020018083116112cd57829003601f168201915b50505050508152602001600482018054611303906139ef565b80601f016020809104026020016040519081016040528092919081815260200182805461132f906139ef565b801561137c5780601f106113515761010080835404028352916020019161137c565b820191906000526020600020905b81548152906001019060200180831161135f57829003601f168201915b50505050508152602001600582018054611395906139ef565b80601f01602080910402602001604051908101604052809291908181526020018280546113c1906139ef565b801561140e5780601f106113e35761010080835404028352916020019161140e565b820191906000526020600020905b8154815290600101906020018083116113f157829003601f168201915b50505050508152602001600682018054611427906139ef565b80601f0160208091040260200160405190810160405280929190818152602001828054611453906139ef565b80156114a05780601f10611475576101008083540402835291602001916114a0565b820191906000526020600020905b81548152906001019060200180831161148357829003601f168201915b505050505081526020016007820180546114b9906139ef565b80601f01602080910402602001604051908101604052809291908181526020018280546114e5906139ef565b80156115325780601f1061150757610100808354040283529160200191611532565b820191906000526020600020905b81548152906001019060200180831161151557829003601f168201915b5050505050815260200160088201805461154b906139ef565b80601f0160208091040260200160405190810160405280929190818152602001828054611577906139ef565b80156115c45780601f10611599576101008083540402835291602001916115c4565b820191906000526020600020905b8154815290600101906020018083116115a757829003601f168201915b50505050508152505081526020019060010190611107565b60408051608081018252858152602081018590526001600160a01b0384169181019190915260608101829052600180548082018255600091909152815182916004027fb10e2d527612073b26eecdfd717e6a320cf44b4afac2b0732d9fcbe2b7fa0cf60190819061164d9082613aa2565b50602082015160018201906116629082613aa2565b5060408201516002820180546001600160a01b0319166001600160a01b039092169190911790556060820151600382019061169d9082613aa2565b505050806009836040516116b19190613a3f565b908152604051908190036020019020815181906116ce9082613aa2565b50602082015160018201906116e39082613aa2565b5060408201516002820180546001600160a01b0319166001600160a01b039092169190911790556060820151600382019061171e9082613aa2565b5090505061172b82610cc0565b61176a6040518060400160405280601781526020017f497373756564204465617468436572746966696361746500000000000000000081525033612e7c565b5050505050565b6000805b60025481101561180b5782805190602001206002828154811061179a5761179a613a29565b90600052602060002090600902016008016040516117b89190613b60565b60405180910390200361180357600281815481106117d8576117d8613a29565b600091825260209091206009909102015460ff16156117fa5750600192915050565b50600092915050565b600101611775565b5060405162461bcd60e51b815260206004820152602160248201527f4865616c746820696e737572616e6365206e756d626572206e6f7420666f756e6044820152601960fa1b60648201526084015b60405180910390fd5b6004818154811061187357600080fd5b6000918252602090912060059091020180546001820180546001600160a01b039092169350906118a2906139ef565b80601f01602080910402602001604051908101604052809291908181526020018280546118ce906139ef565b801561191b5780601f106118f05761010080835404028352916020019161191b565b820191906000526020600020905b8154815290600101906020018083116118fe57829003601f168201915b505050505090806002018054611930906139ef565b80601f016020809104026020016040519081016040528092919081815260200182805461195c906139ef565b80156119a95780601f1061197e576101008083540402835291602001916119a9565b820191906000526020600020905b81548152906001019060200180831161198c57829003601f168201915b5050505050908060030180546119be906139ef565b80601f01602080910402602001604051908101604052809291908181526020018280546119ea906139ef565b8015611a375780601f10611a0c57610100808354040283529160200191611a37565b820191906000526020600020905b815481529060010190602001808311611a1a57829003601f168201915b505050505090806004018054611a4c906139ef565b80601f0160208091040260200160405190810160405280929190818152602001828054611a78906139ef565b8015611ac55780601f10611a9a57610100808354040283529160200191611ac5565b820191906000526020600020905b815481529060010190602001808311611aa857829003601f168201915b5050505050905085565b8051602081830181018051600a82529282019190930120915280548190611af5906139ef565b80601f0160208091040260200160405190810160405280929190818152602001828054611b21906139ef565b8015611b6e5780601f10611b4357610100808354040283529160200191611b6e565b820191906000526020600020905b815481529060010190602001808311611b5157829003601f168201915b505050505090806001018054611b83906139ef565b80601f0160208091040260200160405190810160405280929190818152602001828054611baf906139ef565b8015611bfc5780601f10611bd157610100808354040283529160200191611bfc565b820191906000526020600020905b815481529060010190602001808311611bdf57829003601f168201915b505050505090806002018054611c11906139ef565b80601f0160208091040260200160405190810160405280929190818152602001828054611c3d906139ef565b8015611c8a5780601f10611c5f57610100808354040283529160200191611c8a565b820191906000526020600020905b815481529060010190602001808311611c6d57829003601f168201915b505050600390930154919250506001600160a01b031684565b600060405180610120016040528060011515815260200188815260200186815260200187815260200185815260200160405180602001604052806000815250815260200184815260200183815260200160405180602001604052806000815250815250905080600886604051611d199190613a3f565b908152604051602091819003820190208251815460ff1916901515178155908201516001820190611d4a9082613aa2565b5060408201516002820190611d5f9082613aa2565b5060608201516003820190611d749082613aa2565b5060808201516004820190611d899082613aa2565b5060a08201516005820190611d9e9082613aa2565b5060c08201516006820190611db39082613aa2565b5060e08201516007820190611dc89082613aa2565b506101008201516008820190611dde9082613aa2565b50506002805460018101825560009190915282517f405787fa12a823e0f2b7631cc41b3ba8828b3321ca811111fa75cd3aa3bb5ace6009909202918201805460ff1916911515919091178155602084015184935090917f405787fa12a823e0f2b7631cc41b3ba8828b3321ca811111fa75cd3aa3bb5acf0190611e619082613aa2565b5060408201516002820190611e769082613aa2565b5060608201516003820190611e8b9082613aa2565b5060808201516004820190611ea09082613aa2565b5060a08201516005820190611eb59082613aa2565b5060c08201516006820190611eca9082613aa2565b5060e08201516007820190611edf9082613aa2565b506101008201516008820190611ef59082613aa2565b5050600254611f079150600190613bd5565b600e86604051611f179190613a3f565b908152602001604051809103902081905550611f586040518060400160405280600d81526020016c20b23232b21031b4ba34bd32b760991b81525033612e7c565b50505050505050565b611fb260405180610120016040528060001515815260200160608152602001606081526020016060815260200160608152602001606081526020016060815260200160608152602001606081525090565b600882604051611fc29190613a3f565b9081526040805191829003602090810183206101208401909252815460ff161515835260018201805491840191611ff8906139ef565b80601f0160208091040260200160405190810160405280929190818152602001828054612024906139ef565b80156120715780601f1061204657610100808354040283529160200191612071565b820191906000526020600020905b81548152906001019060200180831161205457829003601f168201915b5050505050815260200160028201805461208a906139ef565b80601f01602080910402602001604051908101604052809291908181526020018280546120b6906139ef565b80156121035780601f106120d857610100808354040283529160200191612103565b820191906000526020600020905b8154815290600101906020018083116120e657829003601f168201915b5050505050815260200160038201805461211c906139ef565b80601f0160208091040260200160405190810160405280929190818152602001828054612148906139ef565b80156121955780601f1061216a57610100808354040283529160200191612195565b820191906000526020600020905b81548152906001019060200180831161217857829003601f168201915b505050505081526020016004820180546121ae906139ef565b80601f01602080910402602001604051908101604052809291908181526020018280546121da906139ef565b80156122275780601f106121fc57610100808354040283529160200191612227565b820191906000526020600020905b81548152906001019060200180831161220a57829003601f168201915b50505050508152602001600582018054612240906139ef565b80601f016020809104026020016040519081016040528092919081815260200182805461226c906139ef565b80156122b95780601f1061228e576101008083540402835291602001916122b9565b820191906000526020600020905b81548152906001019060200180831161229c57829003601f168201915b505050505081526020016006820180546122d2906139ef565b80601f01602080910402602001604051908101604052809291908181526020018280546122fe906139ef565b801561234b5780601f106123205761010080835404028352916020019161234b565b820191906000526020600020905b81548152906001019060200180831161232e57829003601f168201915b50505050508152602001600782018054612364906139ef565b80601f0160208091040260200160405190810160405280929190818152602001828054612390906139ef565b80156123dd5780601f106123b2576101008083540402835291602001916123dd565b820191906000526020600020905b8154815290600101906020018083116123c057829003601f168201915b505050505081526020016008820180546123f6906139ef565b80601f0160208091040260200160405190810160405280929190818152602001828054612422906139ef565b801561246f5780601f106124445761010080835404028352916020019161246f565b820191906000526020600020905b81548152906001019060200180831161245257829003601f168201915b5050505050815250509050919050565b60008061248b83612de0565b9050600281815481106124a0576124a0613a29565b600091825260209091206009909102015460ff169392505050565b6040805160a0810182526001600160a01b03851680825260208083018990528284018890526060830186905260808301859052835180850185528281528451808601865260088082526737b832b930ba37b960c11b8285018190528385019290925286518088018852908152808401919091526000938452600b909252939091209192916001019061254d9082613aa2565b506006805460018101825560009190915281517ff652222313e28459528d920b65115c16c04f3efc82aaedc97be59f3f377c0d3f600290920291820180546001600160a01b0319166001600160a01b03909216919091178155602083015183927ff652222313e28459528d920b65115c16c04f3efc82aaedc97be59f3f377c0d4001906125da9082613aa2565b5050506001600160a01b038581166000908152600c60209081526040909120845181546001600160a01b031916931692909217825583015183919060018201906126249082613aa2565b50604082015160028201906126399082613aa2565b506060820151600382019061264e9082613aa2565b50608082015160048201906126639082613aa2565b50506004805460018101825560009190915283517f8a35acfbc15ff81a39ae7d344fd709f28e8600b4aa8c65c6b64bfe7fe36bd19b600590920291820180546001600160a01b0319166001600160a01b03909216919091178155602085015185935090917f8a35acfbc15ff81a39ae7d344fd709f28e8600b4aa8c65c6b64bfe7fe36bd19c01906126f49082613aa2565b50604082015160028201906127099082613aa2565b506060820151600382019061271e9082613aa2565b50608082015160048201906127339082613aa2565b505050611f586040518060400160405280600e81526020016d20b23232b21027b832b930ba37b960911b81525033612e7c565b60408051608081018252858152602081018390529081018390526001600160a01b038416606082015260038054600181018255600091909152815182916004027fc2575a0e9e593c00f959f8c92f12db2869c3395a3b0502d05e2516446f71f85b019081906127d59082613aa2565b50602082015160018201906127ea9082613aa2565b50604082015160028201906127ff9082613aa2565b5060608201518160030160006101000a8154816001600160a01b0302191690836001600160a01b03160217905550505080600a836040516128409190613a3f565b9081526040519081900360200190208151819061285d9082613aa2565b50602082015160018201906128729082613aa2565b50604082015160028201906128879082613aa2565b5060609190910151600390910180546001600160a01b0319166001600160a01b0390921691909117905560408051808201909152601181527020b23232b21024b739ba34ba3aba34b7b760791b602082015261176a9033612e7c565b60606004805480602002602001604051908101604052809291908181526020016000905b82821015610cb75760008481526020908190206040805160a081019091526005850290910180546001600160a01b031682526001810180549293919291840191612950906139ef565b80601f016020809104026020016040519081016040528092919081815260200182805461297c906139ef565b80156129c95780601f1061299e576101008083540402835291602001916129c9565b820191906000526020600020905b8154815290600101906020018083116129ac57829003601f168201915b505050505081526020016002820180546129e2906139ef565b80601f0160208091040260200160405190810160405280929190818152602001828054612a0e906139ef565b8015612a5b5780601f10612a3057610100808354040283529160200191612a5b565b820191906000526020600020905b815481529060010190602001808311612a3e57829003601f168201915b50505050508152602001600382018054612a74906139ef565b80601f0160208091040260200160405190810160405280929190818152602001828054612aa0906139ef565b8015612aed5780601f10612ac257610100808354040283529160200191612aed565b820191906000526020600020905b815481529060010190602001808311612ad057829003601f168201915b50505050508152602001600482018054612b06906139ef565b80601f0160208091040260200160405190810160405280929190818152602001828054612b32906139ef565b8015612b7f5780601f10612b5457610100808354040283529160200191612b7f565b820191906000526020600020905b815481529060010190602001808311612b6257829003601f168201915b50505050508152505081526020019060010190612907565b60038181548110612ba757600080fd5b9060005260206000209060040201600091509050806000018054611af5906139ef565b60078181548110612bda57600080fd5b9060005260206000209060040201600091509050806000018054612bfd906139ef565b80601f0160208091040260200160405190810160405280929190818152602001828054612c29906139ef565b8015612c765780601f10612c4b57610100808354040283529160200191612c76565b820191906000526020600020905b815481529060010190602001808311612c5957829003601f168201915b505050506001830154600284015460039094015492936001600160a01b039091169290915060ff1684565b600c60205260009081526040902080546001820180546001600160a01b0390921692916118a2906139ef565b80516020818301810180516008825292820191909301209152805460018201805460ff9092169291610738906139ef565b6001600160a01b0381166000908152600c60205260409020600401805460609190612d28906139ef565b80601f0160208091040260200160405190810160405280929190818152602001828054612d54906139ef565b8015612da15780601f10612d7657610100808354040283529160200191612da1565b820191906000526020600020905b815481529060010190602001808311612d8457829003601f168201915b50505050509050919050565b60018181548110612dbd57600080fd5b906000526020600020906004020160009150905080600001805461049c906139ef565b6000805b600254811015612e4257828051906020012060028281548110612e0957612e09613a29565b9060005260206000209060090201600501604051612e279190613b60565b604051809103902003612e3a5792915050565b600101612de4565b5060405162461bcd60e51b815260206004820152600e60248201526d155cd95c881b9bdd08199bdd5b9960921b604482015260640161185a565b604080516080810182528381526001600160a01b03831660208201524291810191909152600160608201819052600780549182018155600052815182916004027fa66cc928b5edb82af9bd49922954155ab7b0942694bea4ce44661d9a8736c68801908190612eeb9082613aa2565b5060208201516001820180546001600160a01b0319166001600160a01b03909216919091179055604082015160028201556060909101516003909101805460ff1916911515919091179055505050565b634e487b7160e01b600052604160045260246000fd5b600082601f830112612f6257600080fd5b81356001600160401b03811115612f7b57612f7b612f3b565b604051601f8201601f19908116603f011681016001600160401b0381118282101715612fa957612fa9612f3b565b604052818152838201602001851015612fc157600080fd5b816020850160208301376000918101602001919091529392505050565b600060208284031215612ff057600080fd5b81356001600160401b0381111561300657600080fd5b61301284828501612f51565b949350505050565b60005b8381101561303557818101518382015260200161301d565b50506000910152565b6000815180845261305681602086016020860161301a565b601f01601f19169290920160200192915050565b60808152600061307d608083018761303e565b828103602084015261308f818761303e565b6001600160a01b0386166040850152838103606085015290506130b2818561303e565b979650505050505050565b80356001600160a01b03811681146130d457600080fd5b919050565b6000602082840312156130eb57600080fd5b6130f4826130bd565b9392505050565b6001600160a01b03831681526040602082018190526000906130129083018461303e565b60006020828403121561313157600080fd5b5035919050565b89151581526101206020820152600061315561012083018b61303e565b8281036040840152613167818b61303e565b9050828103606084015261317b818a61303e565b9050828103608084015261318f818961303e565b905082810360a08401526131a3818861303e565b905082810360c08401526131b7818761303e565b905082810360e08401526131cb818661303e565b90508281036101008401526131e0818561303e565b9c9b505050505050505050505050565b6000602082016020835280845180835260408501915060408160051b86010192506020860160005b8281101561327e57603f19878603018452815180516080875261323e608088018261303e565b6020838101516001600160a01b031689820152604080850151908a0152606093840151151593909801929092525094938401939190910190600101613218565b50929695505050505050565b6000602082016020835280845180835260408501915060408160051b86010192506020860160005b8281101561327e57603f1987860301845281518051608087526132d8608088018261303e565b9050602082015187820360208901526132f1828261303e565b9150506040820151878203604089015261330b828261303e565b6060938401516001600160a01b0316989093019790975250945060209384019391909101906001016132b2565b60408152600061334b604083018561303e565b828103602084015261335d818561303e565b95945050505050565b6000806040838503121561337957600080fd5b82356001600160401b0381111561338f57600080fd5b61339b85828601612f51565b92505060208301356001600160401b038111156133b757600080fd5b6133c385828601612f51565b9150509250929050565b8051151582526000602082015161012060208501526133f061012085018261303e565b905060408301518482036040860152613409828261303e565b91505060608301518482036060860152613423828261303e565b9150506080830151848203608086015261343d828261303e565b91505060a083015184820360a0860152613457828261303e565b91505060c083015184820360c0860152613471828261303e565b91505060e083015184820360e086015261348b828261303e565b91505061010083015184820361010086015261335d828261303e565b6000602082016020835280845180835260408501915060408160051b86010192506020860160005b8281101561327e57603f198786030184526134eb8583516133cd565b945060209384019391909101906001016134cf565b6000806000806080858703121561351657600080fd5b84356001600160401b0381111561352c57600080fd5b61353887828801612f51565b94505060208501356001600160401b0381111561355457600080fd5b61356087828801612f51565b93505061356f604086016130bd565b915060608501356001600160401b0381111561358a57600080fd5b61359687828801612f51565b91505092959194509250565b6001600160a01b038616815260a0602082018190526000906135c69083018761303e565b82810360408401526135d8818761303e565b905082810360608401526135ec818661303e565b90508281036080840152613600818561303e565b98975050505050505050565b60808152600061361f608083018761303e565b8281036020840152613631818761303e565b90508281036040840152613645818661303e565b91505060018060a01b038316606083015295945050505050565b60008060008060008060c0878903121561367857600080fd5b86356001600160401b0381111561368e57600080fd5b61369a89828a01612f51565b96505060208701356001600160401b038111156136b657600080fd5b6136c289828a01612f51565b95505060408701356001600160401b038111156136de57600080fd5b6136ea89828a01612f51565b94505060608701356001600160401b0381111561370657600080fd5b61371289828a01612f51565b93505060808701356001600160401b0381111561372e57600080fd5b61373a89828a01612f51565b92505060a08701356001600160401b0381111561375657600080fd5b61376289828a01612f51565b9150509295509295509295565b6020815260006130f460208301846133cd565b600080600080600060a0868803121561379a57600080fd5b85356001600160401b038111156137b057600080fd5b6137bc88828901612f51565b95505060208601356001600160401b038111156137d857600080fd5b6137e488828901612f51565b9450506137f3604087016130bd565b925060608601356001600160401b0381111561380e57600080fd5b61381a88828901612f51565b92505060808601356001600160401b0381111561383657600080fd5b61384288828901612f51565b9150509295509295909350565b6000806000806080858703121561386557600080fd5b84356001600160401b0381111561387b57600080fd5b61388787828801612f51565b945050613896602086016130bd565b925060408501356001600160401b038111156138b157600080fd5b6138bd87828801612f51565b92505060608501356001600160401b0381111561358a57600080fd5b6000602082016020835280845180835260408501915060408160051b86010192506020860160005b8281101561327e57868503603f19018452815180516001600160a01b0316865260208082015160a09188018290529061393c9088018261303e565b905060408201518782036040890152613955828261303e565b9150506060820151878203606089015261396f828261303e565b91505060808201519150868103608088015261398b818361303e565b965050506020938401939190910190600101613901565b6080815260006139b5608083018761303e565b6001600160a01b039590951660208301525060408101929092521515606090910152919050565b6020815260006130f4602083018461303e565b600181811c90821680613a0357607f821691505b602082108103613a2357634e487b7160e01b600052602260045260246000fd5b50919050565b634e487b7160e01b600052603260045260246000fd5b60008251613a5181846020870161301a565b9190910192915050565b601f8211156110de57806000526020600020601f840160051c81016020851015613a825750805b601f840160051c820191505b8181101561176a5760008155600101613a8e565b81516001600160401b03811115613abb57613abb612f3b565b613acf81613ac984546139ef565b84613a5b565b6020601f821160018114613b035760008315613aeb5750848201515b600019600385901b1c1916600184901b17845561176a565b600084815260208120601f198516915b82811015613b335787850151825560209485019460019092019101613b13565b5084821015613b515786840151600019600387901b60f8161c191681555b50505050600190811b01905550565b6000808354613b6e816139ef565b600182168015613b855760018114613b9a57613bca565b60ff1983168652811515820286019350613bca565b86600052602060002060005b83811015613bc257815488820152600190910190602001613ba6565b505081860193505b509195945050505050565b81810381811115613bf657634e487b7160e01b600052601160045260246000fd5b9291505056fea26469706673582212206c57fc8365b1acfd59298887715d3b4852946a1c294032b99a008673a1e2906c64736f6c634300081a0033","linkReferences":{}},"methodIdentifiers":{"Login(address)":"eecc1c95","_contractOwner()":"2bb3b114","addCitizen(string,string,string,string,string,string)":"aace8d9f","addInstitution(string,address,string,string)":"d90d7c06","addOperator(string,string,address,string,string)":"d7d6d946","announceDeath(string)":"2afe436a","checkHealthInsuranceStatusByNumber(string)":"74ad48da","citizenArray(uint256)":"1af44596","citizenMapping(string)":"ede0a3f2","deathCertificateArray(uint256)":"f21bccfd","deathcertificateMapping(string)":"0a4f3679","getAllCitizens()":"6c0e1ccd","getAllInstitution()":"36a786ec","getAllOperators()":"d911c632","getAllTransactions()":"27506f53","getCitizenData(string)":"b231d4a5","identityArray(uint256)":"4b2d18ba","institutionArray(uint256)":"dd1209dd","institutionMapping(string)":"8d9b6a39","isCitizenAlive(string)":"cd01b103","issueCitizenId(string,string)":"4b2fd467","issueDeathCertificate(string,string,address,string)":"7179919f","operatorArray(uint256)":"8c694d4d","operatorMapping(address)":"e5ec9e13","transactionsArray(uint256)":"e210ecee","userArray(uint256)":"41209af1","userMapping(address)":"118b9535"},"id":15}