{"abi":[{"type":"constructor","inputs":[],"stateMutability":"nonpayable"},{"type":"function","name":"Login","inputs":[{"name":"userAddress","type":"address","internalType":"address"}],"outputs":[{"name":"","type":"string","internalType":"string"}],"stateMutability":"view"},{"type":"function","name":"addCitizen","inputs":[{"name":"_firstName","type":"string","internalType":"string"},{"name":"_middleName","type":"string","internalType":"string"},{"name":"_lastName","type":"string","internalType":"string"},{"name":"_citizenId","type":"address","internalType":"address"},{"name":"_gender","type":"string","internalType":"string"},{"name":"_dateofBirth","type":"string","internalType":"string"}],"outputs":[],"stateMutability":"nonpayable"},{"type":"function","name":"addOperator","inputs":[{"name":"_name","type":"string","internalType":"string"},{"name":"_operatorAddress","type":"address","internalType":"address"},{"name":"_organization","type":"string","internalType":"string"},{"name":"_position","type":"string","internalType":"string"}],"outputs":[],"stateMutability":"nonpayable"},{"type":"function","name":"addOrganiztion","inputs":[{"name":"_institutionName","type":"string","internalType":"string"},{"name":"_institutionAddress","type":"address","internalType":"address"},{"name":"_abbreviation","type":"string","internalType":"string"},{"name":"_institutionType","type":"string","internalType":"string"}],"outputs":[],"stateMutability":"nonpayable"},{"type":"function","name":"announceDeath","inputs":[{"name":"_citizenId","type":"address","internalType":"address"}],"outputs":[],"stateMutability":"nonpayable"},{"type":"function","name":"arrayofIdentities","inputs":[{"name":"","type":"uint256","internalType":"uint256"}],"outputs":[{"name":"idType","type":"string","internalType":"string"},{"name":"documentCid","type":"string","internalType":"string"}],"stateMutability":"view"},{"type":"function","name":"citizensMapping","inputs":[{"name":"","type":"address","internalType":"address"}],"outputs":[{"name":"firstName","type":"string","internalType":"string"},{"name":"middleName","type":"string","internalType":"string"},{"name":"lastName","type":"string","internalType":"string"},{"name":"citizenId","type":"address","internalType":"address"},{"name":"gender","type":"string","internalType":"string"},{"name":"dateofBirth","type":"string","internalType":"string"},{"name":"citizenStatus","type":"bool","internalType":"bool"}],"stateMutability":"view"},{"type":"function","name":"getAllInstitution","inputs":[],"outputs":[{"name":"","type":"tuple[]","internalType":"struct IdentityGateway.Institution[]","components":[{"name":"institutionAdress","type":"address","internalType":"address"},{"name":"abbreviation","type":"string","internalType":"string"},{"name":"institutionType","type":"string","internalType":"string"},{"name":"institutionName","type":"string","internalType":"string"}]}],"stateMutability":"view"},{"type":"function","name":"getAllOperators","inputs":[],"outputs":[{"name":"","type":"tuple[]","internalType":"struct IdentityGateway.Operators[]","components":[{"name":"name","type":"string","internalType":"string"},{"name":"operatorAddress","type":"address","internalType":"address"},{"name":"organization","type":"string","internalType":"string"},{"name":"position","type":"string","internalType":"string"}]}],"stateMutability":"view"},{"type":"function","name":"i_owner","inputs":[],"outputs":[{"name":"","type":"address","internalType":"address"}],"stateMutability":"view"},{"type":"function","name":"identityMapping","inputs":[{"name":"","type":"string","internalType":"string"}],"outputs":[{"name":"idType","type":"string","internalType":"string"},{"name":"documentCid","type":"string","internalType":"string"}],"stateMutability":"view"},{"type":"function","name":"isAvailable","inputs":[{"name":"_institutionAdress","type":"address","internalType":"address"}],"outputs":[{"name":"","type":"bool","internalType":"bool"}],"stateMutability":"view"},{"type":"function","name":"isCitizenAlive","inputs":[{"name":"_citizenId","type":"address","internalType":"address"}],"outputs":[{"name":"","type":"bool","internalType":"bool"}],"stateMutability":"view"},{"type":"function","name":"loggedInUser","inputs":[],"outputs":[{"name":"","type":"address","internalType":"address"}],"stateMutability":"view"},{"type":"function","name":"logout","inputs":[],"outputs":[],"stateMutability":"nonpayable"},{"type":"function","name":"operators","inputs":[{"name":"","type":"address","internalType":"address"}],"outputs":[{"name":"name","type":"string","internalType":"string"},{"name":"operatorAddress","type":"address","internalType":"address"},{"name":"organization","type":"string","internalType":"string"},{"name":"position","type":"string","internalType":"string"}],"stateMutability":"view"},{"type":"function","name":"operatorsArray","inputs":[{"name":"","type":"uint256","internalType":"uint256"}],"outputs":[{"name":"name","type":"string","internalType":"string"},{"name":"operatorAddress","type":"address","internalType":"address"},{"name":"organization","type":"string","internalType":"string"},{"name":"position","type":"string","internalType":"string"}],"stateMutability":"view"},{"type":"function","name":"organizationAvailable","inputs":[{"name":"","type":"address","internalType":"address"}],"outputs":[{"name":"institutionAdress","type":"address","internalType":"address"},{"name":"abbreviation","type":"string","internalType":"string"},{"name":"institutionType","type":"string","internalType":"string"},{"name":"institutionName","type":"string","internalType":"string"}],"stateMutability":"view"},{"type":"function","name":"userMapping","inputs":[{"name":"","type":"address","internalType":"address"}],"outputs":[{"name":"userAddress","type":"address","internalType":"address"},{"name":"userType","type":"string","internalType":"string"}],"stateMutability":"view"}],"bytecode":{"object":"0x6080604052348015600e575f5ffd5b50335f5f6101000a81548173ffffffffffffffffffffffffffffffffffffffff021916908373ffffffffffffffffffffffffffffffffffffffff160217905550612c608061005b5f395ff3fe608060405234801561000f575f5ffd5b506004361061011f575f3560e01c8063709fab40116100ab578063c9b47bd41161006f578063c9b47bd414610338578063d911c6321461036b578063dba6335f14610389578063ed7f6ad2146103a7578063eecc1c95146103d75761011f565b8063709fab401461027e5780638400c50d146102af578063a2e12126146102cb578063b958388d146102fe578063c10050671461031c5761011f565b80631f3c99c3116100f25780631f3c99c3146101d4578063255f2e80146101de5780632896f60b1461021457806336a786ec146102445780635c619a26146102625761011f565b8063077aef55146101235780630e3ebf4f1461013f578063118b95351461017057806313e7c9d8146101a1575b5f5ffd5b61013d60048036038101906101389190611fcb565b610407565b005b610159600480360381019061015491906120e0565b6105cc565b604051610167929190612187565b60405180910390f35b61018a600480360381019061018591906121bc565b610710565b6040516101989291906121f6565b60405180910390f35b6101bb60048036038101906101b691906121bc565b6107d5565b6040516101cb9493929190612224565b60405180910390f35b6101dc6109b2565b005b6101f860048036038101906101f391906121bc565b6109f4565b60405161020b9796959493929190612296565b60405180910390f35b61022e600480360381019061022991906121bc565b610cfb565b60405161023b9190612326565b60405180910390f35b61024c610d9f565b60405161025991906124bf565b60405180910390f35b61027c600480360381019061027791906121bc565b610fff565b005b61029860048036038101906102939190612512565b611049565b6040516102a6929190612187565b60405180910390f35b6102c960048036038101906102c4919061253d565b611184565b005b6102e560048036038101906102e091906121bc565b611276565b6040516102f594939291906125f5565b60405180910390f35b610306611453565b604051610313919061264d565b60405180910390f35b6103366004803603810190610331919061253d565b611478565b005b610352600480360381019061034d9190612512565b6116ee565b6040516103629493929190612224565b60405180910390f35b6103736118da565b604051610380919061278f565b60405180910390f35b610391611b3a565b60405161039e919061264d565b60405180910390f35b6103c160048036038101906103bc91906121bc565b611b5e565b6040516103ce9190612326565b60405180910390f35b6103f160048036038101906103ec91906121bc565b611ba3565b6040516103fe91906127af565b60405180910390f35b5f6040518061010001604052808881526020018781526020018681526020018573ffffffffffffffffffffffffffffffffffffffff1681526020018481526020018381526020015f67ffffffffffffffff81111561046857610467611e4d565b5b60405190808252806020026020018201604052801561049b57816020015b60608152602001906001900390816104865790505b508152602001600115158152509050600481908060018154018082558091505060019003905f5260205f2090600802015f909190919091505f820151815f0190816104e691906129cc565b5060208201518160010190816104fc91906129cc565b50604082015181600201908161051291906129cc565b506060820151816003015f6101000a81548173ffffffffffffffffffffffffffffffffffffffff021916908373ffffffffffffffffffffffffffffffffffffffff160217905550608082015181600401908161056e91906129cc565b5060a082015181600501908161058491906129cc565b5060c08201518160060190805190602001906105a1929190611d52565b5060e0820151816007015f6101000a81548160ff021916908315150217905550505050505050505050565b6008818051602081018201805184825260208301602085012081835280955050505050505f91509050805f018054610603906127fc565b80601f016020809104026020016040519081016040528092919081815260200182805461062f906127fc565b801561067a5780601f106106515761010080835404028352916020019161067a565b820191905f5260205f20905b81548152906001019060200180831161065d57829003601f168201915b50505050509080600101805461068f906127fc565b80601f01602080910402602001604051908101604052809291908181526020018280546106bb906127fc565b80156107065780601f106106dd57610100808354040283529160200191610706565b820191905f5260205f20905b8154815290600101906020018083116106e957829003601f168201915b5050505050905082565b6009602052805f5260405f205f91509050805f015f9054906101000a900473ffffffffffffffffffffffffffffffffffffffff1690806001018054610754906127fc565b80601f0160208091040260200160405190810160405280929190818152602001828054610780906127fc565b80156107cb5780601f106107a2576101008083540402835291602001916107cb565b820191905f5260205f20905b8154815290600101906020018083116107ae57829003601f168201915b5050505050905082565b6006602052805f5260405f205f91509050805f0180546107f4906127fc565b80601f0160208091040260200160405190810160405280929190818152602001828054610820906127fc565b801561086b5780601f106108425761010080835404028352916020019161086b565b820191905f5260205f20905b81548152906001019060200180831161084e57829003601f168201915b505050505090806001015f9054906101000a900473ffffffffffffffffffffffffffffffffffffffff16908060020180546108a5906127fc565b80601f01602080910402602001604051908101604052809291908181526020018280546108d1906127fc565b801561091c5780601f106108f35761010080835404028352916020019161091c565b820191905f5260205f20905b8154815290600101906020018083116108ff57829003601f168201915b505050505090806003018054610931906127fc565b80601f016020809104026020016040519081016040528092919081815260200182805461095d906127fc565b80156109a85780601f1061097f576101008083540402835291602001916109a8565b820191905f5260205f20905b81548152906001019060200180831161098b57829003601f168201915b5050505050905084565b5f600a5f6101000a81548173ffffffffffffffffffffffffffffffffffffffff021916908373ffffffffffffffffffffffffffffffffffffffff160217905550565b6007602052805f5260405f205f91509050805f018054610a13906127fc565b80601f0160208091040260200160405190810160405280929190818152602001828054610a3f906127fc565b8015610a8a5780601f10610a6157610100808354040283529160200191610a8a565b820191905f5260205f20905b815481529060010190602001808311610a6d57829003601f168201915b505050505090806001018054610a9f906127fc565b80601f0160208091040260200160405190810160405280929190818152602001828054610acb906127fc565b8015610b165780601f10610aed57610100808354040283529160200191610b16565b820191905f5260205f20905b815481529060010190602001808311610af957829003601f168201915b505050505090806002018054610b2b906127fc565b80601f0160208091040260200160405190810160405280929190818152602001828054610b57906127fc565b8015610ba25780601f10610b7957610100808354040283529160200191610ba2565b820191905f5260205f20905b815481529060010190602001808311610b8557829003601f168201915b505050505090806003015f9054906101000a900473ffffffffffffffffffffffffffffffffffffffff1690806004018054610bdc906127fc565b80601f0160208091040260200160405190810160405280929190818152602001828054610c08906127fc565b8015610c535780601f10610c2a57610100808354040283529160200191610c53565b820191905f5260205f20905b815481529060010190602001808311610c3657829003601f168201915b505050505090806005018054610c68906127fc565b80601f0160208091040260200160405190810160405280929190818152602001828054610c94906127fc565b8015610cdf5780601f10610cb657610100808354040283529160200191610cdf565b820191905f5260205f20905b815481529060010190602001808311610cc257829003601f168201915b505050505090806007015f9054906101000a900460ff16905087565b5f5f5f90505f5b600380549050811015610d95578373ffffffffffffffffffffffffffffffffffffffff1660038281548110610d3a57610d39612a9b565b5b905f5260205f2090600402015f015f9054906101000a900473ffffffffffffffffffffffffffffffffffffffff1673ffffffffffffffffffffffffffffffffffffffff1603610d8857600191505b8080600101915050610d02565b5080915050919050565b60606003805480602002602001604051908101604052809291908181526020015f905b82821015610ff6578382905f5260205f2090600402016040518060800160405290815f82015f9054906101000a900473ffffffffffffffffffffffffffffffffffffffff1673ffffffffffffffffffffffffffffffffffffffff1673ffffffffffffffffffffffffffffffffffffffff168152602001600182018054610e47906127fc565b80601f0160208091040260200160405190810160405280929190818152602001828054610e73906127fc565b8015610ebe5780601f10610e9557610100808354040283529160200191610ebe565b820191905f5260205f20905b815481529060010190602001808311610ea157829003601f168201915b50505050508152602001600282018054610ed7906127fc565b80601f0160208091040260200160405190810160405280929190818152602001828054610f03906127fc565b8015610f4e5780601f10610f2557610100808354040283529160200191610f4e565b820191905f5260205f20905b815481529060010190602001808311610f3157829003601f168201915b50505050508152602001600382018054610f67906127fc565b80601f0160208091040260200160405190810160405280929190818152602001828054610f93906127fc565b8015610fde5780601f10610fb557610100808354040283529160200191610fde565b820191905f5260205f20905b815481529060010190602001808311610fc157829003601f168201915b50505050508152505081526020019060010190610dc2565b50505050905090565b5f61100982611c73565b90505f600482815481106110205761101f612a9b565b5b905f5260205f2090600802016007015f6101000a81548160ff0219169083151502179055505050565b60018181548110611058575f80fd5b905f5260205f2090600202015f91509050805f018054611077906127fc565b80601f01602080910402602001604051908101604052809291908181526020018280546110a3906127fc565b80156110ee5780601f106110c5576101008083540402835291602001916110ee565b820191905f5260205f20905b8154815290600101906020018083116110d157829003601f168201915b505050505090806001018054611103906127fc565b80601f016020809104026020016040519081016040528092919081815260200182805461112f906127fc565b801561117a5780601f106111515761010080835404028352916020019161117a565b820191905f5260205f20905b81548152906001019060200180831161115d57829003601f168201915b5050505050905082565b5f60405180608001604052808573ffffffffffffffffffffffffffffffffffffffff168152602001848152602001838152602001868152509050600381908060018154018082558091505060019003905f5260205f2090600402015f909190919091505f820151815f015f6101000a81548173ffffffffffffffffffffffffffffffffffffffff021916908373ffffffffffffffffffffffffffffffffffffffff160217905550602082015181600101908161124091906129cc565b50604082015181600201908161125691906129cc565b50606082015181600301908161126c91906129cc565b5050505050505050565b6005602052805f5260405f205f91509050805f015f9054906101000a900473ffffffffffffffffffffffffffffffffffffffff16908060010180546112ba906127fc565b80601f01602080910402602001604051908101604052809291908181526020018280546112e6906127fc565b80156113315780601f1061130857610100808354040283529160200191611331565b820191905f5260205f20905b81548152906001019060200180831161131457829003601f168201915b505050505090806002018054611346906127fc565b80601f0160208091040260200160405190810160405280929190818152602001828054611372906127fc565b80156113bd5780601f10611394576101008083540402835291602001916113bd565b820191905f5260205f20905b8154815290600101906020018083116113a057829003601f168201915b5050505050908060030180546113d2906127fc565b80601f01602080910402602001604051908101604052809291908181526020018280546113fe906127fc565b80156114495780601f1061142057610100808354040283529160200191611449565b820191905f5260205f20905b81548152906001019060200180831161142c57829003601f168201915b5050505050905084565b600a5f9054906101000a900473ffffffffffffffffffffffffffffffffffffffff1681565b8360065f8573ffffffffffffffffffffffffffffffffffffffff1673ffffffffffffffffffffffffffffffffffffffff1681526020019081526020015f205f0190816114c491906129cc565b508260065f8573ffffffffffffffffffffffffffffffffffffffff1673ffffffffffffffffffffffffffffffffffffffff1681526020019081526020015f206001015f6101000a81548173ffffffffffffffffffffffffffffffffffffffff021916908373ffffffffffffffffffffffffffffffffffffffff1602179055508160065f8573ffffffffffffffffffffffffffffffffffffffff1673ffffffffffffffffffffffffffffffffffffffff1681526020019081526020015f20600201908161159091906129cc565b508060065f8573ffffffffffffffffffffffffffffffffffffffff1673ffffffffffffffffffffffffffffffffffffffff1681526020019081526020015f2060030190816115de91906129cc565b50600260065f8573ffffffffffffffffffffffffffffffffffffffff1673ffffffffffffffffffffffffffffffffffffffff1681526020019081526020015f20908060018154018082558091505060019003905f5260205f2090600402015f909190919091505f8201815f0190816116569190612add565b50600182015f9054906101000a900473ffffffffffffffffffffffffffffffffffffffff16816001015f6101000a81548173ffffffffffffffffffffffffffffffffffffffff021916908373ffffffffffffffffffffffffffffffffffffffff160217905550600282018160020190816116d09190612add565b50600382018160030190816116e59190612add565b50505050505050565b600281815481106116fd575f80fd5b905f5260205f2090600402015f91509050805f01805461171c906127fc565b80601f0160208091040260200160405190810160405280929190818152602001828054611748906127fc565b80156117935780601f1061176a57610100808354040283529160200191611793565b820191905f5260205f20905b81548152906001019060200180831161177657829003601f168201915b505050505090806001015f9054906101000a900473ffffffffffffffffffffffffffffffffffffffff16908060020180546117cd906127fc565b80601f01602080910402602001604051908101604052809291908181526020018280546117f9906127fc565b80156118445780601f1061181b57610100808354040283529160200191611844565b820191905f5260205f20905b81548152906001019060200180831161182757829003601f168201915b505050505090806003018054611859906127fc565b80601f0160208091040260200160405190810160405280929190818152602001828054611885906127fc565b80156118d05780601f106118a7576101008083540402835291602001916118d0565b820191905f5260205f20905b8154815290600101906020018083116118b357829003601f168201915b5050505050905084565b60606002805480602002602001604051908101604052809291908181526020015f905b82821015611b31578382905f5260205f2090600402016040518060800160405290815f8201805461192d906127fc565b80601f0160208091040260200160405190810160405280929190818152602001828054611959906127fc565b80156119a45780601f1061197b576101008083540402835291602001916119a4565b820191905f5260205f20905b81548152906001019060200180831161198757829003601f168201915b50505050508152602001600182015f9054906101000a900473ffffffffffffffffffffffffffffffffffffffff1673ffffffffffffffffffffffffffffffffffffffff1673ffffffffffffffffffffffffffffffffffffffff168152602001600282018054611a12906127fc565b80601f0160208091040260200160405190810160405280929190818152602001828054611a3e906127fc565b8015611a895780601f10611a6057610100808354040283529160200191611a89565b820191905f5260205f20905b815481529060010190602001808311611a6c57829003601f168201915b50505050508152602001600382018054611aa2906127fc565b80601f0160208091040260200160405190810160405280929190818152602001828054611ace906127fc565b8015611b195780601f10611af057610100808354040283529160200191611b19565b820191905f5260205f20905b815481529060010190602001808311611afc57829003601f168201915b505050505081525050815260200190600101906118fd565b50505050905090565b5f5f9054906101000a900473ffffffffffffffffffffffffffffffffffffffff1681565b5f5f611b6983611c73565b905060048181548110611b7f57611b7e612a9b565b5b905f5260205f2090600802016007015f9054906101000a900460ff16915050919050565b606060095f8373ffffffffffffffffffffffffffffffffffffffff1673ffffffffffffffffffffffffffffffffffffffff1681526020019081526020015f206001018054611bf0906127fc565b80601f0160208091040260200160405190810160405280929190818152602001828054611c1c906127fc565b8015611c675780601f10611c3e57610100808354040283529160200191611c67565b820191905f5260205f20905b815481529060010190602001808311611c4a57829003601f168201915b50505050509050919050565b5f5f5f90505b600480549050811015611d11578273ffffffffffffffffffffffffffffffffffffffff1660048281548110611cb157611cb0612a9b565b5b905f5260205f2090600802016003015f9054906101000a900473ffffffffffffffffffffffffffffffffffffffff1673ffffffffffffffffffffffffffffffffffffffff1603611d045780915050611d4d565b8080600101915050611c79565b506040517f08c379a0000000000000000000000000000000000000000000000000000000008152600401611d4490612c0c565b60405180910390fd5b919050565b828054828255905f5260205f20908101928215611d98579160200282015b82811115611d97578251829081611d8791906129cc565b5091602001919060010190611d70565b5b509050611da59190611da9565b5090565b5b80821115611dc8575f8181611dbf9190611dcc565b50600101611daa565b5090565b508054611dd8906127fc565b5f825580601f10611de95750611e06565b601f0160209004905f5260205f2090810190611e059190611e09565b5b50565b5b80821115611e20575f815f905550600101611e0a565b5090565b5f604051905090565b5f5ffd5b5f5ffd5b5f5ffd5b5f5ffd5b5f601f19601f8301169050919050565b7f4e487b71000000000000000000000000000000000000000000000000000000005f52604160045260245ffd5b611e8382611e3d565b810181811067ffffffffffffffff82111715611ea257611ea1611e4d565b5b80604052505050565b5f611eb4611e24565b9050611ec08282611e7a565b919050565b5f67ffffffffffffffff821115611edf57611ede611e4d565b5b611ee882611e3d565b9050602081019050919050565b828183375f83830152505050565b5f611f15611f1084611ec5565b611eab565b905082815260208101848484011115611f3157611f30611e39565b5b611f3c848285611ef5565b509392505050565b5f82601f830112611f5857611f57611e35565b5b8135611f68848260208601611f03565b91505092915050565b5f73ffffffffffffffffffffffffffffffffffffffff82169050919050565b5f611f9a82611f71565b9050919050565b611faa81611f90565b8114611fb4575f5ffd5b50565b5f81359050611fc581611fa1565b92915050565b5f5f5f5f5f5f60c08789031215611fe557611fe4611e2d565b5b5f87013567ffffffffffffffff81111561200257612001611e31565b5b61200e89828a01611f44565b965050602087013567ffffffffffffffff81111561202f5761202e611e31565b5b61203b89828a01611f44565b955050604087013567ffffffffffffffff81111561205c5761205b611e31565b5b61206889828a01611f44565b945050606061207989828a01611fb7565b935050608087013567ffffffffffffffff81111561209a57612099611e31565b5b6120a689828a01611f44565b92505060a087013567ffffffffffffffff8111156120c7576120c6611e31565b5b6120d389828a01611f44565b9150509295509295509295565b5f602082840312156120f5576120f4611e2d565b5b5f82013567ffffffffffffffff81111561211257612111611e31565b5b61211e84828501611f44565b91505092915050565b5f81519050919050565b5f82825260208201905092915050565b8281835e5f83830152505050565b5f61215982612127565b6121638185612131565b9350612173818560208601612141565b61217c81611e3d565b840191505092915050565b5f6040820190508181035f83015261219f818561214f565b905081810360208301526121b3818461214f565b90509392505050565b5f602082840312156121d1576121d0611e2d565b5b5f6121de84828501611fb7565b91505092915050565b6121f081611f90565b82525050565b5f6040820190506122095f8301856121e7565b818103602083015261221b818461214f565b90509392505050565b5f6080820190508181035f83015261223c818761214f565b905061224b60208301866121e7565b818103604083015261225d818561214f565b90508181036060830152612271818461214f565b905095945050505050565b5f8115159050919050565b6122908161227c565b82525050565b5f60e0820190508181035f8301526122ae818a61214f565b905081810360208301526122c2818961214f565b905081810360408301526122d6818861214f565b90506122e560608301876121e7565b81810360808301526122f7818661214f565b905081810360a083015261230b818561214f565b905061231a60c0830184612287565b98975050505050505050565b5f6020820190506123395f830184612287565b92915050565b5f81519050919050565b5f82825260208201905092915050565b5f819050602082019050919050565b61237181611f90565b82525050565b5f82825260208201905092915050565b5f61239182612127565b61239b8185612377565b93506123ab818560208601612141565b6123b481611e3d565b840191505092915050565b5f608083015f8301516123d45f860182612368565b50602083015184820360208601526123ec8282612387565b915050604083015184820360408601526124068282612387565b915050606083015184820360608601526124208282612387565b9150508091505092915050565b5f61243883836123bf565b905092915050565b5f602082019050919050565b5f6124568261233f565b6124608185612349565b93508360208202850161247285612359565b805f5b858110156124ad578484038952815161248e858261242d565b945061249983612440565b925060208a01995050600181019050612475565b50829750879550505050505092915050565b5f6020820190508181035f8301526124d7818461244c565b905092915050565b5f819050919050565b6124f1816124df565b81146124fb575f5ffd5b50565b5f8135905061250c816124e8565b92915050565b5f6020828403121561252757612526611e2d565b5b5f612534848285016124fe565b91505092915050565b5f5f5f5f6080858703121561255557612554611e2d565b5b5f85013567ffffffffffffffff81111561257257612571611e31565b5b61257e87828801611f44565b945050602061258f87828801611fb7565b935050604085013567ffffffffffffffff8111156125b0576125af611e31565b5b6125bc87828801611f44565b925050606085013567ffffffffffffffff8111156125dd576125dc611e31565b5b6125e987828801611f44565b91505092959194509250565b5f6080820190506126085f8301876121e7565b818103602083015261261a818661214f565b9050818103604083015261262e818561214f565b90508181036060830152612642818461214f565b905095945050505050565b5f6020820190506126605f8301846121e7565b92915050565b5f81519050919050565b5f82825260208201905092915050565b5f819050602082019050919050565b5f608083015f8301518482035f8601526126a98282612387565b91505060208301516126be6020860182612368565b50604083015184820360408601526126d68282612387565b915050606083015184820360608601526126f08282612387565b9150508091505092915050565b5f612708838361268f565b905092915050565b5f602082019050919050565b5f61272682612666565b6127308185612670565b93508360208202850161274285612680565b805f5b8581101561277d578484038952815161275e85826126fd565b945061276983612710565b925060208a01995050600181019050612745565b50829750879550505050505092915050565b5f6020820190508181035f8301526127a7818461271c565b905092915050565b5f6020820190508181035f8301526127c7818461214f565b905092915050565b7f4e487b71000000000000000000000000000000000000000000000000000000005f52602260045260245ffd5b5f600282049050600182168061281357607f821691505b602082108103612826576128256127cf565b5b50919050565b5f819050815f5260205f209050919050565b5f6020601f8301049050919050565b5f82821b905092915050565b5f600883026128887fffffffffffffffffffffffffffffffffffffffffffffffffffffffffffffffff8261284d565b612892868361284d565b95508019841693508086168417925050509392505050565b5f819050919050565b5f6128cd6128c86128c3846124df565b6128aa565b6124df565b9050919050565b5f819050919050565b6128e6836128b3565b6128fa6128f2826128d4565b848454612859565b825550505050565b5f5f905090565b612911612902565b61291c8184846128dd565b505050565b5b8181101561293f576129345f82612909565b600181019050612922565b5050565b601f821115612984576129558161282c565b61295e8461283e565b8101602085101561296d578190505b6129816129798561283e565b830182612921565b50505b505050565b5f82821c905092915050565b5f6129a45f1984600802612989565b1980831691505092915050565b5f6129bc8383612995565b9150826002028217905092915050565b6129d582612127565b67ffffffffffffffff8111156129ee576129ed611e4d565b5b6129f882546127fc565b612a03828285612943565b5f60209050601f831160018114612a34575f8415612a22578287015190505b612a2c85826129b1565b865550612a93565b601f198416612a428661282c565b5f5b82811015612a6957848901518255600182019150602085019450602081019050612a44565b86831015612a865784890151612a82601f891682612995565b8355505b6001600288020188555050505b505050505050565b7f4e487b71000000000000000000000000000000000000000000000000000000005f52603260045260245ffd5b5f81549050612ad6816127fc565b9050919050565b818103612aeb575050612bc0565b612af482612ac8565b67ffffffffffffffff811115612b0d57612b0c611e4d565b5b612b1782546127fc565b612b22828285612943565b5f601f831160018114612b4f575f8415612b3d578287015490505b612b4785826129b1565b865550612bb9565b601f198416612b5d8761282c565b9650612b688661282c565b5f5b82811015612b8f57848901548255600182019150600185019450602081019050612b6a565b86831015612bac5784890154612ba8601f891682612995565b8355505b6001600288020188555050505b5050505050505b565b7f55736572206e6f7420666f756e640000000000000000000000000000000000005f82015250565b5f612bf6600e83612131565b9150612c0182612bc2565b602082019050919050565b5f6020820190508181035f830152612c2381612bea565b905091905056fea2646970667358221220fa8f3790fc67e4a0efcecc1380abf18786bc3a4db5fe3fd87e6837a2bffba3ca64736f6c634300081d0033","linkReferences":{}},"methodIdentifiers":{"Login(address)":"eecc1c95","addCitizen(string,string,string,address,string,string)":"077aef55","addOperator(string,address,string,string)":"c1005067","addOrganiztion(string,address,string,string)":"8400c50d","announceDeath(address)":"5c619a26","arrayofIdentities(uint256)":"709fab40","citizensMapping(address)":"255f2e80","getAllInstitution()":"36a786ec","getAllOperators()":"d911c632","i_owner()":"dba6335f","identityMapping(string)":"0e3ebf4f","isAvailable(address)":"2896f60b","isCitizenAlive(address)":"ed7f6ad2","loggedInUser()":"b958388d","logout()":"1f3c99c3","operators(address)":"13e7c9d8","operatorsArray(uint256)":"c9b47bd4","organizationAvailable(address)":"a2e12126","userMapping(address)":"118b9535"},"id":21}