{
  "abi": [
    {
      "type": "constructor",
      "inputs": [],
      "stateMutability": "nonpayable"
    },
    {
      "type": "function",
      "name": "Login",
      "inputs": [
        {
          "name": "_userAddress",
          "type": "address",
          "internalType": "address"
        }
      ],
      "outputs": [
        {
          "name": "",
          "type": "string",
          "internalType": "string"
        }
      ],
      "stateMutability": "view"
    },
    {
      "type": "function",
      "name": "_contractOwner",
      "inputs": [],
      "outputs": [
        {
          "name": "",
          "type": "address",
          "internalType": "address"
        }
      ],
      "stateMutability": "view"
    },
    {
      "type": "function",
      "name": "addCitizen",
      "inputs": [
        {
          "name": "_firstName",
          "type": "string",
          "internalType": "string"
        },
        {
          "name": "_middleName",
          "type": "string",
          "internalType": "string"
        },
        {
          "name": "_lastName",
          "type": "string",
          "internalType": "string"
        },
        {
          "name": "_citizenAddress",
          "type": "address",
          "internalType": "address"
        },
        {
          "name": "_gender",
          "type": "string",
          "internalType": "string"
        },
        {
          "name": "_dateofBirth",
          "type": "string",
          "internalType": "string"
        },
        {
          "name": "_citizenId",
          "type": "string",
          "internalType": "string"
        }
      ],
      "outputs": [],
      "stateMutability": "nonpayable"
    },
    {
      "type": "function",
      "name": "addInstitution",
      "inputs": [
        {
          "name": "_instutionName",
          "type": "string",
          "internalType": "string"
        },
        {
          "name": "_orgAddress",
          "type": "address",
          "internalType": "address"
        },
        {
          "name": "_orgType",
          "type": "string",
          "internalType": "string"
        },
        {
          "name": "_abbreviation",
          "type": "string",
          "internalType": "string"
        }
      ],
      "outputs": [],
      "stateMutability": "nonpayable"
    },
    {
      "type": "function",
      "name": "addOperator",
      "inputs": [
        {
          "name": "_firstName",
          "type": "string",
          "internalType": "string"
        },
        {
          "name": "_lastName",
          "type": "string",
          "internalType": "string"
        },
        {
          "name": "_operatorAddress",
          "type": "address",
          "internalType": "address"
        },
        {
          "name": "_position",
          "type": "string",
          "internalType": "string"
        },
        {
          "name": "_organisation",
          "type": "string",
          "internalType": "string"
        }
      ],
      "outputs": [],
      "stateMutability": "nonpayable"
    },
    {
      "type": "function",
      "name": "announceDeath",
      "inputs": [
        {
          "name": "_citizenId",
          "type": "string",
          "internalType": "string"
        }
      ],
      "outputs": [],
      "stateMutability": "nonpayable"
    },
    {
      "type": "function",
      "name": "citizenArray",
      "inputs": [
        {
          "name": "",
          "type": "uint256",
          "internalType": "uint256"
        }
      ],
      "outputs": [
        {
          "name": "citizenStatus",
          "type": "bool",
          "internalType": "bool"
        },
        {
          "name": "firstName",
          "type": "string",
          "internalType": "string"
        },
        {
          "name": "middleName",
          "type": "string",
          "internalType": "string"
        },
        {
          "name": "lastName",
          "type": "string",
          "internalType": "string"
        },
        {
          "name": "citizenId",
          "type": "string",
          "internalType": "string"
        },
        {
          "name": "gender",
          "type": "string",
          "internalType": "string"
        },
        {
          "name": "dateofBirth",
          "type": "string",
          "internalType": "string"
        }
      ],
      "stateMutability": "view"
    },
    {
      "type": "function",
      "name": "citizenMapping",
      "inputs": [
        {
          "name": "",
          "type": "address",
          "internalType": "address"
        }
      ],
      "outputs": [
        {
          "name": "citizenStatus",
          "type": "bool",
          "internalType": "bool"
        },
        {
          "name": "firstName",
          "type": "string",
          "internalType": "string"
        },
        {
          "name": "middleName",
          "type": "string",
          "internalType": "string"
        },
        {
          "name": "lastName",
          "type": "string",
          "internalType": "string"
        },
        {
          "name": "citizenId",
          "type": "string",
          "internalType": "string"
        },
        {
          "name": "gender",
          "type": "string",
          "internalType": "string"
        },
        {
          "name": "dateofBirth",
          "type": "string",
          "internalType": "string"
        }
      ],
      "stateMutability": "view"
    },
    {
      "type": "function",
      "name": "deathCertificateArray",
      "inputs": [
        {
          "name": "",
          "type": "uint256",
          "internalType": "uint256"
        }
      ],
      "outputs": [
        {
          "name": "causeOfDeath",
          "type": "string",
          "internalType": "string"
        },
        {
          "name": "dOB",
          "type": "string",
          "internalType": "string"
        },
        {
          "name": "registerBY",
          "type": "address",
          "internalType": "address"
        },
        {
          "name": "citizenID",
          "type": "string",
          "internalType": "string"
        }
      ],
      "stateMutability": "view"
    },
    {
      "type": "function",
      "name": "deathcertificateMapping",
      "inputs": [
        {
          "name": "",
          "type": "string",
          "internalType": "string"
        }
      ],
      "outputs": [
        {
          "name": "causeOfDeath",
          "type": "string",
          "internalType": "string"
        },
        {
          "name": "dOB",
          "type": "string",
          "internalType": "string"
        },
        {
          "name": "registerBY",
          "type": "address",
          "internalType": "address"
        },
        {
          "name": "citizenID",
          "type": "string",
          "internalType": "string"
        }
      ],
      "stateMutability": "view"
    },
    {
      "type": "function",
      "name": "getAllCitizens",
      "inputs": [],
      "outputs": [
        {
          "name": "",
          "type": "tuple[]",
          "internalType": "struct IdentityGateway.Citizen[]",
          "components": [
            {
              "name": "citizenStatus",
              "type": "bool",
              "internalType": "bool"
            },
            {
              "name": "firstName",
              "type": "string",
              "internalType": "string"
            },
            {
              "name": "middleName",
              "type": "string",
              "internalType": "string"
            },
            {
              "name": "lastName",
              "type": "string",
              "internalType": "string"
            },
            {
              "name": "citizenId",
              "type": "string",
              "internalType": "string"
            },
            {
              "name": "gender",
              "type": "string",
              "internalType": "string"
            },
            {
              "name": "dateofBirth",
              "type": "string",
              "internalType": "string"
            }
          ]
        }
      ],
      "stateMutability": "view"
    },
    {
      "type": "function",
      "name": "getAllInstitution",
      "inputs": [],
      "outputs": [
        {
          "name": "",
          "type": "tuple[]",
          "internalType": "struct IdentityGateway.Institution[]",
          "components": [
            {
              "name": "instutionName",
              "type": "string",
              "internalType": "string"
            },
            {
              "name": "abbreviation",
              "type": "string",
              "internalType": "string"
            },
            {
              "name": "orgType",
              "type": "string",
              "internalType": "string"
            },
            {
              "name": "orgAddress",
              "type": "address",
              "internalType": "address"
            }
          ]
        }
      ],
      "stateMutability": "view"
    },
    {
      "type": "function",
      "name": "getAllOperators",
      "inputs": [],
      "outputs": [
        {
          "name": "",
          "type": "tuple[]",
          "internalType": "struct IdentityGateway.Operator[]",
          "components": [
            {
              "name": "operatorAddress",
              "type": "address",
              "internalType": "address"
            },
            {
              "name": "firstName",
              "type": "string",
              "internalType": "string"
            },
            {
              "name": "lastName",
              "type": "string",
              "internalType": "string"
            },
            {
              "name": "position",
              "type": "string",
              "internalType": "string"
            },
            {
              "name": "organisation",
              "type": "string",
              "internalType": "string"
            }
          ]
        }
      ],
      "stateMutability": "view"
    },
    {
      "type": "function",
      "name": "getAllTransactions",
      "inputs": [],
      "outputs": [
        {
          "name": "",
          "type": "tuple[]",
          "internalType": "struct IdentityGateway.Transaction[]",
          "components": [
            {
              "name": "action",
              "type": "string",
              "internalType": "string"
            },
            {
              "name": "performedBy",
              "type": "address",
              "internalType": "address"
            },
            {
              "name": "timestamp",
              "type": "uint256",
              "internalType": "uint256"
            },
            {
              "name": "status",
              "type": "bool",
              "internalType": "bool"
            }
          ]
        }
      ],
      "stateMutability": "view"
    },
    {
      "type": "function",
      "name": "identityArray",
      "inputs": [
        {
          "name": "",
          "type": "uint256",
          "internalType": "uint256"
        }
      ],
      "outputs": [
        {
          "name": "idType",
          "type": "string",
          "internalType": "string"
        },
        {
          "name": "documentCid",
          "type": "string",
          "internalType": "string"
        }
      ],
      "stateMutability": "view"
    },
    {
      "type": "function",
      "name": "institutionArray",
      "inputs": [
        {
          "name": "",
          "type": "uint256",
          "internalType": "uint256"
        }
      ],
      "outputs": [
        {
          "name": "instutionName",
          "type": "string",
          "internalType": "string"
        },
        {
          "name": "abbreviation",
          "type": "string",
          "internalType": "string"
        },
        {
          "name": "orgType",
          "type": "string",
          "internalType": "string"
        },
        {
          "name": "orgAddress",
          "type": "address",
          "internalType": "address"
        }
      ],
      "stateMutability": "view"
    },
    {
      "type": "function",
      "name": "institutionMapping",
      "inputs": [
        {
          "name": "",
          "type": "string",
          "internalType": "string"
        }
      ],
      "outputs": [
        {
          "name": "instutionName",
          "type": "string",
          "internalType": "string"
        },
        {
          "name": "abbreviation",
          "type": "string",
          "internalType": "string"
        },
        {
          "name": "orgType",
          "type": "string",
          "internalType": "string"
        },
        {
          "name": "orgAddress",
          "type": "address",
          "internalType": "address"
        }
      ],
      "stateMutability": "view"
    },
    {
      "type": "function",
      "name": "isCitizenAlive",
      "inputs": [
        {
          "name": "_citizenId",
          "type": "string",
          "internalType": "string"
        }
      ],
      "outputs": [
        {
          "name": "",
          "type": "bool",
          "internalType": "bool"
        }
      ],
      "stateMutability": "view"
    },
    {
      "type": "function",
      "name": "issueDeathCertificate",
      "inputs": [
        {
          "name": "_causeOfDeath",
          "type": "string",
          "internalType": "string"
        },
        {
          "name": "_dOB",
          "type": "string",
          "internalType": "string"
        },
        {
          "name": "_registerBY",
          "type": "address",
          "internalType": "address"
        },
        {
          "name": "_citizenID",
          "type": "string",
          "internalType": "string"
        }
      ],
      "outputs": [],
      "stateMutability": "nonpayable"
    },
    {
      "type": "function",
      "name": "operatorArray",
      "inputs": [
        {
          "name": "",
          "type": "uint256",
          "internalType": "uint256"
        }
      ],
      "outputs": [
        {
          "name": "operatorAddress",
          "type": "address",
          "internalType": "address"
        },
        {
          "name": "firstName",
          "type": "string",
          "internalType": "string"
        },
        {
          "name": "lastName",
          "type": "string",
          "internalType": "string"
        },
        {
          "name": "position",
          "type": "string",
          "internalType": "string"
        },
        {
          "name": "organisation",
          "type": "string",
          "internalType": "string"
        }
      ],
      "stateMutability": "view"
    },
    {
      "type": "function",
      "name": "operatorMapping",
      "inputs": [
        {
          "name": "",
          "type": "address",
          "internalType": "address"
        }
      ],
      "outputs": [
        {
          "name": "operatorAddress",
          "type": "address",
          "internalType": "address"
        },
        {
          "name": "firstName",
          "type": "string",
          "internalType": "string"
        },
        {
          "name": "lastName",
          "type": "string",
          "internalType": "string"
        },
        {
          "name": "position",
          "type": "string",
          "internalType": "string"
        },
        {
          "name": "organisation",
          "type": "string",
          "internalType": "string"
        }
      ],
      "stateMutability": "view"
    },
    {
      "type": "function",
      "name": "transactionsArray",
      "inputs": [
        {
          "name": "",
          "type": "uint256",
          "internalType": "uint256"
        }
      ],
      "outputs": [
        {
          "name": "action",
          "type": "string",
          "internalType": "string"
        },
        {
          "name": "performedBy",
          "type": "address",
          "internalType": "address"
        },
        {
          "name": "timestamp",
          "type": "uint256",
          "internalType": "uint256"
        },
        {
          "name": "status",
          "type": "bool",
          "internalType": "bool"
        }
      ],
      "stateMutability": "view"
    },
    {
      "type": "function",
      "name": "userArray",
      "inputs": [
        {
          "name": "",
          "type": "uint256",
          "internalType": "uint256"
        }
      ],
      "outputs": [
        {
          "name": "userAddress",
          "type": "address",
          "internalType": "address"
        },
        {
          "name": "userType",
          "type": "string",
          "internalType": "string"
        }
      ],
      "stateMutability": "view"
    },
    {
      "type": "function",
      "name": "userMapping",
      "inputs": [
        {
          "name": "",
          "type": "address",
          "internalType": "address"
        }
      ],
      "outputs": [
        {
          "name": "userAddress",
          "type": "address",
          "internalType": "address"
        },
        {
          "name": "userType",
          "type": "string",
          "internalType": "string"
        }
      ],
      "stateMutability": "view"
    }
  ],
  "bytecode": {
    "object": "0x6080604052348015600f57600080fd5b50600080546001600160a01b031916331790556130de806100316000396000f3fe608060405234801561001057600080fd5b50600436106101585760003560e01c80638c694d4d116100c3578063d911c6321161007c578063d911c6321461034c578063dd1209dd14610361578063e210ecee14610374578063e5ec9e1314610397578063eecc1c95146103aa578063f21bccfd146103ca57600080fd5b80638c694d4d146102a95780638d9b6a39146102cd578063938f54ac146102f0578063cd01b10314610303578063d7d6d94614610326578063d90d7c061461033957600080fd5b806336a786ec1161011557806336a786ec1461022557806341209af11461023a5780634b2d18ba1461024d5780636c0e1ccd1461026e5780637179919f14610283578063859bc7221461029657600080fd5b80630a4f36791461015d578063118b9535146101895780631af44596146101aa57806327506f53146101d05780632afe436a146101e55780632bb3b114146101fa575b600080fd5b61017061016b366004612580565b6103dd565b604051610180949392919061260c565b60405180910390f35b61019c61019736600461267b565b6105b7565b60405161018092919061269d565b6101bd6101b83660046126c1565b610666565b60405161018097969594939291906126da565b6101d86109e8565b6040516101809190612765565b6101f86101f3366004612580565b610b0b565b005b60005461020d906001600160a01b031681565b6040516001600160a01b039091168152602001610180565b61022d610b50565b60405161018091906127ff565b61019c6102483660046126c1565b610d72565b61026061025b3660046126c1565b610db1565b6040516101809291906128ad565b610276610e72565b60405161018091906128db565b6101f86102913660046129cf565b611246565b6101f86102a4366004612a71565b6113db565b6102bc6102b73660046126c1565b6115df565b604051610180959493929190612b93565b6102e06102db366004612580565b61184b565b6040516101809493929190612bfd565b6101bd6102fe36600461267b565b611a1f565b610316610311366004612580565b611a45565b6040519015158152602001610180565b6101f8610334366004612c50565b611a81565b6101f8610347366004612d1d565b611d35565b610354611eb2565b6040516101809190612da7565b6102e061036f3660046126c1565b612166565b6103876103823660046126c1565b612199565b6040516101809493929190612e70565b6102bc6103a536600461267b565b612270565b6103bd6103b836600461267b565b61229c565b6040516101809190612eaa565b6101706103d83660046126c1565b61234b565b805160208183018101805160098252928201919093012091528054819061040390612ebd565b80601f016020809104026020016040519081016040528092919081815260200182805461042f90612ebd565b801561047c5780601f106104515761010080835404028352916020019161047c565b820191906000526020600020905b81548152906001019060200180831161045f57829003601f168201915b50505050509080600101805461049190612ebd565b80601f01602080910402602001604051908101604052809291908181526020018280546104bd90612ebd565b801561050a5780601f106104df5761010080835404028352916020019161050a565b820191906000526020600020905b8154815290600101906020018083116104ed57829003601f168201915b505050600284015460038501805494956001600160a01b0390921694919350915061053490612ebd565b80601f016020809104026020016040519081016040528092919081815260200182805461056090612ebd565b80156105ad5780601f10610582576101008083540402835291602001916105ad565b820191906000526020600020905b81548152906001019060200180831161059057829003601f168201915b5050505050905084565b600b60205260009081526040902080546001820180546001600160a01b0390921692916105e390612ebd565b80601f016020809104026020016040519081016040528092919081815260200182805461060f90612ebd565b801561065c5780601f106106315761010080835404028352916020019161065c565b820191906000526020600020905b81548152906001019060200180831161063f57829003601f168201915b5050505050905082565b6002818154811061067657600080fd5b60009182526020909120600790910201805460018201805460ff90921693509061069f90612ebd565b80601f01602080910402602001604051908101604052809291908181526020018280546106cb90612ebd565b80156107185780601f106106ed57610100808354040283529160200191610718565b820191906000526020600020905b8154815290600101906020018083116106fb57829003601f168201915b50505050509080600201805461072d90612ebd565b80601f016020809104026020016040519081016040528092919081815260200182805461075990612ebd565b80156107a65780601f1061077b576101008083540402835291602001916107a6565b820191906000526020600020905b81548152906001019060200180831161078957829003601f168201915b5050505050908060030180546107bb90612ebd565b80601f01602080910402602001604051908101604052809291908181526020018280546107e790612ebd565b80156108345780601f1061080957610100808354040283529160200191610834565b820191906000526020600020905b81548152906001019060200180831161081757829003601f168201915b50505050509080600401805461084990612ebd565b80601f016020809104026020016040519081016040528092919081815260200182805461087590612ebd565b80156108c25780601f10610897576101008083540402835291602001916108c2565b820191906000526020600020905b8154815290600101906020018083116108a557829003601f168201915b5050505050908060050180546108d790612ebd565b80601f016020809104026020016040519081016040528092919081815260200182805461090390612ebd565b80156109505780601f1061092557610100808354040283529160200191610950565b820191906000526020600020905b81548152906001019060200180831161093357829003601f168201915b50505050509080600601805461096590612ebd565b80601f016020809104026020016040519081016040528092919081815260200182805461099190612ebd565b80156109de5780601f106109b3576101008083540402835291602001916109de565b820191906000526020600020905b8154815290600101906020018083116109c157829003601f168201915b5050505050905087565b60606007805480602002602001604051908101604052809291908181526020016000905b82821015610b025783829060005260206000209060040201604051806080016040529081600082018054610a3f90612ebd565b80601f0160208091040260200160405190810160405280929190818152602001828054610a6b90612ebd565b8015610ab85780601f10610a8d57610100808354040283529160200191610ab8565b820191906000526020600020905b815481529060010190602001808311610a9b57829003601f168201915b50505091835250506001828101546001600160a01b03166020808401919091526002840154604084015260039093015460ff16151560609092019190915291835292019101610a0c565b50505050905090565b6000610b168261237e565b9050600060028281548110610b2d57610b2d612ef7565b60009182526020909120600790910201805460ff19169115159190911790555050565b60606003805480602002602001604051908101604052809291908181526020016000905b82821015610b025783829060005260206000209060040201604051806080016040529081600082018054610ba790612ebd565b80601f0160208091040260200160405190810160405280929190818152602001828054610bd390612ebd565b8015610c205780601f10610bf557610100808354040283529160200191610c20565b820191906000526020600020905b815481529060010190602001808311610c0357829003601f168201915b50505050508152602001600182018054610c3990612ebd565b80601f0160208091040260200160405190810160405280929190818152602001828054610c6590612ebd565b8015610cb25780601f10610c8757610100808354040283529160200191610cb2565b820191906000526020600020905b815481529060010190602001808311610c9557829003601f168201915b50505050508152602001600282018054610ccb90612ebd565b80601f0160208091040260200160405190810160405280929190818152602001828054610cf790612ebd565b8015610d445780601f10610d1957610100808354040283529160200191610d44565b820191906000526020600020905b815481529060010190602001808311610d2757829003601f168201915b5050509183525050600391909101546001600160a01b03166020918201529082526001929092019101610b74565b60068181548110610d8257600080fd5b6000918252602090912060029091020180546001820180546001600160a01b039092169350906105e390612ebd565b60058181548110610dc157600080fd5b9060005260206000209060020201600091509050806000018054610de490612ebd565b80601f0160208091040260200160405190810160405280929190818152602001828054610e1090612ebd565b8015610e5d5780601f10610e3257610100808354040283529160200191610e5d565b820191906000526020600020905b815481529060010190602001808311610e4057829003601f168201915b5050505050908060010180546105e390612ebd565b60606002805480602002602001604051908101604052809291908181526020016000905b82821015610b025760008481526020908190206040805160e0810190915260078502909101805460ff16151582526001810180549293919291840191610edb90612ebd565b80601f0160208091040260200160405190810160405280929190818152602001828054610f0790612ebd565b8015610f545780601f10610f2957610100808354040283529160200191610f54565b820191906000526020600020905b815481529060010190602001808311610f3757829003601f168201915b50505050508152602001600282018054610f6d90612ebd565b80601f0160208091040260200160405190810160405280929190818152602001828054610f9990612ebd565b8015610fe65780601f10610fbb57610100808354040283529160200191610fe6565b820191906000526020600020905b815481529060010190602001808311610fc957829003601f168201915b50505050508152602001600382018054610fff90612ebd565b80601f016020809104026020016040519081016040528092919081815260200182805461102b90612ebd565b80156110785780601f1061104d57610100808354040283529160200191611078565b820191906000526020600020905b81548152906001019060200180831161105b57829003601f168201915b5050505050815260200160048201805461109190612ebd565b80601f01602080910402602001604051908101604052809291908181526020018280546110bd90612ebd565b801561110a5780601f106110df5761010080835404028352916020019161110a565b820191906000526020600020905b8154815290600101906020018083116110ed57829003601f168201915b5050505050815260200160058201805461112390612ebd565b80601f016020809104026020016040519081016040528092919081815260200182805461114f90612ebd565b801561119c5780601f106111715761010080835404028352916020019161119c565b820191906000526020600020905b81548152906001019060200180831161117f57829003601f168201915b505050505081526020016006820180546111b590612ebd565b80601f01602080910402602001604051908101604052809291908181526020018280546111e190612ebd565b801561122e5780601f106112035761010080835404028352916020019161122e565b820191906000526020600020905b81548152906001019060200180831161121157829003601f168201915b50505050508152505081526020019060010190610e96565b60408051608081018252858152602081018590526001600160a01b0384169181019190915260608101829052600180548082018255600091909152815182916004027fb10e2d527612073b26eecdfd717e6a320cf44b4afac2b0732d9fcbe2b7fa0cf6019081906112b79082612f59565b50602082015160018201906112cc9082612f59565b5060408201516002820180546001600160a01b0319166001600160a01b03909216919091179055606082015160038201906113079082612f59565b5050508060098360405161131b9190613017565b908152604051908190036020019020815181906113389082612f59565b506020820151600182019061134d9082612f59565b5060408201516002820180546001600160a01b0319166001600160a01b03909216919091179055606082015160038201906113889082612f59565b5090505061139582610b0b565b6113d46040518060400160405280601781526020017f49737375656420446561746843657274696669636174650000000000000000008152503361241e565b5050505050565b6040805160e081018252600180825260208083018b81528385018b9052606084018a90526080840186905260a0840188905260c084018790526001600160a01b038916600090815260089092529390208251815460ff1916901515178155925191928392909182019061144e9082612f59565b50604082015160028201906114639082612f59565b50606082015160038201906114789082612f59565b506080820151600482019061148d9082612f59565b5060a082015160058201906114a29082612f59565b5060c082015160068201906114b79082612f59565b50506002805460018101825560009190915282517f405787fa12a823e0f2b7631cc41b3ba8828b3321ca811111fa75cd3aa3bb5ace6007909202918201805460ff1916911515919091178155602084015184935090917f405787fa12a823e0f2b7631cc41b3ba8828b3321ca811111fa75cd3aa3bb5acf019061153a9082612f59565b506040820151600282019061154f9082612f59565b50606082015160038201906115649082612f59565b50608082015160048201906115799082612f59565b5060a0820151600582019061158e9082612f59565b5060c082015160068201906115a39082612f59565b5050506115d56040518060400160405280600d81526020016c20b23232b21031b4ba34bd32b760991b8152503361241e565b5050505050505050565b600481815481106115ef57600080fd5b6000918252602090912060059091020180546001820180546001600160a01b0390921693509061161e90612ebd565b80601f016020809104026020016040519081016040528092919081815260200182805461164a90612ebd565b80156116975780601f1061166c57610100808354040283529160200191611697565b820191906000526020600020905b81548152906001019060200180831161167a57829003601f168201915b5050505050908060020180546116ac90612ebd565b80601f01602080910402602001604051908101604052809291908181526020018280546116d890612ebd565b80156117255780601f106116fa57610100808354040283529160200191611725565b820191906000526020600020905b81548152906001019060200180831161170857829003601f168201915b50505050509080600301805461173a90612ebd565b80601f016020809104026020016040519081016040528092919081815260200182805461176690612ebd565b80156117b35780601f10611788576101008083540402835291602001916117b3565b820191906000526020600020905b81548152906001019060200180831161179657829003601f168201915b5050505050908060040180546117c890612ebd565b80601f01602080910402602001604051908101604052809291908181526020018280546117f490612ebd565b80156118415780601f1061181657610100808354040283529160200191611841565b820191906000526020600020905b81548152906001019060200180831161182457829003601f168201915b5050505050905085565b8051602081830181018051600a8252928201919093012091528054819061187190612ebd565b80601f016020809104026020016040519081016040528092919081815260200182805461189d90612ebd565b80156118ea5780601f106118bf576101008083540402835291602001916118ea565b820191906000526020600020905b8154815290600101906020018083116118cd57829003601f168201915b5050505050908060010180546118ff90612ebd565b80601f016020809104026020016040519081016040528092919081815260200182805461192b90612ebd565b80156119785780601f1061194d57610100808354040283529160200191611978565b820191906000526020600020905b81548152906001019060200180831161195b57829003601f168201915b50505050509080600201805461198d90612ebd565b80601f01602080910402602001604051908101604052809291908181526020018280546119b990612ebd565b8015611a065780601f106119db57610100808354040283529160200191611a06565b820191906000526020600020905b8154815290600101906020018083116119e957829003601f168201915b505050600390930154919250506001600160a01b031684565b6008602052600090815260409020805460018201805460ff909216929161069f90612ebd565b600080611a518361237e565b905060028181548110611a6657611a66612ef7565b600091825260209091206007909102015460ff169392505050565b6040805160a0810182526001600160a01b03851680825260208083018990528284018890526060830186905260808301859052835180850185528281528451808601865260088082526737b832b930ba37b960c11b8285018190528385019290925286518088018852908152808401919091526000938452600b9092529390912091929160010190611b139082612f59565b506006805460018101825560009190915281517ff652222313e28459528d920b65115c16c04f3efc82aaedc97be59f3f377c0d3f600290920291820180546001600160a01b0319166001600160a01b03909216919091178155602083015183927ff652222313e28459528d920b65115c16c04f3efc82aaedc97be59f3f377c0d400190611ba09082612f59565b5050506001600160a01b038581166000908152600c60209081526040909120845181546001600160a01b03191693169290921782558301518391906001820190611bea9082612f59565b5060408201516002820190611bff9082612f59565b5060608201516003820190611c149082612f59565b5060808201516004820190611c299082612f59565b50506004805460018101825560009190915283517f8a35acfbc15ff81a39ae7d344fd709f28e8600b4aa8c65c6b64bfe7fe36bd19b600590920291820180546001600160a01b0319166001600160a01b03909216919091178155602085015185935090917f8a35acfbc15ff81a39ae7d344fd709f28e8600b4aa8c65c6b64bfe7fe36bd19c0190611cba9082612f59565b5060408201516002820190611ccf9082612f59565b5060608201516003820190611ce49082612f59565b5060808201516004820190611cf99082612f59565b505050611d2c6040518060400160405280600e81526020016d20b23232b21027b832b930ba37b960911b8152503361241e565b50505050505050565b60408051608081018252858152602081018390529081018390526001600160a01b038416606082015260038054600181018255600091909152815182916004027fc2575a0e9e593c00f959f8c92f12db2869c3395a3b0502d05e2516446f71f85b01908190611da49082612f59565b5060208201516001820190611db99082612f59565b5060408201516002820190611dce9082612f59565b5060608201518160030160006101000a8154816001600160a01b0302191690836001600160a01b03160217905550505080600a83604051611e0f9190613017565b90815260405190819003602001902081518190611e2c9082612f59565b5060208201516001820190611e419082612f59565b5060408201516002820190611e569082612f59565b5060609190910151600390910180546001600160a01b0319166001600160a01b0390921691909117905560408051808201909152601181527020b23232b21024b739ba34ba3aba34b7b760791b60208201526113d4903361241e565b60606004805480602002602001604051908101604052809291908181526020016000905b82821015610b025760008481526020908190206040805160a081019091526005850290910180546001600160a01b031682526001810180549293919291840191611f1f90612ebd565b80601f0160208091040260200160405190810160405280929190818152602001828054611f4b90612ebd565b8015611f985780601f10611f6d57610100808354040283529160200191611f98565b820191906000526020600020905b815481529060010190602001808311611f7b57829003601f168201915b50505050508152602001600282018054611fb190612ebd565b80601f0160208091040260200160405190810160405280929190818152602001828054611fdd90612ebd565b801561202a5780601f10611fff5761010080835404028352916020019161202a565b820191906000526020600020905b81548152906001019060200180831161200d57829003601f168201915b5050505050815260200160038201805461204390612ebd565b80601f016020809104026020016040519081016040528092919081815260200182805461206f90612ebd565b80156120bc5780601f10612091576101008083540402835291602001916120bc565b820191906000526020600020905b81548152906001019060200180831161209f57829003601f168201915b505050505081526020016004820180546120d590612ebd565b80601f016020809104026020016040519081016040528092919081815260200182805461210190612ebd565b801561214e5780601f106121235761010080835404028352916020019161214e565b820191906000526020600020905b81548152906001019060200180831161213157829003601f168201915b50505050508152505081526020019060010190611ed6565b6003818154811061217657600080fd5b906000526020600020906004020160009150905080600001805461187190612ebd565b600781815481106121a957600080fd5b90600052602060002090600402016000915090508060000180546121cc90612ebd565b80601f01602080910402602001604051908101604052809291908181526020018280546121f890612ebd565b80156122455780601f1061221a57610100808354040283529160200191612245565b820191906000526020600020905b81548152906001019060200180831161222857829003601f168201915b505050506001830154600284015460039094015492936001600160a01b039091169290915060ff1684565b600c60205260009081526040902080546001820180546001600160a01b03909216929161161e90612ebd565b6001600160a01b0381166000908152600c602052604090206004018054606091906122c690612ebd565b80601f01602080910402602001604051908101604052809291908181526020018280546122f290612ebd565b801561233f5780601f106123145761010080835404028352916020019161233f565b820191906000526020600020905b81548152906001019060200180831161232257829003601f168201915b50505050509050919050565b6001818154811061235b57600080fd5b906000526020600020906004020160009150905080600001805461040390612ebd565b6000805b6002548110156123e0578280519060200120600282815481106123a7576123a7612ef7565b90600052602060002090600702016004016040516123c59190613033565b6040518091039020036123d85792915050565b600101612382565b5060405162461bcd60e51b815260206004820152600e60248201526d155cd95c881b9bdd08199bdd5b9960921b604482015260640160405180910390fd5b604080516080810182528381526001600160a01b03831660208201524291810191909152600160608201819052600780549182018155600052815182916004027fa66cc928b5edb82af9bd49922954155ab7b0942694bea4ce44661d9a8736c6880190819061248d9082612f59565b5060208201516001820180546001600160a01b0319166001600160a01b03909216919091179055604082015160028201556060909101516003909101805460ff1916911515919091179055505050565b634e487b7160e01b600052604160045260246000fd5b600082601f83011261250457600080fd5b81356001600160401b0381111561251d5761251d6124dd565b604051601f8201601f19908116603f011681016001600160401b038111828210171561254b5761254b6124dd565b60405281815283820160200185101561256357600080fd5b816020850160208301376000918101602001919091529392505050565b60006020828403121561259257600080fd5b81356001600160401b038111156125a857600080fd5b6125b4848285016124f3565b949350505050565b60005b838110156125d75781810151838201526020016125bf565b50506000910152565b600081518084526125f88160208601602086016125bc565b601f01601f19169290920160200192915050565b60808152600061261f60808301876125e0565b828103602084015261263181876125e0565b6001600160a01b03861660408501528381036060850152905061265481856125e0565b979650505050505050565b80356001600160a01b038116811461267657600080fd5b919050565b60006020828403121561268d57600080fd5b6126968261265f565b9392505050565b6001600160a01b03831681526040602082018190526000906125b4908301846125e0565b6000602082840312156126d357600080fd5b5035919050565b871515815260e0602082015260006126f560e08301896125e0565b828103604084015261270781896125e0565b9050828103606084015261271b81886125e0565b9050828103608084015261272f81876125e0565b905082810360a084015261274381866125e0565b905082810360c084015261275781856125e0565b9a9950505050505050505050565b6000602082016020835280845180835260408501915060408160051b86010192506020860160005b828110156127f357603f1987860301845281518051608087526127b360808801826125e0565b6020838101516001600160a01b031689820152604080850151908a015260609384015115159390980192909252509493840193919091019060010161278d565b50929695505050505050565b6000602082016020835280845180835260408501915060408160051b86010192506020860160005b828110156127f357603f19878603018452815180516080875261284d60808801826125e0565b90506020820151878203602089015261286682826125e0565b9150506040820151878203604089015261288082826125e0565b6060938401516001600160a01b031698909301979097525094506020938401939190910190600101612827565b6040815260006128c060408301856125e0565b82810360208401526128d281856125e0565b95945050505050565b6000602082016020835280845180835260408501915060408160051b86010192506020860160005b828110156127f357868503603f190184528151805115158652602081015160e0602088015261293560e08801826125e0565b90506040820151878203604089015261294e82826125e0565b9150506060820151878203606089015261296882826125e0565b9150506080820151878203608089015261298282826125e0565b91505060a082015187820360a089015261299c82826125e0565b91505060c0820151915086810360c08801526129b881836125e0565b965050506020938401939190910190600101612903565b600080600080608085870312156129e557600080fd5b84356001600160401b038111156129fb57600080fd5b612a07878288016124f3565b94505060208501356001600160401b03811115612a2357600080fd5b612a2f878288016124f3565b935050612a3e6040860161265f565b915060608501356001600160401b03811115612a5957600080fd5b612a65878288016124f3565b91505092959194509250565b600080600080600080600060e0888a031215612a8c57600080fd5b87356001600160401b03811115612aa257600080fd5b612aae8a828b016124f3565b97505060208801356001600160401b03811115612aca57600080fd5b612ad68a828b016124f3565b96505060408801356001600160401b03811115612af257600080fd5b612afe8a828b016124f3565b955050612b0d6060890161265f565b935060808801356001600160401b03811115612b2857600080fd5b612b348a828b016124f3565b93505060a08801356001600160401b03811115612b5057600080fd5b612b5c8a828b016124f3565b92505060c08801356001600160401b03811115612b7857600080fd5b612b848a828b016124f3565b91505092959891949750929550565b6001600160a01b038616815260a060208201819052600090612bb7908301876125e0565b8281036040840152612bc981876125e0565b90508281036060840152612bdd81866125e0565b90508281036080840152612bf181856125e0565b98975050505050505050565b608081526000612c1060808301876125e0565b8281036020840152612c2281876125e0565b90508281036040840152612c3681866125e0565b91505060018060a01b038316606083015295945050505050565b600080600080600060a08688031215612c6857600080fd5b85356001600160401b03811115612c7e57600080fd5b612c8a888289016124f3565b95505060208601356001600160401b03811115612ca657600080fd5b612cb2888289016124f3565b945050612cc16040870161265f565b925060608601356001600160401b03811115612cdc57600080fd5b612ce8888289016124f3565b92505060808601356001600160401b03811115612d0457600080fd5b612d10888289016124f3565b9150509295509295909350565b60008060008060808587031215612d3357600080fd5b84356001600160401b03811115612d4957600080fd5b612d55878288016124f3565b945050612d646020860161265f565b925060408501356001600160401b03811115612d7f57600080fd5b612d8b878288016124f3565b92505060608501356001600160401b03811115612a5957600080fd5b6000602082016020835280845180835260408501915060408160051b86010192506020860160005b828110156127f357868503603f19018452815180516001600160a01b0316865260208082015160a091880182905290612e0a908801826125e0565b905060408201518782036040890152612e2382826125e0565b91505060608201518782036060890152612e3d82826125e0565b915050608082015191508681036080880152612e5981836125e0565b965050506020938401939190910190600101612dcf565b608081526000612e8360808301876125e0565b6001600160a01b039590951660208301525060408101929092521515606090910152919050565b60208152600061269660208301846125e0565b600181811c90821680612ed157607f821691505b602082108103612ef157634e487b7160e01b600052602260045260246000fd5b50919050565b634e487b7160e01b600052603260045260246000fd5b601f821115612f5457806000526020600020601f840160051c81016020851015612f345750805b601f840160051c820191505b818110156113d45760008155600101612f40565b505050565b81516001600160401b03811115612f7257612f726124dd565b612f8681612f808454612ebd565b84612f0d565b6020601f821160018114612fba5760008315612fa25750848201515b600019600385901b1c1916600184901b1784556113d4565b600084815260208120601f198516915b82811015612fea5787850151825560209485019460019092019101612fca565b50848210156130085786840151600019600387901b60f8161c191681555b50505050600190811b01905550565b600082516130298184602087016125bc565b9190910192915050565b600080835461304181612ebd565b600182168015613058576001811461306d5761309d565b60ff198316865281151582028601935061309d565b86600052602060002060005b8381101561309557815488820152600190910190602001613079565b505081860193505b50919594505050505056fea264697066735822122002da4a99d472ca0650d3f3ec82c7c9b8cf65dd814cd8330d7a0a5f15be71834964736f6c634300081a0033",
    "linkReferences": {}
  },
  "methodIdentifiers": {
    "Login(address)": "eecc1c95",
    "_contractOwner()": "2bb3b114",
    "addCitizen(string,string,string,address,string,string,string)": "859bc722",
    "addInstitution(string,address,string,string)": "d90d7c06",
    "addOperator(string,string,address,string,string)": "d7d6d946",
    "announceDeath(string)": "2afe436a",
    "citizenArray(uint256)": "1af44596",
    "citizenMapping(address)": "938f54ac",
    "deathCertificateArray(uint256)": "f21bccfd",
    "deathcertificateMapping(string)": "0a4f3679",
    "getAllCitizens()": "6c0e1ccd",
    "getAllInstitution()": "36a786ec",
    "getAllOperators()": "d911c632",
    "getAllTransactions()": "27506f53",
    "identityArray(uint256)": "4b2d18ba",
    "institutionArray(uint256)": "dd1209dd",
    "institutionMapping(string)": "8d9b6a39",
    "isCitizenAlive(string)": "cd01b103",
    "issueDeathCertificate(string,string,address,string)": "7179919f",
    "operatorArray(uint256)": "8c694d4d",
    "operatorMapping(address)": "e5ec9e13",
    "transactionsArray(uint256)": "e210ecee",
    "userArray(uint256)": "41209af1",
    "userMapping(address)": "118b9535"
  },
  "id": 15
}