{
    "abi": [
        {
            "type": "constructor",
            "inputs": [],
            "stateMutability": "nonpayable"
        },
        {
            "type": "function",
            "name": "Login",
            "inputs": [
                {
                    "name": "_userAddress",
                    "type": "address",
                    "internalType": "address"
                }
            ],
            "outputs": [
                {
                    "name": "",
                    "type": "string",
                    "internalType": "string"
                }
            ],
            "stateMutability": "view"
        },
        {
            "type": "function",
            "name": "_contractOwner",
            "inputs": [],
            "outputs": [
                {
                    "name": "",
                    "type": "address",
                    "internalType": "address"
                }
            ],
            "stateMutability": "view"
        },
        {
            "type": "function",
            "name": "addCitizen",
            "inputs": [
                {
                    "name": "_firstName",
                    "type": "string",
                    "internalType": "string"
                },
                {
                    "name": "_middleName",
                    "type": "string",
                    "internalType": "string"
                },
                {
                    "name": "_lastName",
                    "type": "string",
                    "internalType": "string"
                },
                {
                    "name": "_citizenAddress",
                    "type": "address",
                    "internalType": "address"
                },
                {
                    "name": "_gender",
                    "type": "string",
                    "internalType": "string"
                },
                {
                    "name": "_dateofBirth",
                    "type": "string",
                    "internalType": "string"
                },
                {
                    "name": "_citizenId",
                    "type": "string",
                    "internalType": "string"
                }
            ],
            "outputs": [],
            "stateMutability": "nonpayable"
        },
        {
            "type": "function",
            "name": "addOperator",
            "inputs": [
                {
                    "name": "_firstName",
                    "type": "string",
                    "internalType": "string"
                },
                {
                    "name": "_lastName",
                    "type": "string",
                    "internalType": "string"
                },
                {
                    "name": "_operatorAddress",
                    "type": "address",
                    "internalType": "address"
                },
                {
                    "name": "_position",
                    "type": "string",
                    "internalType": "string"
                },
                {
                    "name": "_organisation",
                    "type": "string",
                    "internalType": "string"
                }
            ],
            "outputs": [],
            "stateMutability": "nonpayable"
        },
        {
            "type": "function",
            "name": "announceDeath",
            "inputs": [
                {
                    "name": "_citizenId",
                    "type": "string",
                    "internalType": "string"
                }
            ],
            "outputs": [],
            "stateMutability": "nonpayable"
        },
        {
            "type": "function",
            "name": "citizenArray",
            "inputs": [
                {
                    "name": "",
                    "type": "uint256",
                    "internalType": "uint256"
                }
            ],
            "outputs": [
                {
                    "name": "citizenStatus",
                    "type": "bool",
                    "internalType": "bool"
                },
                {
                    "name": "firstName",
                    "type": "string",
                    "internalType": "string"
                },
                {
                    "name": "middleName",
                    "type": "string",
                    "internalType": "string"
                },
                {
                    "name": "lastName",
                    "type": "string",
                    "internalType": "string"
                },
                {
                    "name": "citizenId",
                    "type": "string",
                    "internalType": "string"
                },
                {
                    "name": "gender",
                    "type": "string",
                    "internalType": "string"
                },
                {
                    "name": "dateofBirth",
                    "type": "string",
                    "internalType": "string"
                }
            ],
            "stateMutability": "view"
        },
        {
            "type": "function",
            "name": "citizenMapping",
            "inputs": [
                {
                    "name": "",
                    "type": "address",
                    "internalType": "address"
                }
            ],
            "outputs": [
                {
                    "name": "citizenStatus",
                    "type": "bool",
                    "internalType": "bool"
                },
                {
                    "name": "firstName",
                    "type": "string",
                    "internalType": "string"
                },
                {
                    "name": "middleName",
                    "type": "string",
                    "internalType": "string"
                },
                {
                    "name": "lastName",
                    "type": "string",
                    "internalType": "string"
                },
                {
                    "name": "citizenId",
                    "type": "string",
                    "internalType": "string"
                },
                {
                    "name": "gender",
                    "type": "string",
                    "internalType": "string"
                },
                {
                    "name": "dateofBirth",
                    "type": "string",
                    "internalType": "string"
                }
            ],
            "stateMutability": "view"
        },
        {
            "type": "function",
            "name": "deathCertificateArray",
            "inputs": [
                {
                    "name": "",
                    "type": "uint256",
                    "internalType": "uint256"
                }
            ],
            "outputs": [
                {
                    "name": "causeOfDeath",
                    "type": "string",
                    "internalType": "string"
                },
                {
                    "name": "dOB",
                    "type": "string",
                    "internalType": "string"
                },
                {
                    "name": "registerBY",
                    "type": "address",
                    "internalType": "address"
                },
                {
                    "name": "citizenID",
                    "type": "string",
                    "internalType": "string"
                }
            ],
            "stateMutability": "view"
        },
        {
            "type": "function",
            "name": "deathcertificateMapping",
            "inputs": [
                {
                    "name": "",
                    "type": "string",
                    "internalType": "string"
                }
            ],
            "outputs": [
                {
                    "name": "causeOfDeath",
                    "type": "string",
                    "internalType": "string"
                },
                {
                    "name": "dOB",
                    "type": "string",
                    "internalType": "string"
                },
                {
                    "name": "registerBY",
                    "type": "address",
                    "internalType": "address"
                },
                {
                    "name": "citizenID",
                    "type": "string",
                    "internalType": "string"
                }
            ],
            "stateMutability": "view"
        },
        {
            "type": "function",
            "name": "getAllCitizens",
            "inputs": [],
            "outputs": [
                {
                    "name": "",
                    "type": "tuple[]",
                    "internalType": "struct IdentityGateway.Citizen[]",
                    "components": [
                        {
                            "name": "citizenStatus",
                            "type": "bool",
                            "internalType": "bool"
                        },
                        {
                            "name": "firstName",
                            "type": "string",
                            "internalType": "string"
                        },
                        {
                            "name": "middleName",
                            "type": "string",
                            "internalType": "string"
                        },
                        {
                            "name": "lastName",
                            "type": "string",
                            "internalType": "string"
                        },
                        {
                            "name": "citizenId",
                            "type": "string",
                            "internalType": "string"
                        },
                        {
                            "name": "gender",
                            "type": "string",
                            "internalType": "string"
                        },
                        {
                            "name": "dateofBirth",
                            "type": "string",
                            "internalType": "string"
                        }
                    ]
                }
            ],
            "stateMutability": "view"
        },
        {
            "type": "function",
            "name": "getAllOperators",
            "inputs": [],
            "outputs": [
                {
                    "name": "",
                    "type": "tuple[]",
                    "internalType": "struct IdentityGateway.Operator[]",
                    "components": [
                        {
                            "name": "operatorAddress",
                            "type": "address",
                            "internalType": "address"
                        },
                        {
                            "name": "firstName",
                            "type": "string",
                            "internalType": "string"
                        },
                        {
                            "name": "lastName",
                            "type": "string",
                            "internalType": "string"
                        },
                        {
                            "name": "position",
                            "type": "string",
                            "internalType": "string"
                        },
                        {
                            "name": "organisation",
                            "type": "string",
                            "internalType": "string"
                        }
                    ]
                }
            ],
            "stateMutability": "view"
        },
        {
            "type": "function",
            "name": "getAllTransactions",
            "inputs": [],
            "outputs": [
                {
                    "name": "",
                    "type": "tuple[]",
                    "internalType": "struct IdentityGateway.Transaction[]",
                    "components": [
                        {
                            "name": "action",
                            "type": "string",
                            "internalType": "string"
                        },
                        {
                            "name": "performedBy",
                            "type": "address",
                            "internalType": "address"
                        },
                        {
                            "name": "timestamp",
                            "type": "uint256",
                            "internalType": "uint256"
                        },
                        {
                            "name": "status",
                            "type": "bool",
                            "internalType": "bool"
                        }
                    ]
                }
            ],
            "stateMutability": "view"
        },
        {
            "type": "function",
            "name": "identityArray",
            "inputs": [
                {
                    "name": "",
                    "type": "uint256",
                    "internalType": "uint256"
                }
            ],
            "outputs": [
                {
                    "name": "idType",
                    "type": "string",
                    "internalType": "string"
                },
                {
                    "name": "documentCid",
                    "type": "string",
                    "internalType": "string"
                }
            ],
            "stateMutability": "view"
        },
        {
            "type": "function",
            "name": "isCitizenAlive",
            "inputs": [
                {
                    "name": "_citizenId",
                    "type": "string",
                    "internalType": "string"
                }
            ],
            "outputs": [
                {
                    "name": "",
                    "type": "bool",
                    "internalType": "bool"
                }
            ],
            "stateMutability": "view"
        },
        {
            "type": "function",
            "name": "issueDeathCertificate",
            "inputs": [
                {
                    "name": "_causeOfDeath",
                    "type": "string",
                    "internalType": "string"
                },
                {
                    "name": "_dOB",
                    "type": "string",
                    "internalType": "string"
                },
                {
                    "name": "_registerBY",
                    "type": "address",
                    "internalType": "address"
                },
                {
                    "name": "_citizenID",
                    "type": "string",
                    "internalType": "string"
                }
            ],
            "outputs": [],
            "stateMutability": "nonpayable"
        },
        {
            "type": "function",
            "name": "operatorArray",
            "inputs": [
                {
                    "name": "",
                    "type": "uint256",
                    "internalType": "uint256"
                }
            ],
            "outputs": [
                {
                    "name": "operatorAddress",
                    "type": "address",
                    "internalType": "address"
                },
                {
                    "name": "firstName",
                    "type": "string",
                    "internalType": "string"
                },
                {
                    "name": "lastName",
                    "type": "string",
                    "internalType": "string"
                },
                {
                    "name": "position",
                    "type": "string",
                    "internalType": "string"
                },
                {
                    "name": "organisation",
                    "type": "string",
                    "internalType": "string"
                }
            ],
            "stateMutability": "view"
        },
        {
            "type": "function",
            "name": "operatorMapping",
            "inputs": [
                {
                    "name": "",
                    "type": "address",
                    "internalType": "address"
                }
            ],
            "outputs": [
                {
                    "name": "operatorAddress",
                    "type": "address",
                    "internalType": "address"
                },
                {
                    "name": "firstName",
                    "type": "string",
                    "internalType": "string"
                },
                {
                    "name": "lastName",
                    "type": "string",
                    "internalType": "string"
                },
                {
                    "name": "position",
                    "type": "string",
                    "internalType": "string"
                },
                {
                    "name": "organisation",
                    "type": "string",
                    "internalType": "string"
                }
            ],
            "stateMutability": "view"
        },
        {
            "type": "function",
            "name": "transactionsArray",
            "inputs": [
                {
                    "name": "",
                    "type": "uint256",
                    "internalType": "uint256"
                }
            ],
            "outputs": [
                {
                    "name": "action",
                    "type": "string",
                    "internalType": "string"
                },
                {
                    "name": "performedBy",
                    "type": "address",
                    "internalType": "address"
                },
                {
                    "name": "timestamp",
                    "type": "uint256",
                    "internalType": "uint256"
                },
                {
                    "name": "status",
                    "type": "bool",
                    "internalType": "bool"
                }
            ],
            "stateMutability": "view"
        },
        {
            "type": "function",
            "name": "userArray",
            "inputs": [
                {
                    "name": "",
                    "type": "uint256",
                    "internalType": "uint256"
                }
            ],
            "outputs": [
                {
                    "name": "userAddress",
                    "type": "address",
                    "internalType": "address"
                },
                {
                    "name": "userType",
                    "type": "string",
                    "internalType": "string"
                }
            ],
            "stateMutability": "view"
        },
        {
            "type": "function",
            "name": "userMapping",
            "inputs": [
                {
                    "name": "",
                    "type": "address",
                    "internalType": "address"
                }
            ],
            "outputs": [
                {
                    "name": "userAddress",
                    "type": "address",
                    "internalType": "address"
                },
                {
                    "name": "userType",
                    "type": "string",
                    "internalType": "string"
                }
            ],
            "stateMutability": "view"
        }
    ],
    "bytecode": {
        "object": "0x6080604052348015600f57600080fd5b50600080546001600160a01b03191633179055612923806100316000396000f3fe608060405234801561001057600080fd5b506004361061012c5760003560e01c8063859bc722116100ad578063d911c63211610071578063d911c632146102d5578063e210ecee146102ea578063e5ec9e131461030d578063eecc1c9514610320578063f21bccfd1461034057600080fd5b8063859bc722146102555780638c694d4d14610268578063938f54ac1461028c578063cd01b1031461029f578063d7d6d946146102c257600080fd5b80632bb3b114116100f45780632bb3b114146101ce57806341209af1146101f95780634b2d18ba1461020c5780636c0e1ccd1461022d5780637179919f1461024257600080fd5b80630a4f367914610131578063118b95351461015d5780631af445961461017e57806327506f53146101a45780632afe436a146101b9575b600080fd5b61014461013f366004611f50565b610353565b6040516101549493929190611fdc565b60405180910390f35b61017061016b36600461204b565b61052d565b60405161015492919061206d565b61019161018c366004612091565b6105dc565b60405161015497969594939291906120aa565b6101ac61095e565b6040516101549190612135565b6101cc6101c7366004611f50565b610a81565b005b6000546101e1906001600160a01b031681565b6040516001600160a01b039091168152602001610154565b610170610207366004612091565b610ac6565b61021f61021a366004612091565b610b05565b6040516101549291906121cf565b610235610bc6565b60405161015491906121fd565b6101cc6102503660046122f1565b610f9a565b6101cc610263366004612393565b61112f565b61027b610276366004612091565b611333565b6040516101549594939291906124b5565b61019161029a36600461204b565b61159f565b6102b26102ad366004611f50565b6115c5565b6040519015158152602001610154565b6101cc6102d036600461251f565b611601565b6102dd6118b5565b60405161015491906125ec565b6102fd6102f8366004612091565b611b69565b60405161015494939291906126b5565b61027b61031b36600461204b565b611c40565b61033361032e36600461204b565b611c6c565b60405161015491906126ef565b61014461034e366004612091565b611d1b565b805160208183018101805160088252928201919093012091528054819061037990612702565b80601f01602080910402602001604051908101604052809291908181526020018280546103a590612702565b80156103f25780601f106103c7576101008083540402835291602001916103f2565b820191906000526020600020905b8154815290600101906020018083116103d557829003601f168201915b50505050509080600101805461040790612702565b80601f016020809104026020016040519081016040528092919081815260200182805461043390612702565b80156104805780601f1061045557610100808354040283529160200191610480565b820191906000526020600020905b81548152906001019060200180831161046357829003601f168201915b505050600284015460038501805494956001600160a01b039092169491935091506104aa90612702565b80601f01602080910402602001604051908101604052809291908181526020018280546104d690612702565b80156105235780601f106104f857610100808354040283529160200191610523565b820191906000526020600020905b81548152906001019060200180831161050657829003601f168201915b5050505050905084565b600960205260009081526040902080546001820180546001600160a01b03909216929161055990612702565b80601f016020809104026020016040519081016040528092919081815260200182805461058590612702565b80156105d25780601f106105a7576101008083540402835291602001916105d2565b820191906000526020600020905b8154815290600101906020018083116105b557829003601f168201915b5050505050905082565b600281815481106105ec57600080fd5b60009182526020909120600790910201805460018201805460ff90921693509061061590612702565b80601f016020809104026020016040519081016040528092919081815260200182805461064190612702565b801561068e5780601f106106635761010080835404028352916020019161068e565b820191906000526020600020905b81548152906001019060200180831161067157829003601f168201915b5050505050908060020180546106a390612702565b80601f01602080910402602001604051908101604052809291908181526020018280546106cf90612702565b801561071c5780601f106106f15761010080835404028352916020019161071c565b820191906000526020600020905b8154815290600101906020018083116106ff57829003601f168201915b50505050509080600301805461073190612702565b80601f016020809104026020016040519081016040528092919081815260200182805461075d90612702565b80156107aa5780601f1061077f576101008083540402835291602001916107aa565b820191906000526020600020905b81548152906001019060200180831161078d57829003601f168201915b5050505050908060040180546107bf90612702565b80601f01602080910402602001604051908101604052809291908181526020018280546107eb90612702565b80156108385780601f1061080d57610100808354040283529160200191610838565b820191906000526020600020905b81548152906001019060200180831161081b57829003601f168201915b50505050509080600501805461084d90612702565b80601f016020809104026020016040519081016040528092919081815260200182805461087990612702565b80156108c65780601f1061089b576101008083540402835291602001916108c6565b820191906000526020600020905b8154815290600101906020018083116108a957829003601f168201915b5050505050908060060180546108db90612702565b80601f016020809104026020016040519081016040528092919081815260200182805461090790612702565b80156109545780601f1061092957610100808354040283529160200191610954565b820191906000526020600020905b81548152906001019060200180831161093757829003601f168201915b5050505050905087565b60606006805480602002602001604051908101604052809291908181526020016000905b82821015610a7857838290600052602060002090600402016040518060800160405290816000820180546109b590612702565b80601f01602080910402602001604051908101604052809291908181526020018280546109e190612702565b8015610a2e5780601f10610a0357610100808354040283529160200191610a2e565b820191906000526020600020905b815481529060010190602001808311610a1157829003601f168201915b50505091835250506001828101546001600160a01b03166020808401919091526002840154604084015260039093015460ff16151560609092019190915291835292019101610982565b50505050905090565b6000610a8c82611d4e565b9050600060028281548110610aa357610aa361273c565b60009182526020909120600790910201805460ff19169115159190911790555050565b60058181548110610ad657600080fd5b6000918252602090912060029091020180546001820180546001600160a01b0390921693509061055990612702565b60048181548110610b1557600080fd5b9060005260206000209060020201600091509050806000018054610b3890612702565b80601f0160208091040260200160405190810160405280929190818152602001828054610b6490612702565b8015610bb15780601f10610b8657610100808354040283529160200191610bb1565b820191906000526020600020905b815481529060010190602001808311610b9457829003601f168201915b50505050509080600101805461055990612702565b60606002805480602002602001604051908101604052809291908181526020016000905b82821015610a785760008481526020908190206040805160e0810190915260078502909101805460ff16151582526001810180549293919291840191610c2f90612702565b80601f0160208091040260200160405190810160405280929190818152602001828054610c5b90612702565b8015610ca85780601f10610c7d57610100808354040283529160200191610ca8565b820191906000526020600020905b815481529060010190602001808311610c8b57829003601f168201915b50505050508152602001600282018054610cc190612702565b80601f0160208091040260200160405190810160405280929190818152602001828054610ced90612702565b8015610d3a5780601f10610d0f57610100808354040283529160200191610d3a565b820191906000526020600020905b815481529060010190602001808311610d1d57829003601f168201915b50505050508152602001600382018054610d5390612702565b80601f0160208091040260200160405190810160405280929190818152602001828054610d7f90612702565b8015610dcc5780601f10610da157610100808354040283529160200191610dcc565b820191906000526020600020905b815481529060010190602001808311610daf57829003601f168201915b50505050508152602001600482018054610de590612702565b80601f0160208091040260200160405190810160405280929190818152602001828054610e1190612702565b8015610e5e5780601f10610e3357610100808354040283529160200191610e5e565b820191906000526020600020905b815481529060010190602001808311610e4157829003601f168201915b50505050508152602001600582018054610e7790612702565b80601f0160208091040260200160405190810160405280929190818152602001828054610ea390612702565b8015610ef05780601f10610ec557610100808354040283529160200191610ef0565b820191906000526020600020905b815481529060010190602001808311610ed357829003601f168201915b50505050508152602001600682018054610f0990612702565b80601f0160208091040260200160405190810160405280929190818152602001828054610f3590612702565b8015610f825780601f10610f5757610100808354040283529160200191610f82565b820191906000526020600020905b815481529060010190602001808311610f6557829003601f168201915b50505050508152505081526020019060010190610bea565b60408051608081018252858152602081018590526001600160a01b0384169181019190915260608101829052600180548082018255600091909152815182916004027fb10e2d527612073b26eecdfd717e6a320cf44b4afac2b0732d9fcbe2b7fa0cf60190819061100b908261279e565b5060208201516001820190611020908261279e565b5060408201516002820180546001600160a01b0319166001600160a01b039092169190911790556060820151600382019061105b908261279e565b5050508060088360405161106f919061285c565b9081526040519081900360200190208151819061108c908261279e565b50602082015160018201906110a1908261279e565b5060408201516002820180546001600160a01b0319166001600160a01b03909216919091179055606082015160038201906110dc908261279e565b509050506110e982610a81565b6111286040518060400160405280601781526020017f497373756564204465617468436572746966696361746500000000000000000081525033611dee565b5050505050565b6040805160e081018252600180825260208083018b81528385018b9052606084018a90526080840186905260a0840188905260c084018790526001600160a01b038916600090815260079092529390208251815460ff191690151517815592519192839290918201906111a2908261279e565b50604082015160028201906111b7908261279e565b50606082015160038201906111cc908261279e565b50608082015160048201906111e1908261279e565b5060a082015160058201906111f6908261279e565b5060c0820151600682019061120b908261279e565b50506002805460018101825560009190915282517f405787fa12a823e0f2b7631cc41b3ba8828b3321ca811111fa75cd3aa3bb5ace6007909202918201805460ff1916911515919091178155602084015184935090917f405787fa12a823e0f2b7631cc41b3ba8828b3321ca811111fa75cd3aa3bb5acf019061128e908261279e565b50604082015160028201906112a3908261279e565b50606082015160038201906112b8908261279e565b50608082015160048201906112cd908261279e565b5060a082015160058201906112e2908261279e565b5060c082015160068201906112f7908261279e565b5050506113296040518060400160405280600d81526020016c20b23232b21031b4ba34bd32b760991b81525033611dee565b5050505050505050565b6003818154811061134357600080fd5b6000918252602090912060059091020180546001820180546001600160a01b0390921693509061137290612702565b80601f016020809104026020016040519081016040528092919081815260200182805461139e90612702565b80156113eb5780601f106113c0576101008083540402835291602001916113eb565b820191906000526020600020905b8154815290600101906020018083116113ce57829003601f168201915b50505050509080600201805461140090612702565b80601f016020809104026020016040519081016040528092919081815260200182805461142c90612702565b80156114795780601f1061144e57610100808354040283529160200191611479565b820191906000526020600020905b81548152906001019060200180831161145c57829003601f168201915b50505050509080600301805461148e90612702565b80601f01602080910402602001604051908101604052809291908181526020018280546114ba90612702565b80156115075780601f106114dc57610100808354040283529160200191611507565b820191906000526020600020905b8154815290600101906020018083116114ea57829003601f168201915b50505050509080600401805461151c90612702565b80601f016020809104026020016040519081016040528092919081815260200182805461154890612702565b80156115955780601f1061156a57610100808354040283529160200191611595565b820191906000526020600020905b81548152906001019060200180831161157857829003601f168201915b5050505050905085565b6007602052600090815260409020805460018201805460ff909216929161061590612702565b6000806115d183611d4e565b9050600281815481106115e6576115e661273c565b600091825260209091206007909102015460ff169392505050565b6040805160a0810182526001600160a01b03851680825260208083018990528284018890526060830186905260808301859052835180850185528281528451808601865260088082526737b832b930ba37b960c11b828501819052838501929092528651808801885290815280840191909152600093845260099092529390912091929160010190611693908261279e565b506005805460018101825560009190915281517f036b6384b5eca791c62761152d0c79bb0604c104a5fb6f4eb0703f3154bb3db0600290920291820180546001600160a01b0319166001600160a01b03909216919091178155602083015183927f036b6384b5eca791c62761152d0c79bb0604c104a5fb6f4eb0703f3154bb3db10190611720908261279e565b5050506001600160a01b038581166000908152600a60209081526040909120845181546001600160a01b0319169316929092178255830151839190600182019061176a908261279e565b506040820151600282019061177f908261279e565b5060608201516003820190611794908261279e565b50608082015160048201906117a9908261279e565b50506003805460018101825560009190915283517fc2575a0e9e593c00f959f8c92f12db2869c3395a3b0502d05e2516446f71f85b600590920291820180546001600160a01b0319166001600160a01b03909216919091178155602085015185935090917fc2575a0e9e593c00f959f8c92f12db2869c3395a3b0502d05e2516446f71f85c019061183a908261279e565b506040820151600282019061184f908261279e565b5060608201516003820190611864908261279e565b5060808201516004820190611879908261279e565b5050506118ac6040518060400160405280600e81526020016d20b23232b21027b832b930ba37b960911b81525033611dee565b50505050505050565b60606003805480602002602001604051908101604052809291908181526020016000905b82821015610a785760008481526020908190206040805160a081019091526005850290910180546001600160a01b03168252600181018054929391929184019161192290612702565b80601f016020809104026020016040519081016040528092919081815260200182805461194e90612702565b801561199b5780601f106119705761010080835404028352916020019161199b565b820191906000526020600020905b81548152906001019060200180831161197e57829003601f168201915b505050505081526020016002820180546119b490612702565b80601f01602080910402602001604051908101604052809291908181526020018280546119e090612702565b8015611a2d5780601f10611a0257610100808354040283529160200191611a2d565b820191906000526020600020905b815481529060010190602001808311611a1057829003601f168201915b50505050508152602001600382018054611a4690612702565b80601f0160208091040260200160405190810160405280929190818152602001828054611a7290612702565b8015611abf5780601f10611a9457610100808354040283529160200191611abf565b820191906000526020600020905b815481529060010190602001808311611aa257829003601f168201915b50505050508152602001600482018054611ad890612702565b80601f0160208091040260200160405190810160405280929190818152602001828054611b0490612702565b8015611b515780601f10611b2657610100808354040283529160200191611b51565b820191906000526020600020905b815481529060010190602001808311611b3457829003601f168201915b505050505081525050815260200190600101906118d9565b60068181548110611b7957600080fd5b9060005260206000209060040201600091509050806000018054611b9c90612702565b80601f0160208091040260200160405190810160405280929190818152602001828054611bc890612702565b8015611c155780601f10611bea57610100808354040283529160200191611c15565b820191906000526020600020905b815481529060010190602001808311611bf857829003601f168201915b505050506001830154600284015460039094015492936001600160a01b039091169290915060ff1684565b600a60205260009081526040902080546001820180546001600160a01b03909216929161137290612702565b6001600160a01b0381166000908152600a60205260409020600401805460609190611c9690612702565b80601f0160208091040260200160405190810160405280929190818152602001828054611cc290612702565b8015611d0f5780601f10611ce457610100808354040283529160200191611d0f565b820191906000526020600020905b815481529060010190602001808311611cf257829003601f168201915b50505050509050919050565b60018181548110611d2b57600080fd5b906000526020600020906004020160009150905080600001805461037990612702565b6000805b600254811015611db057828051906020012060028281548110611d7757611d7761273c565b9060005260206000209060070201600401604051611d959190612878565b604051809103902003611da85792915050565b600101611d52565b5060405162461bcd60e51b815260206004820152600e60248201526d155cd95c881b9bdd08199bdd5b9960921b604482015260640160405180910390fd5b604080516080810182528381526001600160a01b03831660208201524291810191909152600160608201819052600680549182018155600052815182916004027ff652222313e28459528d920b65115c16c04f3efc82aaedc97be59f3f377c0d3f01908190611e5d908261279e565b5060208201516001820180546001600160a01b0319166001600160a01b03909216919091179055604082015160028201556060909101516003909101805460ff1916911515919091179055505050565b634e487b7160e01b600052604160045260246000fd5b600082601f830112611ed457600080fd5b81356001600160401b03811115611eed57611eed611ead565b604051601f8201601f19908116603f011681016001600160401b0381118282101715611f1b57611f1b611ead565b604052818152838201602001851015611f3357600080fd5b816020850160208301376000918101602001919091529392505050565b600060208284031215611f6257600080fd5b81356001600160401b03811115611f7857600080fd5b611f8484828501611ec3565b949350505050565b60005b83811015611fa7578181015183820152602001611f8f565b50506000910152565b60008151808452611fc8816020860160208601611f8c565b601f01601f19169290920160200192915050565b608081526000611fef6080830187611fb0565b82810360208401526120018187611fb0565b6001600160a01b0386166040850152838103606085015290506120248185611fb0565b979650505050505050565b80356001600160a01b038116811461204657600080fd5b919050565b60006020828403121561205d57600080fd5b6120668261202f565b9392505050565b6001600160a01b0383168152604060208201819052600090611f8490830184611fb0565b6000602082840312156120a357600080fd5b5035919050565b871515815260e0602082015260006120c560e0830189611fb0565b82810360408401526120d78189611fb0565b905082810360608401526120eb8188611fb0565b905082810360808401526120ff8187611fb0565b905082810360a08401526121138186611fb0565b905082810360c08401526121278185611fb0565b9a9950505050505050505050565b6000602082016020835280845180835260408501915060408160051b86010192506020860160005b828110156121c357603f1987860301845281518051608087526121836080880182611fb0565b6020838101516001600160a01b031689820152604080850151908a015260609384015115159390980192909252509493840193919091019060010161215d565b50929695505050505050565b6040815260006121e26040830185611fb0565b82810360208401526121f48185611fb0565b95945050505050565b6000602082016020835280845180835260408501915060408160051b86010192506020860160005b828110156121c357868503603f190184528151805115158652602081015160e0602088015261225760e0880182611fb0565b9050604082015187820360408901526122708282611fb0565b9150506060820151878203606089015261228a8282611fb0565b915050608082015187820360808901526122a48282611fb0565b91505060a082015187820360a08901526122be8282611fb0565b91505060c0820151915086810360c08801526122da8183611fb0565b965050506020938401939190910190600101612225565b6000806000806080858703121561230757600080fd5b84356001600160401b0381111561231d57600080fd5b61232987828801611ec3565b94505060208501356001600160401b0381111561234557600080fd5b61235187828801611ec3565b9350506123606040860161202f565b915060608501356001600160401b0381111561237b57600080fd5b61238787828801611ec3565b91505092959194509250565b600080600080600080600060e0888a0312156123ae57600080fd5b87356001600160401b038111156123c457600080fd5b6123d08a828b01611ec3565b97505060208801356001600160401b038111156123ec57600080fd5b6123f88a828b01611ec3565b96505060408801356001600160401b0381111561241457600080fd5b6124208a828b01611ec3565b95505061242f6060890161202f565b935060808801356001600160401b0381111561244a57600080fd5b6124568a828b01611ec3565b93505060a08801356001600160401b0381111561247257600080fd5b61247e8a828b01611ec3565b92505060c08801356001600160401b0381111561249a57600080fd5b6124a68a828b01611ec3565b91505092959891949750929550565b6001600160a01b038616815260a0602082018190526000906124d990830187611fb0565b82810360408401526124eb8187611fb0565b905082810360608401526124ff8186611fb0565b905082810360808401526125138185611fb0565b98975050505050505050565b600080600080600060a0868803121561253757600080fd5b85356001600160401b0381111561254d57600080fd5b61255988828901611ec3565b95505060208601356001600160401b0381111561257557600080fd5b61258188828901611ec3565b9450506125906040870161202f565b925060608601356001600160401b038111156125ab57600080fd5b6125b788828901611ec3565b92505060808601356001600160401b038111156125d357600080fd5b6125df88828901611ec3565b9150509295509295909350565b6000602082016020835280845180835260408501915060408160051b86010192506020860160005b828110156121c357868503603f19018452815180516001600160a01b0316865260208082015160a09188018290529061264f90880182611fb0565b9050604082015187820360408901526126688282611fb0565b915050606082015187820360608901526126828282611fb0565b91505060808201519150868103608088015261269e8183611fb0565b965050506020938401939190910190600101612614565b6080815260006126c86080830187611fb0565b6001600160a01b039590951660208301525060408101929092521515606090910152919050565b6020815260006120666020830184611fb0565b600181811c9082168061271657607f821691505b60208210810361273657634e487b7160e01b600052602260045260246000fd5b50919050565b634e487b7160e01b600052603260045260246000fd5b601f82111561279957806000526020600020601f840160051c810160208510156127795750805b601f840160051c820191505b818110156111285760008155600101612785565b505050565b81516001600160401b038111156127b7576127b7611ead565b6127cb816127c58454612702565b84612752565b6020601f8211600181146127ff57600083156127e75750848201515b600019600385901b1c1916600184901b178455611128565b600084815260208120601f198516915b8281101561282f578785015182556020948501946001909201910161280f565b508482101561284d5786840151600019600387901b60f8161c191681555b50505050600190811b01905550565b6000825161286e818460208701611f8c565b9190910192915050565b600080835461288681612702565b60018216801561289d57600181146128b2576128e2565b60ff19831686528115158202860193506128e2565b86600052602060002060005b838110156128da578154888201526001909101906020016128be565b505081860193505b50919594505050505056fea26469706673582212202fede404830aae48b35c9cf549fe939cd5ef094a3df8b6324f742ed5e456b54d64736f6c634300081a0033",
        "linkReferences": {}
    },
    "methodIdentifiers": {
        "Login(address)": "eecc1c95",
        "_contractOwner()": "2bb3b114",
        "addCitizen(string,string,string,address,string,string,string)": "859bc722",
        "addOperator(string,string,address,string,string)": "d7d6d946",
        "announceDeath(string)": "2afe436a",
        "citizenArray(uint256)": "1af44596",
        "citizenMapping(address)": "938f54ac",
        "deathCertificateArray(uint256)": "f21bccfd",
        "deathcertificateMapping(string)": "0a4f3679",
        "getAllCitizens()": "6c0e1ccd",
        "getAllOperators()": "d911c632",
        "getAllTransactions()": "27506f53",
        "identityArray(uint256)": "4b2d18ba",
        "isCitizenAlive(string)": "cd01b103",
        "issueDeathCertificate(string,string,address,string)": "7179919f",
        "operatorArray(uint256)": "8c694d4d",
        "operatorMapping(address)": "e5ec9e13",
        "transactionsArray(uint256)": "e210ecee",
        "userArray(uint256)": "41209af1",
        "userMapping(address)": "118b9535"
    },
    "id": 15
}