{"abi":[{"type":"constructor","inputs":[],"stateMutability":"nonpayable"},{"type":"function","name":"Login","inputs":[{"name":"_userAddress","type":"address","internalType":"address"}],"outputs":[{"name":"","type":"string","internalType":"string"}],"stateMutability":"view"},{"type":"function","name":"_contractOwner","inputs":[],"outputs":[{"name":"","type":"address","internalType":"address"}],"stateMutability":"view"},{"type":"function","name":"addCitizen","inputs":[{"name":"_firstName","type":"string","internalType":"string"},{"name":"_middleName","type":"string","internalType":"string"},{"name":"_birthCertificateNo","type":"string","internalType":"string"},{"name":"_lastName","type":"string","internalType":"string"},{"name":"_gender","type":"string","internalType":"string"},{"name":"_dateofBirth","type":"string","internalType":"string"}],"outputs":[],"stateMutability":"nonpayable"},{"type":"function","name":"addInstitution","inputs":[{"name":"_instutionName","type":"string","internalType":"string"},{"name":"_orgAddress","type":"address","internalType":"address"},{"name":"_orgType","type":"string","internalType":"string"},{"name":"_abbreviation","type":"string","internalType":"string"}],"outputs":[],"stateMutability":"nonpayable"},{"type":"function","name":"addOperator","inputs":[{"name":"_firstName","type":"string","internalType":"string"},{"name":"_lastName","type":"string","internalType":"string"},{"name":"_operatorAddress","type":"address","internalType":"address"},{"name":"_position","type":"string","internalType":"string"},{"name":"_organisation","type":"string","internalType":"string"}],"outputs":[],"stateMutability":"nonpayable"},{"type":"function","name":"announceDeath","inputs":[{"name":"_citizenId","type":"string","internalType":"string"}],"outputs":[],"stateMutability":"nonpayable"},{"type":"function","name":"checkHealthInsuranceStatusByNumber","inputs":[{"name":"_healthInsuranceNumber","type":"string","internalType":"string"}],"outputs":[{"name":"","type":"bool","internalType":"bool"}],"stateMutability":"view"},{"type":"function","name":"citizenArray","inputs":[{"name":"","type":"uint256","internalType":"uint256"}],"outputs":[{"name":"citizenStatus","type":"bool","internalType":"bool"},{"name":"firstName","type":"string","internalType":"string"},{"name":"birthCertificateNo","type":"string","internalType":"string"},{"name":"middleName","type":"string","internalType":"string"},{"name":"lastName","type":"string","internalType":"string"},{"name":"citizenId","type":"string","internalType":"string"},{"name":"gender","type":"string","internalType":"string"},{"name":"dateofBirth","type":"string","internalType":"string"},{"name":"healthInsuarance","type":"string","internalType":"string"}],"stateMutability":"view"},{"type":"function","name":"citizenMapping","inputs":[{"name":"","type":"string","internalType":"string"}],"outputs":[{"name":"citizenStatus","type":"bool","internalType":"bool"},{"name":"firstName","type":"string","internalType":"string"},{"name":"birthCertificateNo","type":"string","internalType":"string"},{"name":"middleName","type":"string","internalType":"string"},{"name":"lastName","type":"string","internalType":"string"},{"name":"citizenId","type":"string","internalType":"string"},{"name":"gender","type":"string","internalType":"string"},{"name":"dateofBirth","type":"string","internalType":"string"},{"name":"healthInsuarance","type":"string","internalType":"string"}],"stateMutability":"view"},{"type":"function","name":"deathCertificateArray","inputs":[{"name":"","type":"uint256","internalType":"uint256"}],"outputs":[{"name":"causeOfDeath","type":"string","internalType":"string"},{"name":"dateofDeath","type":"string","internalType":"string"},{"name":"registerBY","type":"address","internalType":"address"},{"name":"citizenID","type":"string","internalType":"string"}],"stateMutability":"view"},{"type":"function","name":"deathcertificateMapping","inputs":[{"name":"","type":"string","internalType":"string"}],"outputs":[{"name":"causeOfDeath","type":"string","internalType":"string"},{"name":"dateofDeath","type":"string","internalType":"string"},{"name":"registerBY","type":"address","internalType":"address"},{"name":"citizenID","type":"string","internalType":"string"}],"stateMutability":"view"},{"type":"function","name":"getAllCitizens","inputs":[],"outputs":[{"name":"","type":"tuple[]","internalType":"struct IdentityGateway.Citizen[]","components":[{"name":"citizenStatus","type":"bool","internalType":"bool"},{"name":"firstName","type":"string","internalType":"string"},{"name":"birthCertificateNo","type":"string","internalType":"string"},{"name":"middleName","type":"string","internalType":"string"},{"name":"lastName","type":"string","internalType":"string"},{"name":"citizenId","type":"string","internalType":"string"},{"name":"gender","type":"string","internalType":"string"},{"name":"dateofBirth","type":"string","internalType":"string"},{"name":"healthInsuarance","type":"string","internalType":"string"}]}],"stateMutability":"view"},{"type":"function","name":"getAllInstitution","inputs":[],"outputs":[{"name":"","type":"tuple[]","internalType":"struct IdentityGateway.Institution[]","components":[{"name":"instutionName","type":"string","internalType":"string"},{"name":"abbreviation","type":"string","internalType":"string"},{"name":"orgType","type":"string","internalType":"string"},{"name":"orgAddress","type":"address","internalType":"address"}]}],"stateMutability":"view"},{"type":"function","name":"getAllOperators","inputs":[],"outputs":[{"name":"","type":"tuple[]","internalType":"struct IdentityGateway.Operator[]","components":[{"name":"operatorAddress","type":"address","internalType":"address"},{"name":"firstName","type":"string","internalType":"string"},{"name":"lastName","type":"string","internalType":"string"},{"name":"position","type":"string","internalType":"string"},{"name":"organisation","type":"string","internalType":"string"}]}],"stateMutability":"view"},{"type":"function","name":"getAllTransactions","inputs":[],"outputs":[{"name":"","type":"tuple[]","internalType":"struct IdentityGateway.Transaction[]","components":[{"name":"action","type":"string","internalType":"string"},{"name":"performedBy","type":"address","internalType":"address"},{"name":"timestamp","type":"uint256","internalType":"uint256"},{"name":"status","type":"bool","internalType":"bool"}]}],"stateMutability":"view"},{"type":"function","name":"getCitizenData","inputs":[{"name":"_birthCertificateNo","type":"string","internalType":"string"}],"outputs":[{"name":"","type":"tuple","internalType":"struct IdentityGateway.Citizen","components":[{"name":"citizenStatus","type":"bool","internalType":"bool"},{"name":"firstName","type":"string","internalType":"string"},{"name":"birthCertificateNo","type":"string","internalType":"string"},{"name":"middleName","type":"string","internalType":"string"},{"name":"lastName","type":"string","internalType":"string"},{"name":"citizenId","type":"string","internalType":"string"},{"name":"gender","type":"string","internalType":"string"},{"name":"dateofBirth","type":"string","internalType":"string"},{"name":"healthInsuarance","type":"string","internalType":"string"}]}],"stateMutability":"view"},{"type":"function","name":"getInstitutionNameByAddress","inputs":[{"name":"_orgAddress","type":"address","internalType":"address"}],"outputs":[{"name":"","type":"string","internalType":"string"}],"stateMutability":"view"},{"type":"function","name":"identityArray","inputs":[{"name":"","type":"uint256","internalType":"uint256"}],"outputs":[{"name":"idType","type":"string","internalType":"string"},{"name":"documentCid","type":"string","internalType":"string"}],"stateMutability":"view"},{"type":"function","name":"institutionAddressMapping","inputs":[{"name":"","type":"address","internalType":"address"}],"outputs":[{"name":"instutionName","type":"string","internalType":"string"},{"name":"abbreviation","type":"string","internalType":"string"},{"name":"orgType","type":"string","internalType":"string"},{"name":"orgAddress","type":"address","internalType":"address"}],"stateMutability":"view"},{"type":"function","name":"institutionArray","inputs":[{"name":"","type":"uint256","internalType":"uint256"}],"outputs":[{"name":"instutionName","type":"string","internalType":"string"},{"name":"abbreviation","type":"string","internalType":"string"},{"name":"orgType","type":"string","internalType":"string"},{"name":"orgAddress","type":"address","internalType":"address"}],"stateMutability":"view"},{"type":"function","name":"institutionMapping","inputs":[{"name":"","type":"string","internalType":"string"}],"outputs":[{"name":"instutionName","type":"string","internalType":"string"},{"name":"abbreviation","type":"string","internalType":"string"},{"name":"orgType","type":"string","internalType":"string"},{"name":"orgAddress","type":"address","internalType":"address"}],"stateMutability":"view"},{"type":"function","name":"isCitizenAlive","inputs":[{"name":"_citizenId","type":"string","internalType":"string"}],"outputs":[{"name":"","type":"bool","internalType":"bool"}],"stateMutability":"view"},{"type":"function","name":"issueBima","inputs":[{"name":"_birthCertificateNo","type":"string","internalType":"string"},{"name":"_healthInsuarance","type":"string","internalType":"string"}],"outputs":[],"stateMutability":"nonpayable"},{"type":"function","name":"issueCitizenId","inputs":[{"name":"_birthCertificateNo","type":"string","internalType":"string"},{"name":"_citizenId","type":"string","internalType":"string"}],"outputs":[],"stateMutability":"nonpayable"},{"type":"function","name":"issueDeathCertificate","inputs":[{"name":"_causeOfDeath","type":"string","internalType":"string"},{"name":"_dateofDeath","type":"string","internalType":"string"},{"name":"_registerBY","type":"address","internalType":"address"},{"name":"_citizenID","type":"string","internalType":"string"}],"outputs":[],"stateMutability":"nonpayable"},{"type":"function","name":"operatorArray","inputs":[{"name":"","type":"uint256","internalType":"uint256"}],"outputs":[{"name":"operatorAddress","type":"address","internalType":"address"},{"name":"firstName","type":"string","internalType":"string"},{"name":"lastName","type":"string","internalType":"string"},{"name":"position","type":"string","internalType":"string"},{"name":"organisation","type":"string","internalType":"string"}],"stateMutability":"view"},{"type":"function","name":"operatorMapping","inputs":[{"name":"","type":"address","internalType":"address"}],"outputs":[{"name":"operatorAddress","type":"address","internalType":"address"},{"name":"firstName","type":"string","internalType":"string"},{"name":"lastName","type":"string","internalType":"string"},{"name":"position","type":"string","internalType":"string"},{"name":"organisation","type":"string","internalType":"string"}],"stateMutability":"view"},{"type":"function","name":"revokeHealthInsurance","inputs":[{"name":"_healthInsuranceNumber","type":"string","internalType":"string"}],"outputs":[],"stateMutability":"nonpayable"},{"type":"function","name":"transactionsArray","inputs":[{"name":"","type":"uint256","internalType":"uint256"}],"outputs":[{"name":"action","type":"string","internalType":"string"},{"name":"performedBy","type":"address","internalType":"address"},{"name":"timestamp","type":"uint256","internalType":"uint256"},{"name":"status","type":"bool","internalType":"bool"}],"stateMutability":"view"},{"type":"function","name":"userArray","inputs":[{"name":"","type":"uint256","internalType":"uint256"}],"outputs":[{"name":"userAddress","type":"address","internalType":"address"},{"name":"userType","type":"string","internalType":"string"}],"stateMutability":"view"},{"type":"function","name":"userMapping","inputs":[{"name":"","type":"address","internalType":"address"}],"outputs":[{"name":"userAddress","type":"address","internalType":"address"},{"name":"userType","type":"string","internalType":"string"}],"stateMutability":"view"}],"bytecode":{"object":"0x6080604052348015600f57600080fd5b50600080546001600160a01b031916331790556144dc806100316000396000f3fe608060405234801561001057600080fd5b50600436106101e55760003560e01c806374ad48da1161010f578063d90d7c06116100a2578063e5ec9e1311610071578063e5ec9e13146104b2578063ede0a3f2146104c5578063eecc1c95146104d8578063f21bccfd146104eb57600080fd5b8063d90d7c0614610454578063d911c63214610467578063dd1209dd1461047c578063e210ecee1461048f57600080fd5b8063b231d4a5116100de578063b231d4a5146103fb578063c39dd7cb1461041b578063cd01b1031461042e578063d7d6d9461461044157600080fd5b806374ad48da1461038e5780638c694d4d146103b15780638d9b6a39146103d5578063aace8d9f146103e857600080fd5b80632bb3b114116101875780634b2fd467116101565780634b2fd467146103305780635f82ddc0146103435780636c0e1ccd146103665780637179919f1461037b57600080fd5b80632bb3b114146102bc57806336a786ec146102e757806341209af1146102fc5780634b2d18ba1461030f57600080fd5b80631d5e08dd116101c35780631d5e08dd1461025f5780632008358f1461027f57806327506f53146102945780632afe436a146102a957600080fd5b80630a4f3679146101ea578063118b9535146102165780631af4459614610237575b600080fd5b6101fd6101f83660046137b8565b6104fe565b60405161020d9493929190613844565b60405180910390f35b6102296102243660046138ae565b6106d8565b60405161020d9291906138d0565b61024a6102453660046138f4565b610787565b60405161020d9998979695949392919061390d565b61027261026d3660046138ae565b610c25565b60405161020d91906139c5565b61029261028d3660046139d8565b610d41565b005b61029c610e60565b60405161020d9190613a3f565b6102926102b73660046137b8565b610f83565b6000546102cf906001600160a01b031681565b6040516001600160a01b03909116815260200161020d565b6102ef611031565b60405161020d9190613ad9565b61022961030a3660046138f4565b611253565b61032261031d3660046138f4565b611292565b60405161020d929190613b87565b61029261033e3660046139d8565b611353565b6103566103513660046138ae565b6114b6565b60405161020d9493929190613bb5565b61036e61167f565b60405161020d9190613ce2565b610292610389366004613d3b565b611b78565b6103a161039c3660046137b8565b611d76565b604051901515815260200161020d565b6103c46103bf3660046138f4565b611e95565b60405161020d959493929190613ddd565b6103566103e33660046137b8565b612101565b6102926103f6366004613e47565b612127565b61040e6104093660046137b8565b61244e565b60405161020d9190613f57565b6102926104293660046137b8565b61296c565b6103a161043c3660046137b8565b612bcc565b61029261044f366004613f6a565b612c08565b610292610462366004614037565b612f03565b61046f613142565b60405161020d91906140c1565b61035661048a3660046138f4565b6133f6565b6104a261049d3660046138f4565b613429565b60405161020d949392919061418a565b6103c46104c03660046138ae565b613500565b61024a6104d33660046137b8565b61352c565b6102726104e63660046138ae565b61355d565b6101fd6104f93660046138f4565b613587565b8051602081830181018051600982529282019190930120915280548190610524906141c4565b80601f0160208091040260200160405190810160405280929190818152602001828054610550906141c4565b801561059d5780601f106105725761010080835404028352916020019161059d565b820191906000526020600020905b81548152906001019060200180831161058057829003601f168201915b5050505050908060010180546105b2906141c4565b80601f01602080910402602001604051908101604052809291908181526020018280546105de906141c4565b801561062b5780601f106106005761010080835404028352916020019161062b565b820191906000526020600020905b81548152906001019060200180831161060e57829003601f168201915b505050600284015460038501805494956001600160a01b03909216949193509150610655906141c4565b80601f0160208091040260200160405190810160405280929190818152602001828054610681906141c4565b80156106ce5780601f106106a3576101008083540402835291602001916106ce565b820191906000526020600020905b8154815290600101906020018083116106b157829003601f168201915b5050505050905084565b600b60205260009081526040902080546001820180546001600160a01b039092169291610704906141c4565b80601f0160208091040260200160405190810160405280929190818152602001828054610730906141c4565b801561077d5780601f106107525761010080835404028352916020019161077d565b820191906000526020600020905b81548152906001019060200180831161076057829003601f168201915b5050505050905082565b6002818154811061079757600080fd5b60009182526020909120600990910201805460018201805460ff9092169350906107c0906141c4565b80601f01602080910402602001604051908101604052809291908181526020018280546107ec906141c4565b80156108395780601f1061080e57610100808354040283529160200191610839565b820191906000526020600020905b81548152906001019060200180831161081c57829003601f168201915b50505050509080600201805461084e906141c4565b80601f016020809104026020016040519081016040528092919081815260200182805461087a906141c4565b80156108c75780601f1061089c576101008083540402835291602001916108c7565b820191906000526020600020905b8154815290600101906020018083116108aa57829003601f168201915b5050505050908060030180546108dc906141c4565b80601f0160208091040260200160405190810160405280929190818152602001828054610908906141c4565b80156109555780601f1061092a57610100808354040283529160200191610955565b820191906000526020600020905b81548152906001019060200180831161093857829003601f168201915b50505050509080600401805461096a906141c4565b80601f0160208091040260200160405190810160405280929190818152602001828054610996906141c4565b80156109e35780601f106109b8576101008083540402835291602001916109e3565b820191906000526020600020905b8154815290600101906020018083116109c657829003601f168201915b5050505050908060050180546109f8906141c4565b80601f0160208091040260200160405190810160405280929190818152602001828054610a24906141c4565b8015610a715780601f10610a4657610100808354040283529160200191610a71565b820191906000526020600020905b815481529060010190602001808311610a5457829003601f168201915b505050505090806006018054610a86906141c4565b80601f0160208091040260200160405190810160405280929190818152602001828054610ab2906141c4565b8015610aff5780601f10610ad457610100808354040283529160200191610aff565b820191906000526020600020905b815481529060010190602001808311610ae257829003601f168201915b505050505090806007018054610b14906141c4565b80601f0160208091040260200160405190810160405280929190818152602001828054610b40906141c4565b8015610b8d5780601f10610b6257610100808354040283529160200191610b8d565b820191906000526020600020905b815481529060010190602001808311610b7057829003601f168201915b505050505090806008018054610ba2906141c4565b80601f0160208091040260200160405190810160405280929190818152602001828054610bce906141c4565b8015610c1b5780601f10610bf057610100808354040283529160200191610c1b565b820191906000526020600020905b815481529060010190602001808311610bfe57829003601f168201915b5050505050905089565b6001600160a01b0381166000908152600f6020526040812080546060929190610c4d906141c4565b905011610c995760405162461bcd60e51b8152602060048201526015602482015274125b9cdd1a5d1d5d1a5bdb881b9bdd08199bdd5b99605a1b60448201526064015b60405180910390fd5b6001600160a01b0382166000908152600f602052604090208054610cbc906141c4565b80601f0160208091040260200160405190810160405280929190818152602001828054610ce8906141c4565b8015610d355780601f10610d0a57610100808354040283529160200191610d35565b820191906000526020600020905b815481529060010190602001808311610d1857829003601f168201915b50505050509050919050565b336000908152600c60205260409081902090517f12bf423bd0ec75471d3ab8f90c57b15d0246a5160f60885f1d977e218650efa491610d85916004909101906141fe565b604051809103902014610daa5760405162461bcd60e51b8152600401610c9090614273565b80600883604051610dbb91906142bd565b90815260200160405180910390206008019081610dd89190614320565b506000600e83604051610deb91906142bd565b90815260200160405180910390205490508160028281548110610e1057610e106143de565b90600052602060002090600902016008019081610e2d9190614320565b50610e5b6040518060400160405280600b81526020016a4973737565642042696d6160a81b815250336135ba565b505050565b60606007805480602002602001604051908101604052809291908181526020016000905b82821015610f7a5783829060005260206000209060040201604051806080016040529081600082018054610eb7906141c4565b80601f0160208091040260200160405190810160405280929190818152602001828054610ee3906141c4565b8015610f305780601f10610f0557610100808354040283529160200191610f30565b820191906000526020600020905b815481529060010190602001808311610f1357829003601f168201915b50505091835250506001828101546001600160a01b03166020808401919091526002840154604084015260039093015460ff16151560609092019190915291835292019101610e84565b50505050905090565b336000908152600c60205260409081902090517f016de0838bc2961b68eb6647cc5bb5b2a98fbddd09429df676142c9319284f8a91610fc7916004909101906141fe565b604051809103902014610fec5760405162461bcd60e51b8152600401610c90906143f4565b6000610ff782613679565b905060006002828154811061100e5761100e6143de565b60009182526020909120600990910201805460ff19169115159190911790555050565b60606003805480602002602001604051908101604052809291908181526020016000905b82821015610f7a5783829060005260206000209060040201604051806080016040529081600082018054611088906141c4565b80601f01602080910402602001604051908101604052809291908181526020018280546110b4906141c4565b80156111015780601f106110d657610100808354040283529160200191611101565b820191906000526020600020905b8154815290600101906020018083116110e457829003601f168201915b5050505050815260200160018201805461111a906141c4565b80601f0160208091040260200160405190810160405280929190818152602001828054611146906141c4565b80156111935780601f1061116857610100808354040283529160200191611193565b820191906000526020600020905b81548152906001019060200180831161117657829003601f168201915b505050505081526020016002820180546111ac906141c4565b80601f01602080910402602001604051908101604052809291908181526020018280546111d8906141c4565b80156112255780601f106111fa57610100808354040283529160200191611225565b820191906000526020600020905b81548152906001019060200180831161120857829003601f168201915b5050509183525050600391909101546001600160a01b03166020918201529082526001929092019101611055565b6006818154811061126357600080fd5b6000918252602090912060029091020180546001820180546001600160a01b03909216935090610704906141c4565b600581815481106112a257600080fd5b90600052602060002090600202016000915090508060000180546112c5906141c4565b80601f01602080910402602001604051908101604052809291908181526020018280546112f1906141c4565b801561133e5780601f106113135761010080835404028352916020019161133e565b820191906000526020600020905b81548152906001019060200180831161132157829003601f168201915b505050505090806001018054610704906141c4565b336000908152600c60205260409081902090517f2ee849165787502e9fe6ba19fa67a8e4032d2d34965e1867eb708bb3936eae4291611397916004909101906141fe565b6040518091039020146113ff5760405162461bcd60e51b815260206004820152602a60248201527f4f6e6c79204e494441206f70657261746f72732063616e2063616c6c207468696044820152693990333ab731ba34b7b760b11b6064820152608401610c90565b8060088360405161141091906142bd565b9081526020016040518091039020600501908161142d9190614320565b506000600e8360405161144091906142bd565b90815260200160405180910390205490508160028281548110611465576114656143de565b906000526020600020906009020160050190816114829190614320565b50610e5b60405180604001604052806011815260200170125cdcdd59590810da5d1a5e995b881251607a1b815250336135ba565b600f602052600090815260409020805481906114d1906141c4565b80601f01602080910402602001604051908101604052809291908181526020018280546114fd906141c4565b801561154a5780601f1061151f5761010080835404028352916020019161154a565b820191906000526020600020905b81548152906001019060200180831161152d57829003601f168201915b50505050509080600101805461155f906141c4565b80601f016020809104026020016040519081016040528092919081815260200182805461158b906141c4565b80156115d85780601f106115ad576101008083540402835291602001916115d8565b820191906000526020600020905b8154815290600101906020018083116115bb57829003601f168201915b5050505050908060020180546115ed906141c4565b80601f0160208091040260200160405190810160405280929190818152602001828054611619906141c4565b80156116665780601f1061163b57610100808354040283529160200191611666565b820191906000526020600020905b81548152906001019060200180831161164957829003601f168201915b505050600390930154919250506001600160a01b031684565b60606002805480602002602001604051908101604052809291908181526020016000905b82821015610f7a57600084815260209081902060408051610120810190915260098502909101805460ff161515825260018101805492939192918401916116e9906141c4565b80601f0160208091040260200160405190810160405280929190818152602001828054611715906141c4565b80156117625780601f1061173757610100808354040283529160200191611762565b820191906000526020600020905b81548152906001019060200180831161174557829003601f168201915b5050505050815260200160028201805461177b906141c4565b80601f01602080910402602001604051908101604052809291908181526020018280546117a7906141c4565b80156117f45780601f106117c9576101008083540402835291602001916117f4565b820191906000526020600020905b8154815290600101906020018083116117d757829003601f168201915b5050505050815260200160038201805461180d906141c4565b80601f0160208091040260200160405190810160405280929190818152602001828054611839906141c4565b80156118865780601f1061185b57610100808354040283529160200191611886565b820191906000526020600020905b81548152906001019060200180831161186957829003601f168201915b5050505050815260200160048201805461189f906141c4565b80601f01602080910402602001604051908101604052809291908181526020018280546118cb906141c4565b80156119185780601f106118ed57610100808354040283529160200191611918565b820191906000526020600020905b8154815290600101906020018083116118fb57829003601f168201915b50505050508152602001600582018054611931906141c4565b80601f016020809104026020016040519081016040528092919081815260200182805461195d906141c4565b80156119aa5780601f1061197f576101008083540402835291602001916119aa565b820191906000526020600020905b81548152906001019060200180831161198d57829003601f168201915b505050505081526020016006820180546119c3906141c4565b80601f01602080910402602001604051908101604052809291908181526020018280546119ef906141c4565b8015611a3c5780601f10611a1157610100808354040283529160200191611a3c565b820191906000526020600020905b815481529060010190602001808311611a1f57829003601f168201915b50505050508152602001600782018054611a55906141c4565b80601f0160208091040260200160405190810160405280929190818152602001828054611a81906141c4565b8015611ace5780601f10611aa357610100808354040283529160200191611ace565b820191906000526020600020905b815481529060010190602001808311611ab157829003601f168201915b50505050508152602001600882018054611ae7906141c4565b80601f0160208091040260200160405190810160405280929190818152602001828054611b13906141c4565b8015611b605780601f10611b3557610100808354040283529160200191611b60565b820191906000526020600020905b815481529060010190602001808311611b4357829003601f168201915b505050505081525050815260200190600101906116a3565b336000908152600c60205260409081902090517f016de0838bc2961b68eb6647cc5bb5b2a98fbddd09429df676142c9319284f8a91611bbc916004909101906141fe565b604051809103902014611be15760405162461bcd60e51b8152600401610c90906143f4565b60408051608081018252858152602081018590526001600160a01b0384169181019190915260608101829052600180548082018255600091909152815182916004027fb10e2d527612073b26eecdfd717e6a320cf44b4afac2b0732d9fcbe2b7fa0cf601908190611c529082614320565b5060208201516001820190611c679082614320565b5060408201516002820180546001600160a01b0319166001600160a01b0390921691909117905560608201516003820190611ca29082614320565b50505080600983604051611cb691906142bd565b90815260405190819003602001902081518190611cd39082614320565b5060208201516001820190611ce89082614320565b5060408201516002820180546001600160a01b0319166001600160a01b0390921691909117905560608201516003820190611d239082614320565b50905050611d3082610f83565b611d6f6040518060400160405280601781526020017f4973737565642044656174684365727469666963617465000000000000000000815250336135ba565b5050505050565b336000908152600c602052604080822090517f12bf423bd0ec75471d3ab8f90c57b15d0246a5160f60885f1d977e218650efa491611db9916004909101906141fe565b604051809103902014611dde5760405162461bcd60e51b8152600401610c9090614273565b60005b600254811015611e7757828051906020012060028281548110611e0657611e066143de565b9060005260206000209060090201600801604051611e2491906141fe565b604051809103902003611e6f5760028181548110611e4457611e446143de565b600091825260209091206009909102015460ff1615611e665750600192915050565b50600092915050565b600101611de1565b5060405162461bcd60e51b8152600401610c909061443e565b919050565b60048181548110611ea557600080fd5b6000918252602090912060059091020180546001820180546001600160a01b03909216935090611ed4906141c4565b80601f0160208091040260200160405190810160405280929190818152602001828054611f00906141c4565b8015611f4d5780601f10611f2257610100808354040283529160200191611f4d565b820191906000526020600020905b815481529060010190602001808311611f3057829003601f168201915b505050505090806002018054611f62906141c4565b80601f0160208091040260200160405190810160405280929190818152602001828054611f8e906141c4565b8015611fdb5780601f10611fb057610100808354040283529160200191611fdb565b820191906000526020600020905b815481529060010190602001808311611fbe57829003601f168201915b505050505090806003018054611ff0906141c4565b80601f016020809104026020016040519081016040528092919081815260200182805461201c906141c4565b80156120695780601f1061203e57610100808354040283529160200191612069565b820191906000526020600020905b81548152906001019060200180831161204c57829003601f168201915b50505050509080600401805461207e906141c4565b80601f01602080910402602001604051908101604052809291908181526020018280546120aa906141c4565b80156120f75780601f106120cc576101008083540402835291602001916120f7565b820191906000526020600020905b8154815290600101906020018083116120da57829003601f168201915b5050505050905085565b8051602081830181018051600a825292820191909301209152805481906114d1906141c4565b336000908152600c60205260409081902090517f016de0838bc2961b68eb6647cc5bb5b2a98fbddd09429df676142c9319284f8a9161216b916004909101906141fe565b6040518091039020146121905760405162461bcd60e51b8152600401610c90906143f4565b60006040518061012001604052806001151581526020018881526020018681526020018781526020018581526020016040518060200160405280600081525081526020018481526020018381526020016040518060200160405280600081525081525090508060088660405161220691906142bd565b908152604051602091819003820190208251815460ff19169015151781559082015160018201906122379082614320565b506040820151600282019061224c9082614320565b50606082015160038201906122619082614320565b50608082015160048201906122769082614320565b5060a0820151600582019061228b9082614320565b5060c082015160068201906122a09082614320565b5060e082015160078201906122b59082614320565b5061010082015160088201906122cb9082614320565b50506002805460018101825560009190915282517f405787fa12a823e0f2b7631cc41b3ba8828b3321ca811111fa75cd3aa3bb5ace6009909202918201805460ff1916911515919091178155602084015184935090917f405787fa12a823e0f2b7631cc41b3ba8828b3321ca811111fa75cd3aa3bb5acf019061234e9082614320565b50604082015160028201906123639082614320565b50606082015160038201906123789082614320565b506080820151600482019061238d9082614320565b5060a082015160058201906123a29082614320565b5060c082015160068201906123b79082614320565b5060e082015160078201906123cc9082614320565b5061010082015160088201906123e29082614320565b50506002546123f4915060019061447f565b600e8660405161240491906142bd565b9081526020016040518091039020819055506124456040518060400160405280600d81526020016c20b23232b21031b4ba34bd32b760991b815250336135ba565b50505050505050565b61249f60405180610120016040528060001515815260200160608152602001606081526020016060815260200160608152602001606081526020016060815260200160608152602001606081525090565b6008826040516124af91906142bd565b9081526040805191829003602090810183206101208401909252815460ff1615158352600182018054918401916124e5906141c4565b80601f0160208091040260200160405190810160405280929190818152602001828054612511906141c4565b801561255e5780601f106125335761010080835404028352916020019161255e565b820191906000526020600020905b81548152906001019060200180831161254157829003601f168201915b50505050508152602001600282018054612577906141c4565b80601f01602080910402602001604051908101604052809291908181526020018280546125a3906141c4565b80156125f05780601f106125c5576101008083540402835291602001916125f0565b820191906000526020600020905b8154815290600101906020018083116125d357829003601f168201915b50505050508152602001600382018054612609906141c4565b80601f0160208091040260200160405190810160405280929190818152602001828054612635906141c4565b80156126825780601f1061265757610100808354040283529160200191612682565b820191906000526020600020905b81548152906001019060200180831161266557829003601f168201915b5050505050815260200160048201805461269b906141c4565b80601f01602080910402602001604051908101604052809291908181526020018280546126c7906141c4565b80156127145780601f106126e957610100808354040283529160200191612714565b820191906000526020600020905b8154815290600101906020018083116126f757829003601f168201915b5050505050815260200160058201805461272d906141c4565b80601f0160208091040260200160405190810160405280929190818152602001828054612759906141c4565b80156127a65780601f1061277b576101008083540402835291602001916127a6565b820191906000526020600020905b81548152906001019060200180831161278957829003601f168201915b505050505081526020016006820180546127bf906141c4565b80601f01602080910402602001604051908101604052809291908181526020018280546127eb906141c4565b80156128385780601f1061280d57610100808354040283529160200191612838565b820191906000526020600020905b81548152906001019060200180831161281b57829003601f168201915b50505050508152602001600782018054612851906141c4565b80601f016020809104026020016040519081016040528092919081815260200182805461287d906141c4565b80156128ca5780601f1061289f576101008083540402835291602001916128ca565b820191906000526020600020905b8154815290600101906020018083116128ad57829003601f168201915b505050505081526020016008820180546128e3906141c4565b80601f016020809104026020016040519081016040528092919081815260200182805461290f906141c4565b801561295c5780601f106129315761010080835404028352916020019161295c565b820191906000526020600020905b81548152906001019060200180831161293f57829003601f168201915b5050505050815250509050919050565b336000908152600c60205260409081902090517f12bf423bd0ec75471d3ab8f90c57b15d0246a5160f60885f1d977e218650efa4916129b0916004909101906141fe565b6040518091039020146129d55760405162461bcd60e51b8152600401610c9090614273565b6000805b600254811015612baa578280519060200120600282815481106129fe576129fe6143de565b9060005260206000209060090201600801604051612a1c91906141fe565b604051809103902003612ba2576040518060200160405280600081525060028281548110612a4c57612a4c6143de565b90600052602060002090600902016008019081612a699190614320565b50600060028281548110612a7f57612a7f6143de565b90600052602060002090600902016002018054612a9b906141c4565b80601f0160208091040260200160405190810160405280929190818152602001828054612ac7906141c4565b8015612b145780601f10612ae957610100808354040283529160200191612b14565b820191906000526020600020905b815481529060010190602001808311612af757829003601f168201915b5050505050905060405180602001604052806000815250600882604051612b3b91906142bd565b90815260200160405180910390206008019081612b589190614320565b50612b986040518060400160405280601881526020017f5265766f6b6564204865616c746820496e737572616e63650000000000000000815250336135ba565b6001925050612baa565b6001016129d9565b5080612bc85760405162461bcd60e51b8152600401610c909061443e565b5050565b600080612bd883613679565b905060028181548110612bed57612bed6143de565b600091825260209091206009909102015460ff169392505050565b6000546001600160a01b03163314612c585760405162461bcd60e51b815260206004820152601360248201527227b7363c9031b7b73a3930b1ba1037bbb732b960691b6044820152606401610c90565b6040805160a0810182526001600160a01b03851680825260208083018990528284018890526060830186905260808301859052835180850185528281528451808601865260088082526737b832b930ba37b960c11b8285018190528385019290925286518088018852908152808401919091526000938452600b9092529390912091929160010190612cea9082614320565b506006805460018101825560009190915281517ff652222313e28459528d920b65115c16c04f3efc82aaedc97be59f3f377c0d3f600290920291820180546001600160a01b0319166001600160a01b03909216919091178155602083015183927ff652222313e28459528d920b65115c16c04f3efc82aaedc97be59f3f377c0d400190612d779082614320565b5050506001600160a01b038581166000908152600c60209081526040909120845181546001600160a01b03191693169290921782558301518391906001820190612dc19082614320565b5060408201516002820190612dd69082614320565b5060608201516003820190612deb9082614320565b5060808201516004820190612e009082614320565b50506004805460018101825560009190915283517f8a35acfbc15ff81a39ae7d344fd709f28e8600b4aa8c65c6b64bfe7fe36bd19b600590920291820180546001600160a01b0319166001600160a01b03909216919091178155602085015185935090917f8a35acfbc15ff81a39ae7d344fd709f28e8600b4aa8c65c6b64bfe7fe36bd19c0190612e919082614320565b5060408201516002820190612ea69082614320565b5060608201516003820190612ebb9082614320565b5060808201516004820190612ed09082614320565b5050506124456040518060400160405280600e81526020016d20b23232b21027b832b930ba37b960911b815250336135ba565b6000546001600160a01b03163314612f535760405162461bcd60e51b815260206004820152601360248201527227b7363c9031b7b73a3930b1ba1037bbb732b960691b6044820152606401610c90565b60408051608081018252858152602081018390529081018390526001600160a01b038416606082015260038054600181018255600091909152815182916004027fc2575a0e9e593c00f959f8c92f12db2869c3395a3b0502d05e2516446f71f85b01908190612fc29082614320565b5060208201516001820190612fd79082614320565b5060408201516002820190612fec9082614320565b5060608201518160030160006101000a8154816001600160a01b0302191690836001600160a01b03160217905550505080600a8360405161302d91906142bd565b9081526040519081900360200190208151819061304a9082614320565b506020820151600182019061305f9082614320565b50604082015160028201906130749082614320565b5060609190910151600390910180546001600160a01b0319166001600160a01b0392831617905584166000908152600f60205260409020815182919081906130bc9082614320565b50602082015160018201906130d19082614320565b50604082015160028201906130e69082614320565b5060609190910151600390910180546001600160a01b0319166001600160a01b0390921691909117905560408051808201909152601181527020b23232b21024b739ba34ba3aba34b7b760791b6020820152611d6f90336135ba565b60606004805480602002602001604051908101604052809291908181526020016000905b82821015610f7a5760008481526020908190206040805160a081019091526005850290910180546001600160a01b0316825260018101805492939192918401916131af906141c4565b80601f01602080910402602001604051908101604052809291908181526020018280546131db906141c4565b80156132285780601f106131fd57610100808354040283529160200191613228565b820191906000526020600020905b81548152906001019060200180831161320b57829003601f168201915b50505050508152602001600282018054613241906141c4565b80601f016020809104026020016040519081016040528092919081815260200182805461326d906141c4565b80156132ba5780601f1061328f576101008083540402835291602001916132ba565b820191906000526020600020905b81548152906001019060200180831161329d57829003601f168201915b505050505081526020016003820180546132d3906141c4565b80601f01602080910402602001604051908101604052809291908181526020018280546132ff906141c4565b801561334c5780601f106133215761010080835404028352916020019161334c565b820191906000526020600020905b81548152906001019060200180831161332f57829003601f168201915b50505050508152602001600482018054613365906141c4565b80601f0160208091040260200160405190810160405280929190818152602001828054613391906141c4565b80156133de5780601f106133b3576101008083540402835291602001916133de565b820191906000526020600020905b8154815290600101906020018083116133c157829003601f168201915b50505050508152505081526020019060010190613166565b6003818154811061340657600080fd5b90600052602060002090600402016000915090508060000180546114d1906141c4565b6007818154811061343957600080fd5b906000526020600020906004020160009150905080600001805461345c906141c4565b80601f0160208091040260200160405190810160405280929190818152602001828054613488906141c4565b80156134d55780601f106134aa576101008083540402835291602001916134d5565b820191906000526020600020905b8154815290600101906020018083116134b857829003601f168201915b505050506001830154600284015460039094015492936001600160a01b039091169290915060ff1684565b600c60205260009081526040902080546001820180546001600160a01b039092169291611ed4906141c4565b80516020818301810180516008825292820191909301209152805460018201805460ff90921692916107c0906141c4565b6001600160a01b0381166000908152600c60205260409020600401805460609190610cbc906141c4565b6001818154811061359757600080fd5b9060005260206000209060040201600091509050806000018054610524906141c4565b604080516080810182528381526001600160a01b03831660208201524291810191909152600160608201819052600780549182018155600052815182916004027fa66cc928b5edb82af9bd49922954155ab7b0942694bea4ce44661d9a8736c688019081906136299082614320565b5060208201516001820180546001600160a01b0319166001600160a01b03909216919091179055604082015160028201556060909101516003909101805460ff1916911515919091179055505050565b6000805b6002548110156136db578280519060200120600282815481106136a2576136a26143de565b90600052602060002090600902016005016040516136c091906141fe565b6040518091039020036136d35792915050565b60010161367d565b5060405162461bcd60e51b815260206004820152600e60248201526d155cd95c881b9bdd08199bdd5b9960921b6044820152606401610c90565b634e487b7160e01b600052604160045260246000fd5b600082601f83011261373c57600080fd5b81356001600160401b0381111561375557613755613715565b604051601f8201601f19908116603f011681016001600160401b038111828210171561378357613783613715565b60405281815283820160200185101561379b57600080fd5b816020850160208301376000918101602001919091529392505050565b6000602082840312156137ca57600080fd5b81356001600160401b038111156137e057600080fd5b6137ec8482850161372b565b949350505050565b60005b8381101561380f5781810151838201526020016137f7565b50506000910152565b600081518084526138308160208601602086016137f4565b601f01601f19169290920160200192915050565b6080815260006138576080830187613818565b82810360208401526138698187613818565b6001600160a01b03861660408501528381036060850152905061388c8185613818565b979650505050505050565b80356001600160a01b0381168114611e9057600080fd5b6000602082840312156138c057600080fd5b6138c982613897565b9392505050565b6001600160a01b03831681526040602082018190526000906137ec90830184613818565b60006020828403121561390657600080fd5b5035919050565b89151581526101206020820152600061392a61012083018b613818565b828103604084015261393c818b613818565b90508281036060840152613950818a613818565b905082810360808401526139648189613818565b905082810360a08401526139788188613818565b905082810360c084015261398c8187613818565b905082810360e08401526139a08186613818565b90508281036101008401526139b58185613818565b9c9b505050505050505050505050565b6020815260006138c96020830184613818565b600080604083850312156139eb57600080fd5b82356001600160401b03811115613a0157600080fd5b613a0d8582860161372b565b92505060208301356001600160401b03811115613a2957600080fd5b613a358582860161372b565b9150509250929050565b6000602082016020835280845180835260408501915060408160051b86010192506020860160005b82811015613acd57603f198786030184528151805160808752613a8d6080880182613818565b6020838101516001600160a01b031689820152604080850151908a0152606093840151151593909801929092525094938401939190910190600101613a67565b50929695505050505050565b6000602082016020835280845180835260408501915060408160051b86010192506020860160005b82811015613acd57603f198786030184528151805160808752613b276080880182613818565b905060208201518782036020890152613b408282613818565b91505060408201518782036040890152613b5a8282613818565b6060938401516001600160a01b031698909301979097525094506020938401939190910190600101613b01565b604081526000613b9a6040830185613818565b8281036020840152613bac8185613818565b95945050505050565b608081526000613bc86080830187613818565b8281036020840152613bda8187613818565b90508281036040840152613bee8186613818565b91505060018060a01b038316606083015295945050505050565b805115158252600060208201516101206020850152613c2b610120850182613818565b905060408301518482036040860152613c448282613818565b91505060608301518482036060860152613c5e8282613818565b91505060808301518482036080860152613c788282613818565b91505060a083015184820360a0860152613c928282613818565b91505060c083015184820360c0860152613cac8282613818565b91505060e083015184820360e0860152613cc68282613818565b915050610100830151848203610100860152613bac8282613818565b6000602082016020835280845180835260408501915060408160051b86010192506020860160005b82811015613acd57603f19878603018452613d26858351613c08565b94506020938401939190910190600101613d0a565b60008060008060808587031215613d5157600080fd5b84356001600160401b03811115613d6757600080fd5b613d738782880161372b565b94505060208501356001600160401b03811115613d8f57600080fd5b613d9b8782880161372b565b935050613daa60408601613897565b915060608501356001600160401b03811115613dc557600080fd5b613dd18782880161372b565b91505092959194509250565b6001600160a01b038616815260a060208201819052600090613e0190830187613818565b8281036040840152613e138187613818565b90508281036060840152613e278186613818565b90508281036080840152613e3b8185613818565b98975050505050505050565b60008060008060008060c08789031215613e6057600080fd5b86356001600160401b03811115613e7657600080fd5b613e8289828a0161372b565b96505060208701356001600160401b03811115613e9e57600080fd5b613eaa89828a0161372b565b95505060408701356001600160401b03811115613ec657600080fd5b613ed289828a0161372b565b94505060608701356001600160401b03811115613eee57600080fd5b613efa89828a0161372b565b93505060808701356001600160401b03811115613f1657600080fd5b613f2289828a0161372b565b92505060a08701356001600160401b03811115613f3e57600080fd5b613f4a89828a0161372b565b9150509295509295509295565b6020815260006138c96020830184613c08565b600080600080600060a08688031215613f8257600080fd5b85356001600160401b03811115613f9857600080fd5b613fa48882890161372b565b95505060208601356001600160401b03811115613fc057600080fd5b613fcc8882890161372b565b945050613fdb60408701613897565b925060608601356001600160401b03811115613ff657600080fd5b6140028882890161372b565b92505060808601356001600160401b0381111561401e57600080fd5b61402a8882890161372b565b9150509295509295909350565b6000806000806080858703121561404d57600080fd5b84356001600160401b0381111561406357600080fd5b61406f8782880161372b565b94505061407e60208601613897565b925060408501356001600160401b0381111561409957600080fd5b6140a58782880161372b565b92505060608501356001600160401b03811115613dc557600080fd5b6000602082016020835280845180835260408501915060408160051b86010192506020860160005b82811015613acd57868503603f19018452815180516001600160a01b0316865260208082015160a09188018290529061412490880182613818565b90506040820151878203604089015261413d8282613818565b915050606082015187820360608901526141578282613818565b9150506080820151915086810360808801526141738183613818565b9650505060209384019391909101906001016140e9565b60808152600061419d6080830187613818565b6001600160a01b039590951660208301525060408101929092521515606090910152919050565b600181811c908216806141d857607f821691505b6020821081036141f857634e487b7160e01b600052602260045260246000fd5b50919050565b600080835461420c816141c4565b600182168015614223576001811461423857614268565b60ff1983168652811515820286019350614268565b86600052602060002060005b8381101561426057815488820152600190910190602001614244565b505081860193505b509195945050505050565b6020808252602a908201527f4f6e6c79204e484946206f70657261746f72732063616e2063616c6c207468696040820152693990333ab731ba34b7b760b11b606082015260800190565b600082516142cf8184602087016137f4565b9190910192915050565b601f821115610e5b57806000526020600020601f840160051c810160208510156143005750805b601f840160051c820191505b81811015611d6f576000815560010161430c565b81516001600160401b0381111561433957614339613715565b61434d8161434784546141c4565b846142d9565b6020601f82116001811461438157600083156143695750848201515b600019600385901b1c1916600184901b178455611d6f565b600084815260208120601f198516915b828110156143b15787850151825560209485019460019092019101614391565b50848210156143cf5786840151600019600387901b60f8161c191681555b50505050600190811b01905550565b634e487b7160e01b600052603260045260246000fd5b6020808252602a908201527f4f6e6c792052495441206f70657261746f72732063616e2063616c6c207468696040820152693990333ab731ba34b7b760b11b606082015260800190565b60208082526021908201527f4865616c746820696e737572616e6365206e756d626572206e6f7420666f756e6040820152601960fa1b606082015260800190565b818103818111156144a057634e487b7160e01b600052601160045260246000fd5b9291505056fea2646970667358221220678f9a508884e265ff9884fe1b677db29296f2cc6960b0199365fdb74de3dd1464736f6c634300081a0033","linkReferences":{}},"methodIdentifiers":{"Login(address)":"eecc1c95","_contractOwner()":"2bb3b114","addCitizen(string,string,string,string,string,string)":"aace8d9f","addInstitution(string,address,string,string)":"d90d7c06","addOperator(string,string,address,string,string)":"d7d6d946","announceDeath(string)":"2afe436a","checkHealthInsuranceStatusByNumber(string)":"74ad48da","citizenArray(uint256)":"1af44596","citizenMapping(string)":"ede0a3f2","deathCertificateArray(uint256)":"f21bccfd","deathcertificateMapping(string)":"0a4f3679","getAllCitizens()":"6c0e1ccd","getAllInstitution()":"36a786ec","getAllOperators()":"d911c632","getAllTransactions()":"27506f53","getCitizenData(string)":"b231d4a5","getInstitutionNameByAddress(address)":"1d5e08dd","identityArray(uint256)":"4b2d18ba","institutionAddressMapping(address)":"5f82ddc0","institutionArray(uint256)":"dd1209dd","institutionMapping(string)":"8d9b6a39","isCitizenAlive(string)":"cd01b103","issueBima(string,string)":"2008358f","issueCitizenId(string,string)":"4b2fd467","issueDeathCertificate(string,string,address,string)":"7179919f","operatorArray(uint256)":"8c694d4d","operatorMapping(address)":"e5ec9e13","revokeHealthInsurance(string)":"c39dd7cb","transactionsArray(uint256)":"e210ecee","userArray(uint256)":"41209af1","userMapping(address)":"118b9535"},"id":17}