{"abi":[{"type":"constructor","inputs":[],"stateMutability":"nonpayable"},{"type":"function","name":"Login","inputs":[{"name":"_userAddress","type":"address","internalType":"address"}],"outputs":[{"name":"","type":"string","internalType":"string"}],"stateMutability":"view"},{"type":"function","name":"_contractOwner","inputs":[],"outputs":[{"name":"","type":"address","internalType":"address"}],"stateMutability":"view"},{"type":"function","name":"addCitizen","inputs":[{"name":"_firstName","type":"string","internalType":"string"},{"name":"_middleName","type":"string","internalType":"string"},{"name":"_birthCertificateNo","type":"string","internalType":"string"},{"name":"_lastName","type":"string","internalType":"string"},{"name":"_gender","type":"string","internalType":"string"},{"name":"_dateofBirth","type":"string","internalType":"string"}],"outputs":[],"stateMutability":"nonpayable"},{"type":"function","name":"addInstitution","inputs":[{"name":"_instutionName","type":"string","internalType":"string"},{"name":"_orgAddress","type":"address","internalType":"address"},{"name":"_orgType","type":"string","internalType":"string"},{"name":"_abbreviation","type":"string","internalType":"string"}],"outputs":[],"stateMutability":"nonpayable"},{"type":"function","name":"addOperator","inputs":[{"name":"_firstName","type":"string","internalType":"string"},{"name":"_lastName","type":"string","internalType":"string"},{"name":"_operatorAddress","type":"address","internalType":"address"},{"name":"_position","type":"string","internalType":"string"},{"name":"_organisation","type":"string","internalType":"string"}],"outputs":[],"stateMutability":"nonpayable"},{"type":"function","name":"announceDeath","inputs":[{"name":"_citizenId","type":"string","internalType":"string"}],"outputs":[],"stateMutability":"nonpayable"},{"type":"function","name":"checkHealthInsuranceStatusByNumber","inputs":[{"name":"_healthInsuranceNumber","type":"string","internalType":"string"}],"outputs":[{"name":"","type":"bool","internalType":"bool"}],"stateMutability":"view"},{"type":"function","name":"citizenArray","inputs":[{"name":"","type":"uint256","internalType":"uint256"}],"outputs":[{"name":"citizenStatus","type":"bool","internalType":"bool"},{"name":"firstName","type":"string","internalType":"string"},{"name":"birthCertificateNo","type":"string","internalType":"string"},{"name":"middleName","type":"string","internalType":"string"},{"name":"lastName","type":"string","internalType":"string"},{"name":"citizenId","type":"string","internalType":"string"},{"name":"gender","type":"string","internalType":"string"},{"name":"dateofBirth","type":"string","internalType":"string"},{"name":"healthInsuarance","type":"string","internalType":"string"}],"stateMutability":"view"},{"type":"function","name":"citizenMapping","inputs":[{"name":"","type":"string","internalType":"string"}],"outputs":[{"name":"citizenStatus","type":"bool","internalType":"bool"},{"name":"firstName","type":"string","internalType":"string"},{"name":"birthCertificateNo","type":"string","internalType":"string"},{"name":"middleName","type":"string","internalType":"string"},{"name":"lastName","type":"string","internalType":"string"},{"name":"citizenId","type":"string","internalType":"string"},{"name":"gender","type":"string","internalType":"string"},{"name":"dateofBirth","type":"string","internalType":"string"},{"name":"healthInsuarance","type":"string","internalType":"string"}],"stateMutability":"view"},{"type":"function","name":"deathCertificateArray","inputs":[{"name":"","type":"uint256","internalType":"uint256"}],"outputs":[{"name":"causeOfDeath","type":"string","internalType":"string"},{"name":"dateofDeath","type":"string","internalType":"string"},{"name":"registerBY","type":"address","internalType":"address"},{"name":"citizenID","type":"string","internalType":"string"}],"stateMutability":"view"},{"type":"function","name":"deathcertificateMapping","inputs":[{"name":"","type":"string","internalType":"string"}],"outputs":[{"name":"causeOfDeath","type":"string","internalType":"string"},{"name":"dateofDeath","type":"string","internalType":"string"},{"name":"registerBY","type":"address","internalType":"address"},{"name":"citizenID","type":"string","internalType":"string"}],"stateMutability":"view"},{"type":"function","name":"getAllCitizens","inputs":[],"outputs":[{"name":"","type":"tuple[]","internalType":"struct IdentityGateway.Citizen[]","components":[{"name":"citizenStatus","type":"bool","internalType":"bool"},{"name":"firstName","type":"string","internalType":"string"},{"name":"birthCertificateNo","type":"string","internalType":"string"},{"name":"middleName","type":"string","internalType":"string"},{"name":"lastName","type":"string","internalType":"string"},{"name":"citizenId","type":"string","internalType":"string"},{"name":"gender","type":"string","internalType":"string"},{"name":"dateofBirth","type":"string","internalType":"string"},{"name":"healthInsuarance","type":"string","internalType":"string"}]}],"stateMutability":"view"},{"type":"function","name":"getAllInstitution","inputs":[],"outputs":[{"name":"","type":"tuple[]","internalType":"struct IdentityGateway.Institution[]","components":[{"name":"instutionName","type":"string","internalType":"string"},{"name":"abbreviation","type":"string","internalType":"string"},{"name":"orgType","type":"string","internalType":"string"},{"name":"orgAddress","type":"address","internalType":"address"}]}],"stateMutability":"view"},{"type":"function","name":"getAllOperators","inputs":[],"outputs":[{"name":"","type":"tuple[]","internalType":"struct IdentityGateway.Operator[]","components":[{"name":"operatorAddress","type":"address","internalType":"address"},{"name":"firstName","type":"string","internalType":"string"},{"name":"lastName","type":"string","internalType":"string"},{"name":"position","type":"string","internalType":"string"},{"name":"organisation","type":"string","internalType":"string"}]}],"stateMutability":"view"},{"type":"function","name":"getAllTransactions","inputs":[],"outputs":[{"name":"","type":"tuple[]","internalType":"struct IdentityGateway.Transaction[]","components":[{"name":"action","type":"string","internalType":"string"},{"name":"performedBy","type":"address","internalType":"address"},{"name":"timestamp","type":"uint256","internalType":"uint256"},{"name":"status","type":"bool","internalType":"bool"}]}],"stateMutability":"view"},{"type":"function","name":"getCitizenData","inputs":[{"name":"_birthCertificateNo","type":"string","internalType":"string"}],"outputs":[{"name":"","type":"tuple","internalType":"struct IdentityGateway.Citizen","components":[{"name":"citizenStatus","type":"bool","internalType":"bool"},{"name":"firstName","type":"string","internalType":"string"},{"name":"birthCertificateNo","type":"string","internalType":"string"},{"name":"middleName","type":"string","internalType":"string"},{"name":"lastName","type":"string","internalType":"string"},{"name":"citizenId","type":"string","internalType":"string"},{"name":"gender","type":"string","internalType":"string"},{"name":"dateofBirth","type":"string","internalType":"string"},{"name":"healthInsuarance","type":"string","internalType":"string"}]}],"stateMutability":"view"},{"type":"function","name":"getInstitutionNameByAddress","inputs":[{"name":"_orgAddress","type":"address","internalType":"address"}],"outputs":[{"name":"","type":"string","internalType":"string"}],"stateMutability":"view"},{"type":"function","name":"identityArray","inputs":[{"name":"","type":"uint256","internalType":"uint256"}],"outputs":[{"name":"idType","type":"string","internalType":"string"},{"name":"documentCid","type":"string","internalType":"string"}],"stateMutability":"view"},{"type":"function","name":"institutionAddressMapping","inputs":[{"name":"","type":"address","internalType":"address"}],"outputs":[{"name":"instutionName","type":"string","internalType":"string"},{"name":"abbreviation","type":"string","internalType":"string"},{"name":"orgType","type":"string","internalType":"string"},{"name":"orgAddress","type":"address","internalType":"address"}],"stateMutability":"view"},{"type":"function","name":"institutionArray","inputs":[{"name":"","type":"uint256","internalType":"uint256"}],"outputs":[{"name":"instutionName","type":"string","internalType":"string"},{"name":"abbreviation","type":"string","internalType":"string"},{"name":"orgType","type":"string","internalType":"string"},{"name":"orgAddress","type":"address","internalType":"address"}],"stateMutability":"view"},{"type":"function","name":"institutionMapping","inputs":[{"name":"","type":"string","internalType":"string"}],"outputs":[{"name":"instutionName","type":"string","internalType":"string"},{"name":"abbreviation","type":"string","internalType":"string"},{"name":"orgType","type":"string","internalType":"string"},{"name":"orgAddress","type":"address","internalType":"address"}],"stateMutability":"view"},{"type":"function","name":"isCitizenAlive","inputs":[{"name":"_citizenId","type":"string","internalType":"string"}],"outputs":[{"name":"","type":"bool","internalType":"bool"}],"stateMutability":"view"},{"type":"function","name":"issueCitizenId","inputs":[{"name":"_birthCertificateNo","type":"string","internalType":"string"},{"name":"_citizenId","type":"string","internalType":"string"}],"outputs":[],"stateMutability":"nonpayable"},{"type":"function","name":"issueDeathCertificate","inputs":[{"name":"_causeOfDeath","type":"string","internalType":"string"},{"name":"_dateofDeath","type":"string","internalType":"string"},{"name":"_registerBY","type":"address","internalType":"address"},{"name":"_citizenID","type":"string","internalType":"string"}],"outputs":[],"stateMutability":"nonpayable"},{"type":"function","name":"operatorArray","inputs":[{"name":"","type":"uint256","internalType":"uint256"}],"outputs":[{"name":"operatorAddress","type":"address","internalType":"address"},{"name":"firstName","type":"string","internalType":"string"},{"name":"lastName","type":"string","internalType":"string"},{"name":"position","type":"string","internalType":"string"},{"name":"organisation","type":"string","internalType":"string"}],"stateMutability":"view"},{"type":"function","name":"operatorMapping","inputs":[{"name":"","type":"address","internalType":"address"}],"outputs":[{"name":"operatorAddress","type":"address","internalType":"address"},{"name":"firstName","type":"string","internalType":"string"},{"name":"lastName","type":"string","internalType":"string"},{"name":"position","type":"string","internalType":"string"},{"name":"organisation","type":"string","internalType":"string"}],"stateMutability":"view"},{"type":"function","name":"transactionsArray","inputs":[{"name":"","type":"uint256","internalType":"uint256"}],"outputs":[{"name":"action","type":"string","internalType":"string"},{"name":"performedBy","type":"address","internalType":"address"},{"name":"timestamp","type":"uint256","internalType":"uint256"},{"name":"status","type":"bool","internalType":"bool"}],"stateMutability":"view"},{"type":"function","name":"userArray","inputs":[{"name":"","type":"uint256","internalType":"uint256"}],"outputs":[{"name":"userAddress","type":"address","internalType":"address"},{"name":"userType","type":"string","internalType":"string"}],"stateMutability":"view"},{"type":"function","name":"userMapping","inputs":[{"name":"","type":"address","internalType":"address"}],"outputs":[{"name":"userAddress","type":"address","internalType":"address"},{"name":"userType","type":"string","internalType":"string"}],"stateMutability":"view"}],"bytecode":{"object":"0x6080604052348015600e575f5ffd5b50335f5f6101000a81548173ffffffffffffffffffffffffffffffffffffffff021916908373ffffffffffffffffffffffffffffffffffffffff160217905550615aff8061005b5f395ff3fe608060405234801561000f575f5ffd5b50600436106101cd575f3560e01c806374ad48da11610102578063d90d7c06116100a0578063e5ec9e131161006f578063e5ec9e13146105cd578063ede0a3f214610601578063eecc1c9514610639578063f21bccfd14610669576101cd565b8063d90d7c061461052d578063d911c63214610549578063dd1209dd14610567578063e210ecee1461059a576101cd565b8063aace8d9f116100dc578063aace8d9f14610495578063b231d4a5146104b1578063cd01b103146104e1578063d7d6d94614610511576101cd565b806374ad48da146103fe5780638c694d4d1461042e5780638d9b6a3914610462576101cd565b806336a786ec1161016f5780634b2fd467116101495780634b2fd467146103755780635f82ddc0146103915780636c0e1ccd146103c45780637179919f146103e2576101cd565b806336a786ec146102f557806341209af1146103135780634b2d18ba14610344576101cd565b80631d5e08dd116101ab5780631d5e08dd1461026d57806327506f531461029d5780632afe436a146102bb5780632bb3b114146102d7576101cd565b80630a4f3679146101d1578063118b9535146102045780631af4459614610235575b5f5ffd5b6101eb60048036038101906101e69190614534565b61069c565b6040516101fb949392919061461a565b60405180910390f35b61021e6004803603810190610219919061469c565b610891565b60405161022c9291906146c7565b60405180910390f35b61024f600480360381019061024a9190614728565b610956565b6040516102649998979695949392919061476d565b60405180910390f35b6102876004803603810190610282919061469c565b610deb565b6040516102949190614830565b60405180910390f35b6102a5610f47565b6040516102b291906149e0565b60405180910390f35b6102d560048036038101906102d09190614534565b6110ab565b005b6102df6110f4565b6040516102ec9190614a00565b60405180910390f35b6102fd611118565b60405161030a9190614b42565b60405180910390f35b61032d60048036038101906103289190614728565b611378565b60405161033b9291906146c7565b60405180910390f35b61035e60048036038101906103599190614728565b61144c565b60405161036c929190614b62565b60405180910390f35b61038f600480360381019061038a9190614b97565b611587565b005b6103ab60048036038101906103a6919061469c565b61164d565b6040516103bb9493929190614c0d565b60405180910390f35b6103cc61182a565b6040516103d99190614e13565b60405180910390f35b6103fc60048036038101906103f79190614e33565b611d20565b005b61041860048036038101906104139190614534565b611f02565b6040516104259190614eeb565b60405180910390f35b61044860048036038101906104439190614728565b611fef565b604051610459959493929190614f04565b60405180910390f35b61047c60048036038101906104779190614534565b612267565b60405161048c9493929190614c0d565b60405180910390f35b6104af60048036038101906104aa9190614f71565b61245c565b005b6104cb60048036038101906104c69190614534565b612723565b6040516104d89190615195565b60405180910390f35b6104fb60048036038101906104f69190614534565b612bf5565b6040516105089190614eeb565b60405180910390f35b61052b600480360381019061052691906151b5565b612c39565b005b6105476004803603810190610542919061529c565b612fd0565b005b610551613270565b60405161055e9190615497565b60405180910390f35b610581600480360381019061057c9190614728565b613560565b6040516105919493929190614c0d565b60405180910390f35b6105b460048036038101906105af9190614728565b61374c565b6040516105c494939291906154c6565b60405180910390f35b6105e760048036038101906105e2919061469c565b613838565b6040516105f8959493929190614f04565b60405180910390f35b61061b60048036038101906106169190614534565b613aa1565b6040516106309998979695949392919061476d565b60405180910390f35b610653600480360381019061064e919061469c565b613f3f565b6040516106609190614830565b60405180910390f35b610683600480360381019061067e9190614728565b61400f565b604051610693949392919061461a565b60405180910390f35b6009818051602081018201805184825260208301602085012081835280955050505050505f91509050805f0180546106d39061553d565b80601f01602080910402602001604051908101604052809291908181526020018280546106ff9061553d565b801561074a5780601f106107215761010080835404028352916020019161074a565b820191905f5260205f20905b81548152906001019060200180831161072d57829003601f168201915b50505050509080600101805461075f9061553d565b80601f016020809104026020016040519081016040528092919081815260200182805461078b9061553d565b80156107d65780601f106107ad576101008083540402835291602001916107d6565b820191905f5260205f20905b8154815290600101906020018083116107b957829003601f168201915b505050505090806002015f9054906101000a900473ffffffffffffffffffffffffffffffffffffffff16908060030180546108109061553d565b80601f016020809104026020016040519081016040528092919081815260200182805461083c9061553d565b80156108875780601f1061085e57610100808354040283529160200191610887565b820191905f5260205f20905b81548152906001019060200180831161086a57829003601f168201915b5050505050905084565b600b602052805f5260405f205f91509050805f015f9054906101000a900473ffffffffffffffffffffffffffffffffffffffff16908060010180546108d59061553d565b80601f01602080910402602001604051908101604052809291908181526020018280546109019061553d565b801561094c5780601f106109235761010080835404028352916020019161094c565b820191905f5260205f20905b81548152906001019060200180831161092f57829003601f168201915b5050505050905082565b60028181548110610965575f80fd5b905f5260205f2090600902015f91509050805f015f9054906101000a900460ff16908060010180546109969061553d565b80601f01602080910402602001604051908101604052809291908181526020018280546109c29061553d565b8015610a0d5780601f106109e457610100808354040283529160200191610a0d565b820191905f5260205f20905b8154815290600101906020018083116109f057829003601f168201915b505050505090806002018054610a229061553d565b80601f0160208091040260200160405190810160405280929190818152602001828054610a4e9061553d565b8015610a995780601f10610a7057610100808354040283529160200191610a99565b820191905f5260205f20905b815481529060010190602001808311610a7c57829003601f168201915b505050505090806003018054610aae9061553d565b80601f0160208091040260200160405190810160405280929190818152602001828054610ada9061553d565b8015610b255780601f10610afc57610100808354040283529160200191610b25565b820191905f5260205f20905b815481529060010190602001808311610b0857829003601f168201915b505050505090806004018054610b3a9061553d565b80601f0160208091040260200160405190810160405280929190818152602001828054610b669061553d565b8015610bb15780601f10610b8857610100808354040283529160200191610bb1565b820191905f5260205f20905b815481529060010190602001808311610b9457829003601f168201915b505050505090806005018054610bc69061553d565b80601f0160208091040260200160405190810160405280929190818152602001828054610bf29061553d565b8015610c3d5780601f10610c1457610100808354040283529160200191610c3d565b820191905f5260205f20905b815481529060010190602001808311610c2057829003601f168201915b505050505090806006018054610c529061553d565b80601f0160208091040260200160405190810160405280929190818152602001828054610c7e9061553d565b8015610cc95780601f10610ca057610100808354040283529160200191610cc9565b820191905f5260205f20905b815481529060010190602001808311610cac57829003601f168201915b505050505090806007018054610cde9061553d565b80601f0160208091040260200160405190810160405280929190818152602001828054610d0a9061553d565b8015610d555780601f10610d2c57610100808354040283529160200191610d55565b820191905f5260205f20905b815481529060010190602001808311610d3857829003601f168201915b505050505090806008018054610d6a9061553d565b80601f0160208091040260200160405190810160405280929190818152602001828054610d969061553d565b8015610de15780601f10610db857610100808354040283529160200191610de1565b820191905f5260205f20905b815481529060010190602001808311610dc457829003601f168201915b5050505050905089565b60605f600f5f8473ffffffffffffffffffffffffffffffffffffffff1673ffffffffffffffffffffffffffffffffffffffff1681526020019081526020015f205f018054610e389061553d565b905011610e7a576040517f08c379a0000000000000000000000000000000000000000000000000000000008152600401610e71906155b7565b60405180910390fd5b600f5f8373ffffffffffffffffffffffffffffffffffffffff1673ffffffffffffffffffffffffffffffffffffffff1681526020019081526020015f205f018054610ec49061553d565b80601f0160208091040260200160405190810160405280929190818152602001828054610ef09061553d565b8015610f3b5780601f10610f1257610100808354040283529160200191610f3b565b820191905f5260205f20905b815481529060010190602001808311610f1e57829003601f168201915b50505050509050919050565b60606007805480602002602001604051908101604052809291908181526020015f905b828210156110a2578382905f5260205f2090600402016040518060800160405290815f82018054610f9a9061553d565b80601f0160208091040260200160405190810160405280929190818152602001828054610fc69061553d565b80156110115780601f10610fe857610100808354040283529160200191611011565b820191905f5260205f20905b815481529060010190602001808311610ff457829003601f168201915b50505050508152602001600182015f9054906101000a900473ffffffffffffffffffffffffffffffffffffffff1673ffffffffffffffffffffffffffffffffffffffff1673ffffffffffffffffffffffffffffffffffffffff16815260200160028201548152602001600382015f9054906101000a900460ff16151515158152505081526020019060010190610f6a565b50505050905090565b5f6110b5826141fb565b90505f600282815481106110cc576110cb6155d5565b5b905f5260205f2090600902015f015f6101000a81548160ff0219169083151502179055505050565b5f5f9054906101000a900473ffffffffffffffffffffffffffffffffffffffff1681565b60606003805480602002602001604051908101604052809291908181526020015f905b8282101561136f578382905f5260205f2090600402016040518060800160405290815f8201805461116b9061553d565b80601f01602080910402602001604051908101604052809291908181526020018280546111979061553d565b80156111e25780601f106111b9576101008083540402835291602001916111e2565b820191905f5260205f20905b8154815290600101906020018083116111c557829003601f168201915b505050505081526020016001820180546111fb9061553d565b80601f01602080910402602001604051908101604052809291908181526020018280546112279061553d565b80156112725780601f1061124957610100808354040283529160200191611272565b820191905f5260205f20905b81548152906001019060200180831161125557829003601f168201915b5050505050815260200160028201805461128b9061553d565b80601f01602080910402602001604051908101604052809291908181526020018280546112b79061553d565b80156113025780601f106112d957610100808354040283529160200191611302565b820191905f5260205f20905b8154815290600101906020018083116112e557829003601f168201915b50505050508152602001600382015f9054906101000a900473ffffffffffffffffffffffffffffffffffffffff1673ffffffffffffffffffffffffffffffffffffffff1673ffffffffffffffffffffffffffffffffffffffff16815250508152602001906001019061113b565b50505050905090565b60068181548110611387575f80fd5b905f5260205f2090600202015f91509050805f015f9054906101000a900473ffffffffffffffffffffffffffffffffffffffff16908060010180546113cb9061553d565b80601f01602080910402602001604051908101604052809291908181526020018280546113f79061553d565b80156114425780601f1061141957610100808354040283529160200191611442565b820191905f5260205f20905b81548152906001019060200180831161142557829003601f168201915b5050505050905082565b6005818154811061145b575f80fd5b905f5260205f2090600202015f91509050805f01805461147a9061553d565b80601f01602080910402602001604051908101604052809291908181526020018280546114a69061553d565b80156114f15780601f106114c8576101008083540402835291602001916114f1565b820191905f5260205f20905b8154815290600101906020018083116114d457829003601f168201915b5050505050908060010180546115069061553d565b80601f01602080910402602001604051908101604052809291908181526020018280546115329061553d565b801561157d5780601f106115545761010080835404028352916020019161157d565b820191905f5260205f20905b81548152906001019060200180831161156057829003601f168201915b5050505050905082565b80600883604051611598919061563c565b908152602001604051809103902060050190816115b591906157f2565b505f600e836040516115c7919061563c565b908152602001604051809103902054905081600282815481106115ed576115ec6155d5565b5b905f5260205f209060090201600501908161160891906157f2565b506116486040518060400160405280601181526020017f49737375656420436974697a656e204944000000000000000000000000000000815250336142aa565b505050565b600f602052805f5260405f205f91509050805f01805461166c9061553d565b80601f01602080910402602001604051908101604052809291908181526020018280546116989061553d565b80156116e35780601f106116ba576101008083540402835291602001916116e3565b820191905f5260205f20905b8154815290600101906020018083116116c657829003601f168201915b5050505050908060010180546116f89061553d565b80601f01602080910402602001604051908101604052809291908181526020018280546117249061553d565b801561176f5780601f106117465761010080835404028352916020019161176f565b820191905f5260205f20905b81548152906001019060200180831161175257829003601f168201915b5050505050908060020180546117849061553d565b80601f01602080910402602001604051908101604052809291908181526020018280546117b09061553d565b80156117fb5780601f106117d2576101008083540402835291602001916117fb565b820191905f5260205f20905b8154815290600101906020018083116117de57829003601f168201915b505050505090806003015f9054906101000a900473ffffffffffffffffffffffffffffffffffffffff16905084565b60606002805480602002602001604051908101604052809291908181526020015f905b82821015611d17578382905f5260205f209060090201604051806101200160405290815f82015f9054906101000a900460ff161515151581526020016001820180546118989061553d565b80601f01602080910402602001604051908101604052809291908181526020018280546118c49061553d565b801561190f5780601f106118e65761010080835404028352916020019161190f565b820191905f5260205f20905b8154815290600101906020018083116118f257829003601f168201915b505050505081526020016002820180546119289061553d565b80601f01602080910402602001604051908101604052809291908181526020018280546119549061553d565b801561199f5780601f106119765761010080835404028352916020019161199f565b820191905f5260205f20905b81548152906001019060200180831161198257829003601f168201915b505050505081526020016003820180546119b89061553d565b80601f01602080910402602001604051908101604052809291908181526020018280546119e49061553d565b8015611a2f5780601f10611a0657610100808354040283529160200191611a2f565b820191905f5260205f20905b815481529060010190602001808311611a1257829003601f168201915b50505050508152602001600482018054611a489061553d565b80601f0160208091040260200160405190810160405280929190818152602001828054611a749061553d565b8015611abf5780601f10611a9657610100808354040283529160200191611abf565b820191905f5260205f20905b815481529060010190602001808311611aa257829003601f168201915b50505050508152602001600582018054611ad89061553d565b80601f0160208091040260200160405190810160405280929190818152602001828054611b049061553d565b8015611b4f5780601f10611b2657610100808354040283529160200191611b4f565b820191905f5260205f20905b815481529060010190602001808311611b3257829003601f168201915b50505050508152602001600682018054611b689061553d565b80601f0160208091040260200160405190810160405280929190818152602001828054611b949061553d565b8015611bdf5780601f10611bb657610100808354040283529160200191611bdf565b820191905f5260205f20905b815481529060010190602001808311611bc257829003601f168201915b50505050508152602001600782018054611bf89061553d565b80601f0160208091040260200160405190810160405280929190818152602001828054611c249061553d565b8015611c6f5780601f10611c4657610100808354040283529160200191611c6f565b820191905f5260205f20905b815481529060010190602001808311611c5257829003601f168201915b50505050508152602001600882018054611c889061553d565b80601f0160208091040260200160405190810160405280929190818152602001828054611cb49061553d565b8015611cff5780601f10611cd657610100808354040283529160200191611cff565b820191905f5260205f20905b815481529060010190602001808311611ce257829003601f168201915b5050505050815250508152602001906001019061184d565b50505050905090565b5f60405180608001604052808681526020018581526020018473ffffffffffffffffffffffffffffffffffffffff168152602001838152509050600181908060018154018082558091505060019003905f5260205f2090600402015f909190919091505f820151815f019081611d9691906157f2565b506020820151816001019081611dac91906157f2565b506040820151816002015f6101000a81548173ffffffffffffffffffffffffffffffffffffffff021916908373ffffffffffffffffffffffffffffffffffffffff1602179055506060820151816003019081611e0891906157f2565b50505080600983604051611e1c919061563c565b90815260200160405180910390205f820151815f019081611e3d91906157f2565b506020820151816001019081611e5391906157f2565b506040820151816002015f6101000a81548173ffffffffffffffffffffffffffffffffffffffff021916908373ffffffffffffffffffffffffffffffffffffffff1602179055506060820151816003019081611eaf91906157f2565b50905050611ebc826110ab565b611efb6040518060400160405280601781526020017f4973737565642044656174684365727469666963617465000000000000000000815250336142aa565b5050505050565b5f5f5f90505b600280549050811015611fae57828051906020012060028281548110611f3157611f306155d5565b5b905f5260205f209060090201600801604051611f4d919061595d565b604051809103902003611fa15760028181548110611f6e57611f6d6155d5565b5b905f5260205f2090600902015f015f9054906101000a900460ff1615611f98576001915050611fea565b5f915050611fea565b8080600101915050611f08565b506040517f08c379a0000000000000000000000000000000000000000000000000000000008152600401611fe1906159e3565b60405180910390fd5b919050565b60048181548110611ffe575f80fd5b905f5260205f2090600502015f91509050805f015f9054906101000a900473ffffffffffffffffffffffffffffffffffffffff16908060010180546120429061553d565b80601f016020809104026020016040519081016040528092919081815260200182805461206e9061553d565b80156120b95780601f10612090576101008083540402835291602001916120b9565b820191905f5260205f20905b81548152906001019060200180831161209c57829003601f168201915b5050505050908060020180546120ce9061553d565b80601f01602080910402602001604051908101604052809291908181526020018280546120fa9061553d565b80156121455780601f1061211c57610100808354040283529160200191612145565b820191905f5260205f20905b81548152906001019060200180831161212857829003601f168201915b50505050509080600301805461215a9061553d565b80601f01602080910402602001604051908101604052809291908181526020018280546121869061553d565b80156121d15780601f106121a8576101008083540402835291602001916121d1565b820191905f5260205f20905b8154815290600101906020018083116121b457829003601f168201915b5050505050908060040180546121e69061553d565b80601f01602080910402602001604051908101604052809291908181526020018280546122129061553d565b801561225d5780601f106122345761010080835404028352916020019161225d565b820191905f5260205f20905b81548152906001019060200180831161224057829003601f168201915b5050505050905085565b600a818051602081018201805184825260208301602085012081835280955050505050505f91509050805f01805461229e9061553d565b80601f01602080910402602001604051908101604052809291908181526020018280546122ca9061553d565b80156123155780601f106122ec57610100808354040283529160200191612315565b820191905f5260205f20905b8154815290600101906020018083116122f857829003601f168201915b50505050509080600101805461232a9061553d565b80601f01602080910402602001604051908101604052809291908181526020018280546123569061553d565b80156123a15780601f10612378576101008083540402835291602001916123a1565b820191905f5260205f20905b81548152906001019060200180831161238457829003601f168201915b5050505050908060020180546123b69061553d565b80601f01602080910402602001604051908101604052809291908181526020018280546123e29061553d565b801561242d5780601f106124045761010080835404028352916020019161242d565b820191905f5260205f20905b81548152906001019060200180831161241057829003601f168201915b505050505090806003015f9054906101000a900473ffffffffffffffffffffffffffffffffffffffff16905084565b5f60405180610120016040528060011515815260200188815260200186815260200187815260200185815260200160405180602001604052805f815250815260200184815260200183815260200160405180602001604052805f8152508152509050806008866040516124cf919061563c565b90815260200160405180910390205f820151815f015f6101000a81548160ff021916908315150217905550602082015181600101908161250f91906157f2565b50604082015181600201908161252591906157f2565b50606082015181600301908161253b91906157f2565b50608082015181600401908161255191906157f2565b5060a082015181600501908161256791906157f2565b5060c082015181600601908161257d91906157f2565b5060e082015181600701908161259391906157f2565b506101008201518160080190816125aa91906157f2565b50905050600281908060018154018082558091505060019003905f5260205f2090600902015f909190919091505f820151815f015f6101000a81548160ff021916908315150217905550602082015181600101908161260991906157f2565b50604082015181600201908161261f91906157f2565b50606082015181600301908161263591906157f2565b50608082015181600401908161264b91906157f2565b5060a082015181600501908161266191906157f2565b5060c082015181600601908161267791906157f2565b5060e082015181600701908161268d91906157f2565b506101008201518160080190816126a491906157f2565b50505060016002805490506126b99190615a2e565b600e866040516126c9919061563c565b90815260200160405180910390208190555061271a6040518060400160405280600d81526020017f416464656420636974697a656e00000000000000000000000000000000000000815250336142aa565b50505050505050565b61272b61439a565b60088260405161273b919061563c565b9081526020016040518091039020604051806101200160405290815f82015f9054906101000a900460ff1615151515815260200160018201805461277e9061553d565b80601f01602080910402602001604051908101604052809291908181526020018280546127aa9061553d565b80156127f55780601f106127cc576101008083540402835291602001916127f5565b820191905f5260205f20905b8154815290600101906020018083116127d857829003601f168201915b5050505050815260200160028201805461280e9061553d565b80601f016020809104026020016040519081016040528092919081815260200182805461283a9061553d565b80156128855780601f1061285c57610100808354040283529160200191612885565b820191905f5260205f20905b81548152906001019060200180831161286857829003601f168201915b5050505050815260200160038201805461289e9061553d565b80601f01602080910402602001604051908101604052809291908181526020018280546128ca9061553d565b80156129155780601f106128ec57610100808354040283529160200191612915565b820191905f5260205f20905b8154815290600101906020018083116128f857829003601f168201915b5050505050815260200160048201805461292e9061553d565b80601f016020809104026020016040519081016040528092919081815260200182805461295a9061553d565b80156129a55780601f1061297c576101008083540402835291602001916129a5565b820191905f5260205f20905b81548152906001019060200180831161298857829003601f168201915b505050505081526020016005820180546129be9061553d565b80601f01602080910402602001604051908101604052809291908181526020018280546129ea9061553d565b8015612a355780601f10612a0c57610100808354040283529160200191612a35565b820191905f5260205f20905b815481529060010190602001808311612a1857829003601f168201915b50505050508152602001600682018054612a4e9061553d565b80601f0160208091040260200160405190810160405280929190818152602001828054612a7a9061553d565b8015612ac55780601f10612a9c57610100808354040283529160200191612ac5565b820191905f5260205f20905b815481529060010190602001808311612aa857829003601f168201915b50505050508152602001600782018054612ade9061553d565b80601f0160208091040260200160405190810160405280929190818152602001828054612b0a9061553d565b8015612b555780601f10612b2c57610100808354040283529160200191612b55565b820191905f5260205f20905b815481529060010190602001808311612b3857829003601f168201915b50505050508152602001600882018054612b6e9061553d565b80601f0160208091040260200160405190810160405280929190818152602001828054612b9a9061553d565b8015612be55780601f10612bbc57610100808354040283529160200191612be5565b820191905f5260205f20905b815481529060010190602001808311612bc857829003601f168201915b5050505050815250509050919050565b5f5f612c00836141fb565b905060028181548110612c1657612c156155d5565b5b905f5260205f2090600902015f015f9054906101000a900460ff16915050919050565b5f6040518060a001604052808573ffffffffffffffffffffffffffffffffffffffff1681526020018781526020018681526020018481526020018381525090505f60405180604001604052808673ffffffffffffffffffffffffffffffffffffffff1681526020016040518060400160405280600881526020017f6f70657261746f7200000000000000000000000000000000000000000000000081525081525090506040518060400160405280600881526020017f6f70657261746f72000000000000000000000000000000000000000000000000815250600b5f8773ffffffffffffffffffffffffffffffffffffffff1673ffffffffffffffffffffffffffffffffffffffff1681526020019081526020015f206001019081612d5e91906157f2565b50600681908060018154018082558091505060019003905f5260205f2090600202015f909190919091505f820151815f015f6101000a81548173ffffffffffffffffffffffffffffffffffffffff021916908373ffffffffffffffffffffffffffffffffffffffff1602179055506020820151816001019081612de191906157f2565b50505081600c5f8773ffffffffffffffffffffffffffffffffffffffff1673ffffffffffffffffffffffffffffffffffffffff1681526020019081526020015f205f820151815f015f6101000a81548173ffffffffffffffffffffffffffffffffffffffff021916908373ffffffffffffffffffffffffffffffffffffffff1602179055506020820151816001019081612e7b91906157f2565b506040820151816002019081612e9191906157f2565b506060820151816003019081612ea791906157f2565b506080820151816004019081612ebd91906157f2565b50905050600482908060018154018082558091505060019003905f5260205f2090600502015f909190919091505f820151815f015f6101000a81548173ffffffffffffffffffffffffffffffffffffffff021916908373ffffffffffffffffffffffffffffffffffffffff1602179055506020820151816001019081612f4391906157f2565b506040820151816002019081612f5991906157f2565b506060820151816003019081612f6f91906157f2565b506080820151816004019081612f8591906157f2565b505050612fc76040518060400160405280600e81526020017f4164646564204f70657261746f72000000000000000000000000000000000000815250336142aa565b50505050505050565b5f60405180608001604052808681526020018381526020018481526020018573ffffffffffffffffffffffffffffffffffffffff168152509050600381908060018154018082558091505060019003905f5260205f2090600402015f909190919091505f820151815f01908161304691906157f2565b50602082015181600101908161305c91906157f2565b50604082015181600201908161307291906157f2565b506060820151816003015f6101000a81548173ffffffffffffffffffffffffffffffffffffffff021916908373ffffffffffffffffffffffffffffffffffffffff160217905550505080600a836040516130cc919061563c565b90815260200160405180910390205f820151815f0190816130ed91906157f2565b50602082015181600101908161310391906157f2565b50604082015181600201908161311991906157f2565b506060820151816003015f6101000a81548173ffffffffffffffffffffffffffffffffffffffff021916908373ffffffffffffffffffffffffffffffffffffffff16021790555090505080600f5f8673ffffffffffffffffffffffffffffffffffffffff1673ffffffffffffffffffffffffffffffffffffffff1681526020019081526020015f205f820151815f0190816131b491906157f2565b5060208201518160010190816131ca91906157f2565b5060408201518160020190816131e091906157f2565b506060820151816003015f6101000a81548173ffffffffffffffffffffffffffffffffffffffff021916908373ffffffffffffffffffffffffffffffffffffffff1602179055509050506132696040518060400160405280601181526020017f416464656420496e737469747574696f6e000000000000000000000000000000815250336142aa565b5050505050565b60606004805480602002602001604051908101604052809291908181526020015f905b82821015613557578382905f5260205f2090600502016040518060a00160405290815f82015f9054906101000a900473ffffffffffffffffffffffffffffffffffffffff1673ffffffffffffffffffffffffffffffffffffffff1673ffffffffffffffffffffffffffffffffffffffff1681526020016001820180546133189061553d565b80601f01602080910402602001604051908101604052809291908181526020018280546133449061553d565b801561338f5780601f106133665761010080835404028352916020019161338f565b820191905f5260205f20905b81548152906001019060200180831161337257829003601f168201915b505050505081526020016002820180546133a89061553d565b80601f01602080910402602001604051908101604052809291908181526020018280546133d49061553d565b801561341f5780601f106133f65761010080835404028352916020019161341f565b820191905f5260205f20905b81548152906001019060200180831161340257829003601f168201915b505050505081526020016003820180546134389061553d565b80601f01602080910402602001604051908101604052809291908181526020018280546134649061553d565b80156134af5780601f10613486576101008083540402835291602001916134af565b820191905f5260205f20905b81548152906001019060200180831161349257829003601f168201915b505050505081526020016004820180546134c89061553d565b80601f01602080910402602001604051908101604052809291908181526020018280546134f49061553d565b801561353f5780601f106135165761010080835404028352916020019161353f565b820191905f5260205f20905b81548152906001019060200180831161352257829003601f168201915b50505050508152505081526020019060010190613293565b50505050905090565b6003818154811061356f575f80fd5b905f5260205f2090600402015f91509050805f01805461358e9061553d565b80601f01602080910402602001604051908101604052809291908181526020018280546135ba9061553d565b80156136055780601f106135dc57610100808354040283529160200191613605565b820191905f5260205f20905b8154815290600101906020018083116135e857829003601f168201915b50505050509080600101805461361a9061553d565b80601f01602080910402602001604051908101604052809291908181526020018280546136469061553d565b80156136915780601f1061366857610100808354040283529160200191613691565b820191905f5260205f20905b81548152906001019060200180831161367457829003601f168201915b5050505050908060020180546136a69061553d565b80601f01602080910402602001604051908101604052809291908181526020018280546136d29061553d565b801561371d5780601f106136f45761010080835404028352916020019161371d565b820191905f5260205f20905b81548152906001019060200180831161370057829003601f168201915b505050505090806003015f9054906101000a900473ffffffffffffffffffffffffffffffffffffffff16905084565b6007818154811061375b575f80fd5b905f5260205f2090600402015f91509050805f01805461377a9061553d565b80601f01602080910402602001604051908101604052809291908181526020018280546137a69061553d565b80156137f15780601f106137c8576101008083540402835291602001916137f1565b820191905f5260205f20905b8154815290600101906020018083116137d457829003601f168201915b505050505090806001015f9054906101000a900473ffffffffffffffffffffffffffffffffffffffff1690806002015490806003015f9054906101000a900460ff16905084565b600c602052805f5260405f205f91509050805f015f9054906101000a900473ffffffffffffffffffffffffffffffffffffffff169080600101805461387c9061553d565b80601f01602080910402602001604051908101604052809291908181526020018280546138a89061553d565b80156138f35780601f106138ca576101008083540402835291602001916138f3565b820191905f5260205f20905b8154815290600101906020018083116138d657829003601f168201915b5050505050908060020180546139089061553d565b80601f01602080910402602001604051908101604052809291908181526020018280546139349061553d565b801561397f5780601f106139565761010080835404028352916020019161397f565b820191905f5260205f20905b81548152906001019060200180831161396257829003601f168201915b5050505050908060030180546139949061553d565b80601f01602080910402602001604051908101604052809291908181526020018280546139c09061553d565b8015613a0b5780601f106139e257610100808354040283529160200191613a0b565b820191905f5260205f20905b8154815290600101906020018083116139ee57829003601f168201915b505050505090806004018054613a209061553d565b80601f0160208091040260200160405190810160405280929190818152602001828054613a4c9061553d565b8015613a975780601f10613a6e57610100808354040283529160200191613a97565b820191905f5260205f20905b815481529060010190602001808311613a7a57829003601f168201915b5050505050905085565b6008818051602081018201805184825260208301602085012081835280955050505050505f91509050805f015f9054906101000a900460ff1690806001018054613aea9061553d565b80601f0160208091040260200160405190810160405280929190818152602001828054613b169061553d565b8015613b615780601f10613b3857610100808354040283529160200191613b61565b820191905f5260205f20905b815481529060010190602001808311613b4457829003601f168201915b505050505090806002018054613b769061553d565b80601f0160208091040260200160405190810160405280929190818152602001828054613ba29061553d565b8015613bed5780601f10613bc457610100808354040283529160200191613bed565b820191905f5260205f20905b815481529060010190602001808311613bd057829003601f168201915b505050505090806003018054613c029061553d565b80601f0160208091040260200160405190810160405280929190818152602001828054613c2e9061553d565b8015613c795780601f10613c5057610100808354040283529160200191613c79565b820191905f5260205f20905b815481529060010190602001808311613c5c57829003601f168201915b505050505090806004018054613c8e9061553d565b80601f0160208091040260200160405190810160405280929190818152602001828054613cba9061553d565b8015613d055780601f10613cdc57610100808354040283529160200191613d05565b820191905f5260205f20905b815481529060010190602001808311613ce857829003601f168201915b505050505090806005018054613d1a9061553d565b80601f0160208091040260200160405190810160405280929190818152602001828054613d469061553d565b8015613d915780601f10613d6857610100808354040283529160200191613d91565b820191905f5260205f20905b815481529060010190602001808311613d7457829003601f168201915b505050505090806006018054613da69061553d565b80601f0160208091040260200160405190810160405280929190818152602001828054613dd29061553d565b8015613e1d5780601f10613df457610100808354040283529160200191613e1d565b820191905f5260205f20905b815481529060010190602001808311613e0057829003601f168201915b505050505090806007018054613e329061553d565b80601f0160208091040260200160405190810160405280929190818152602001828054613e5e9061553d565b8015613ea95780601f10613e8057610100808354040283529160200191613ea9565b820191905f5260205f20905b815481529060010190602001808311613e8c57829003601f168201915b505050505090806008018054613ebe9061553d565b80601f0160208091040260200160405190810160405280929190818152602001828054613eea9061553d565b8015613f355780601f10613f0c57610100808354040283529160200191613f35565b820191905f5260205f20905b815481529060010190602001808311613f1857829003601f168201915b5050505050905089565b6060600c5f8373ffffffffffffffffffffffffffffffffffffffff1673ffffffffffffffffffffffffffffffffffffffff1681526020019081526020015f206004018054613f8c9061553d565b80601f0160208091040260200160405190810160405280929190818152602001828054613fb89061553d565b80156140035780601f10613fda57610100808354040283529160200191614003565b820191905f5260205f20905b815481529060010190602001808311613fe657829003601f168201915b50505050509050919050565b6001818154811061401e575f80fd5b905f5260205f2090600402015f91509050805f01805461403d9061553d565b80601f01602080910402602001604051908101604052809291908181526020018280546140699061553d565b80156140b45780601f1061408b576101008083540402835291602001916140b4565b820191905f5260205f20905b81548152906001019060200180831161409757829003601f168201915b5050505050908060010180546140c99061553d565b80601f01602080910402602001604051908101604052809291908181526020018280546140f59061553d565b80156141405780601f1061411757610100808354040283529160200191614140565b820191905f5260205f20905b81548152906001019060200180831161412357829003601f168201915b505050505090806002015f9054906101000a900473ffffffffffffffffffffffffffffffffffffffff169080600301805461417a9061553d565b80601f01602080910402602001604051908101604052809291908181526020018280546141a69061553d565b80156141f15780601f106141c8576101008083540402835291602001916141f1565b820191905f5260205f20905b8154815290600101906020018083116141d457829003601f168201915b5050505050905084565b5f5f5f90505b6002805490508110156142695782805190602001206002828154811061422a576142296155d5565b5b905f5260205f209060090201600501604051614246919061595d565b60405180910390200361425c57809150506142a5565b8080600101915050614201565b506040517f08c379a000000000000000000000000000000000000000000000000000000000815260040161429c90615aab565b60405180910390fd5b919050565b5f60405180608001604052808481526020018373ffffffffffffffffffffffffffffffffffffffff168152602001428152602001600115158152509050600781908060018154018082558091505060019003905f5260205f2090600402015f909190919091505f820151815f01908161432391906157f2565b506020820151816001015f6101000a81548173ffffffffffffffffffffffffffffffffffffffff021916908373ffffffffffffffffffffffffffffffffffffffff160217905550604082015181600201556060820151816003015f6101000a81548160ff0219169083151502179055505050505050565b6040518061012001604052805f1515815260200160608152602001606081526020016060815260200160608152602001606081526020016060815260200160608152602001606081525090565b5f604051905090565b5f5ffd5b5f5ffd5b5f5ffd5b5f5ffd5b5f601f19601f8301169050919050565b7f4e487b71000000000000000000000000000000000000000000000000000000005f52604160045260245ffd5b61444682614400565b810181811067ffffffffffffffff8211171561446557614464614410565b5b80604052505050565b5f6144776143e7565b9050614483828261443d565b919050565b5f67ffffffffffffffff8211156144a2576144a1614410565b5b6144ab82614400565b9050602081019050919050565b828183375f83830152505050565b5f6144d86144d384614488565b61446e565b9050828152602081018484840111156144f4576144f36143fc565b5b6144ff8482856144b8565b509392505050565b5f82601f83011261451b5761451a6143f8565b5b813561452b8482602086016144c6565b91505092915050565b5f60208284031215614549576145486143f0565b5b5f82013567ffffffffffffffff811115614566576145656143f4565b5b61457284828501614507565b91505092915050565b5f81519050919050565b5f82825260208201905092915050565b8281835e5f83830152505050565b5f6145ad8261457b565b6145b78185614585565b93506145c7818560208601614595565b6145d081614400565b840191505092915050565b5f73ffffffffffffffffffffffffffffffffffffffff82169050919050565b5f614604826145db565b9050919050565b614614816145fa565b82525050565b5f6080820190508181035f83015261463281876145a3565b9050818103602083015261464681866145a3565b9050614655604083018561460b565b818103606083015261466781846145a3565b905095945050505050565b61467b816145fa565b8114614685575f5ffd5b50565b5f8135905061469681614672565b92915050565b5f602082840312156146b1576146b06143f0565b5b5f6146be84828501614688565b91505092915050565b5f6040820190506146da5f83018561460b565b81810360208301526146ec81846145a3565b90509392505050565b5f819050919050565b614707816146f5565b8114614711575f5ffd5b50565b5f81359050614722816146fe565b92915050565b5f6020828403121561473d5761473c6143f0565b5b5f61474a84828501614714565b91505092915050565b5f8115159050919050565b61476781614753565b82525050565b5f610120820190506147815f83018c61475e565b8181036020830152614793818b6145a3565b905081810360408301526147a7818a6145a3565b905081810360608301526147bb81896145a3565b905081810360808301526147cf81886145a3565b905081810360a08301526147e381876145a3565b905081810360c08301526147f781866145a3565b905081810360e083015261480b81856145a3565b905081810361010083015261482081846145a3565b90509a9950505050505050505050565b5f6020820190508181035f83015261484881846145a3565b905092915050565b5f81519050919050565b5f82825260208201905092915050565b5f819050602082019050919050565b5f82825260208201905092915050565b5f6148938261457b565b61489d8185614879565b93506148ad818560208601614595565b6148b681614400565b840191505092915050565b6148ca816145fa565b82525050565b6148d9816146f5565b82525050565b6148e881614753565b82525050565b5f608083015f8301518482035f8601526149088282614889565b915050602083015161491d60208601826148c1565b50604083015161493060408601826148d0565b50606083015161494360608601826148df565b508091505092915050565b5f61495983836148ee565b905092915050565b5f602082019050919050565b5f61497782614850565b614981818561485a565b9350836020820285016149938561486a565b805f5b858110156149ce57848403895281516149af858261494e565b94506149ba83614961565b925060208a01995050600181019050614996565b50829750879550505050505092915050565b5f6020820190508181035f8301526149f8818461496d565b905092915050565b5f602082019050614a135f83018461460b565b92915050565b5f81519050919050565b5f82825260208201905092915050565b5f819050602082019050919050565b5f608083015f8301518482035f860152614a5c8282614889565b91505060208301518482036020860152614a768282614889565b91505060408301518482036040860152614a908282614889565b9150506060830151614aa560608601826148c1565b508091505092915050565b5f614abb8383614a42565b905092915050565b5f602082019050919050565b5f614ad982614a19565b614ae38185614a23565b935083602082028501614af585614a33565b805f5b85811015614b305784840389528151614b118582614ab0565b9450614b1c83614ac3565b925060208a01995050600181019050614af8565b50829750879550505050505092915050565b5f6020820190508181035f830152614b5a8184614acf565b905092915050565b5f6040820190508181035f830152614b7a81856145a3565b90508181036020830152614b8e81846145a3565b90509392505050565b5f5f60408385031215614bad57614bac6143f0565b5b5f83013567ffffffffffffffff811115614bca57614bc96143f4565b5b614bd685828601614507565b925050602083013567ffffffffffffffff811115614bf757614bf66143f4565b5b614c0385828601614507565b9150509250929050565b5f6080820190508181035f830152614c2581876145a3565b90508181036020830152614c3981866145a3565b90508181036040830152614c4d81856145a3565b9050614c5c606083018461460b565b95945050505050565b5f81519050919050565b5f82825260208201905092915050565b5f819050602082019050919050565b5f61012083015f830151614ca45f8601826148df565b5060208301518482036020860152614cbc8282614889565b91505060408301518482036040860152614cd68282614889565b91505060608301518482036060860152614cf08282614889565b91505060808301518482036080860152614d0a8282614889565b91505060a083015184820360a0860152614d248282614889565b91505060c083015184820360c0860152614d3e8282614889565b91505060e083015184820360e0860152614d588282614889565b915050610100830151848203610100860152614d748282614889565b9150508091505092915050565b5f614d8c8383614c8e565b905092915050565b5f602082019050919050565b5f614daa82614c65565b614db48185614c6f565b935083602082028501614dc685614c7f565b805f5b85811015614e015784840389528151614de28582614d81565b9450614ded83614d94565b925060208a01995050600181019050614dc9565b50829750879550505050505092915050565b5f6020820190508181035f830152614e2b8184614da0565b905092915050565b5f5f5f5f60808587031215614e4b57614e4a6143f0565b5b5f85013567ffffffffffffffff811115614e6857614e676143f4565b5b614e7487828801614507565b945050602085013567ffffffffffffffff811115614e9557614e946143f4565b5b614ea187828801614507565b9350506040614eb287828801614688565b925050606085013567ffffffffffffffff811115614ed357614ed26143f4565b5b614edf87828801614507565b91505092959194509250565b5f602082019050614efe5f83018461475e565b92915050565b5f60a082019050614f175f83018861460b565b8181036020830152614f2981876145a3565b90508181036040830152614f3d81866145a3565b90508181036060830152614f5181856145a3565b90508181036080830152614f6581846145a3565b90509695505050505050565b5f5f5f5f5f5f60c08789031215614f8b57614f8a6143f0565b5b5f87013567ffffffffffffffff811115614fa857614fa76143f4565b5b614fb489828a01614507565b965050602087013567ffffffffffffffff811115614fd557614fd46143f4565b5b614fe189828a01614507565b955050604087013567ffffffffffffffff811115615002576150016143f4565b5b61500e89828a01614507565b945050606087013567ffffffffffffffff81111561502f5761502e6143f4565b5b61503b89828a01614507565b935050608087013567ffffffffffffffff81111561505c5761505b6143f4565b5b61506889828a01614507565b92505060a087013567ffffffffffffffff811115615089576150886143f4565b5b61509589828a01614507565b9150509295509295509295565b5f61012083015f8301516150b85f8601826148df565b50602083015184820360208601526150d08282614889565b915050604083015184820360408601526150ea8282614889565b915050606083015184820360608601526151048282614889565b9150506080830151848203608086015261511e8282614889565b91505060a083015184820360a08601526151388282614889565b91505060c083015184820360c08601526151528282614889565b91505060e083015184820360e086015261516c8282614889565b9150506101008301518482036101008601526151888282614889565b9150508091505092915050565b5f6020820190508181035f8301526151ad81846150a2565b905092915050565b5f5f5f5f5f60a086880312156151ce576151cd6143f0565b5b5f86013567ffffffffffffffff8111156151eb576151ea6143f4565b5b6151f788828901614507565b955050602086013567ffffffffffffffff811115615218576152176143f4565b5b61522488828901614507565b945050604061523588828901614688565b935050606086013567ffffffffffffffff811115615256576152556143f4565b5b61526288828901614507565b925050608086013567ffffffffffffffff811115615283576152826143f4565b5b61528f88828901614507565b9150509295509295909350565b5f5f5f5f608085870312156152b4576152b36143f0565b5b5f85013567ffffffffffffffff8111156152d1576152d06143f4565b5b6152dd87828801614507565b94505060206152ee87828801614688565b935050604085013567ffffffffffffffff81111561530f5761530e6143f4565b5b61531b87828801614507565b925050606085013567ffffffffffffffff81111561533c5761533b6143f4565b5b61534887828801614507565b91505092959194509250565b5f81519050919050565b5f82825260208201905092915050565b5f819050602082019050919050565b5f60a083015f8301516153925f8601826148c1565b50602083015184820360208601526153aa8282614889565b915050604083015184820360408601526153c48282614889565b915050606083015184820360608601526153de8282614889565b915050608083015184820360808601526153f88282614889565b9150508091505092915050565b5f615410838361537d565b905092915050565b5f602082019050919050565b5f61542e82615354565b615438818561535e565b93508360208202850161544a8561536e565b805f5b8581101561548557848403895281516154668582615405565b945061547183615418565b925060208a0199505060018101905061544d565b50829750879550505050505092915050565b5f6020820190508181035f8301526154af8184615424565b905092915050565b6154c0816146f5565b82525050565b5f6080820190508181035f8301526154de81876145a3565b90506154ed602083018661460b565b6154fa60408301856154b7565b615507606083018461475e565b95945050505050565b7f4e487b71000000000000000000000000000000000000000000000000000000005f52602260045260245ffd5b5f600282049050600182168061555457607f821691505b60208210810361556757615566615510565b5b50919050565b7f496e737469747574696f6e206e6f7420666f756e6400000000000000000000005f82015250565b5f6155a1601583614585565b91506155ac8261556d565b602082019050919050565b5f6020820190508181035f8301526155ce81615595565b9050919050565b7f4e487b71000000000000000000000000000000000000000000000000000000005f52603260045260245ffd5b5f81905092915050565b5f6156168261457b565b6156208185615602565b9350615630818560208601614595565b80840191505092915050565b5f615647828461560c565b915081905092915050565b5f819050815f5260205f209050919050565b5f6020601f8301049050919050565b5f82821b905092915050565b5f600883026156ae7fffffffffffffffffffffffffffffffffffffffffffffffffffffffffffffffff82615673565b6156b88683615673565b95508019841693508086168417925050509392505050565b5f819050919050565b5f6156f36156ee6156e9846146f5565b6156d0565b6146f5565b9050919050565b5f819050919050565b61570c836156d9565b615720615718826156fa565b84845461567f565b825550505050565b5f5f905090565b615737615728565b615742818484615703565b505050565b5b818110156157655761575a5f8261572f565b600181019050615748565b5050565b601f8211156157aa5761577b81615652565b61578484615664565b81016020851015615793578190505b6157a761579f85615664565b830182615747565b50505b505050565b5f82821c905092915050565b5f6157ca5f19846008026157af565b1980831691505092915050565b5f6157e283836157bb565b9150826002028217905092915050565b6157fb8261457b565b67ffffffffffffffff81111561581457615813614410565b5b61581e825461553d565b615829828285615769565b5f60209050601f83116001811461585a575f8415615848578287015190505b61585285826157d7565b8655506158b9565b601f19841661586886615652565b5f5b8281101561588f5784890151825560018201915060208501945060208101905061586a565b868310156158ac57848901516158a8601f8916826157bb565b8355505b6001600288020188555050505b505050505050565b5f81905092915050565b5f819050815f5260205f209050919050565b5f81546158e98161553d565b6158f381866158c1565b9450600182165f811461590d576001811461592257615954565b60ff1983168652811515820286019350615954565b61592b856158cb565b5f5b8381101561594c5781548189015260018201915060208101905061592d565b838801955050505b50505092915050565b5f61596882846158dd565b915081905092915050565b7f4865616c746820696e737572616e6365206e756d626572206e6f7420666f756e5f8201527f6400000000000000000000000000000000000000000000000000000000000000602082015250565b5f6159cd602183614585565b91506159d882615973565b604082019050919050565b5f6020820190508181035f8301526159fa816159c1565b9050919050565b7f4e487b71000000000000000000000000000000000000000000000000000000005f52601160045260245ffd5b5f615a38826146f5565b9150615a43836146f5565b9250828203905081811115615a5b57615a5a615a01565b5b92915050565b7f55736572206e6f7420666f756e640000000000000000000000000000000000005f82015250565b5f615a95600e83614585565b9150615aa082615a61565b602082019050919050565b5f6020820190508181035f830152615ac281615a89565b905091905056fea2646970667358221220fc3c6f0bf856590762e3fb4b12cc9a66184f7c72228fe62cfac1567a8e96cbd464736f6c634300081e0033","linkReferences":{}},"methodIdentifiers":{"Login(address)":"eecc1c95","_contractOwner()":"2bb3b114","addCitizen(string,string,string,string,string,string)":"aace8d9f","addInstitution(string,address,string,string)":"d90d7c06","addOperator(string,string,address,string,string)":"d7d6d946","announceDeath(string)":"2afe436a","checkHealthInsuranceStatusByNumber(string)":"74ad48da","citizenArray(uint256)":"1af44596","citizenMapping(string)":"ede0a3f2","deathCertificateArray(uint256)":"f21bccfd","deathcertificateMapping(string)":"0a4f3679","getAllCitizens()":"6c0e1ccd","getAllInstitution()":"36a786ec","getAllOperators()":"d911c632","getAllTransactions()":"27506f53","getCitizenData(string)":"b231d4a5","getInstitutionNameByAddress(address)":"1d5e08dd","identityArray(uint256)":"4b2d18ba","institutionAddressMapping(address)":"5f82ddc0","institutionArray(uint256)":"dd1209dd","institutionMapping(string)":"8d9b6a39","isCitizenAlive(string)":"cd01b103","issueCitizenId(string,string)":"4b2fd467","issueDeathCertificate(string,string,address,string)":"7179919f","operatorArray(uint256)":"8c694d4d","operatorMapping(address)":"e5ec9e13","transactionsArray(uint256)":"e210ecee","userArray(uint256)":"41209af1","userMapping(address)":"118b9535"},"id":22}